
watch_cbu6.elf:     file format elf32-littlearm

Sections:
Idx Name          Size      VMA       LMA       File off  Algn
  0 .isr_vector   0000010c  08000000  08000000  00001000  2**0
                  CONTENTS, ALLOC, LOAD, READONLY, DATA
  1 .text         0000baf8  08000110  08000110  00001110  2**4
                  CONTENTS, ALLOC, LOAD, READONLY, CODE
  2 .rodata       00001030  0800bc08  0800bc08  0000cc08  2**2
                  CONTENTS, ALLOC, LOAD, READONLY, DATA
  3 .ARM.extab    00000000  0800cc38  0800cc38  0000e68c  2**0
                  CONTENTS
  4 .ARM          00000008  0800cc38  0800cc38  0000dc38  2**2
                  CONTENTS, ALLOC, LOAD, READONLY, DATA
  5 .preinit_array 00000000  0800cc40  0800cc40  0000e68c  2**0
                  CONTENTS, ALLOC, LOAD, DATA
  6 .init_array   00000004  0800cc40  0800cc40  0000dc40  2**2
                  CONTENTS, ALLOC, LOAD, READONLY, DATA
  7 .fini_array   00000004  0800cc44  0800cc44  0000dc44  2**2
                  CONTENTS, ALLOC, LOAD, READONLY, DATA
  8 .data         0000068c  20000000  0800cc48  0000e000  2**2
                  CONTENTS, ALLOC, LOAD, DATA
  9 .bss          00002c24  2000068c  0800d2d4  0000e68c  2**2
                  ALLOC
 10 ._user_heap_stack 00000600  200032b0  0800d2d4  0000f2b0  2**0
                  ALLOC
 11 .ARM.attributes 00000029  00000000  00000000  0000e68c  2**0
                  CONTENTS, READONLY
 12 .debug_info   000271f9  00000000  00000000  0000e6b5  2**0
                  CONTENTS, READONLY, DEBUGGING, OCTETS
 13 .debug_abbrev 000063a8  00000000  00000000  000358ae  2**0
                  CONTENTS, READONLY, DEBUGGING, OCTETS
 14 .debug_aranges 000020a0  00000000  00000000  0003bc58  2**3
                  CONTENTS, READONLY, DEBUGGING, OCTETS
 15 .debug_rnglists 00001936  00000000  00000000  0003dcf8  2**0
                  CONTENTS, READONLY, DEBUGGING, OCTETS
 16 .debug_macro  0001db0c  00000000  00000000  0003f62e  2**0
                  CONTENTS, READONLY, DEBUGGING, OCTETS
 17 .debug_line   0002ce10  00000000  00000000  0005d13a  2**0
                  CONTENTS, READONLY, DEBUGGING, OCTETS
 18 .debug_str    000a3d4b  00000000  00000000  00089f4a  2**0
                  CONTENTS, READONLY, DEBUGGING, OCTETS
 19 .comment      00000043  00000000  00000000  0012dc95  2**0
                  CONTENTS, READONLY
 20 .debug_frame  00008d04  00000000  00000000  0012dcd8  2**2
                  CONTENTS, READONLY, DEBUGGING, OCTETS
 21 .debug_line_str 00000079  00000000  00000000  001369dc  2**0
                  CONTENTS, READONLY, DEBUGGING, OCTETS

Disassembly of section .text:

08000110 <__do_global_dtors_aux>:
 8000110:	b510      	push	{r4, lr}
 8000112:	4c05      	ldr	r4, [pc, #20]	@ (8000128 <__do_global_dtors_aux+0x18>)
 8000114:	7823      	ldrb	r3, [r4, #0]
 8000116:	b933      	cbnz	r3, 8000126 <__do_global_dtors_aux+0x16>
 8000118:	4b04      	ldr	r3, [pc, #16]	@ (800012c <__do_global_dtors_aux+0x1c>)
 800011a:	b113      	cbz	r3, 8000122 <__do_global_dtors_aux+0x12>
 800011c:	4804      	ldr	r0, [pc, #16]	@ (8000130 <__do_global_dtors_aux+0x20>)
 800011e:	f3af 8000 	nop.w
 8000122:	2301      	movs	r3, #1
 8000124:	7023      	strb	r3, [r4, #0]
 8000126:	bd10      	pop	{r4, pc}
 8000128:	2000068c 	.word	0x2000068c
 800012c:	00000000 	.word	0x00000000
 8000130:	0800bbf0 	.word	0x0800bbf0

08000134 <frame_dummy>:
 8000134:	b508      	push	{r3, lr}
 8000136:	4b03      	ldr	r3, [pc, #12]	@ (8000144 <frame_dummy+0x10>)
 8000138:	b11b      	cbz	r3, 8000142 <frame_dummy+0xe>
 800013a:	4903      	ldr	r1, [pc, #12]	@ (8000148 <frame_dummy+0x14>)
 800013c:	4803      	ldr	r0, [pc, #12]	@ (800014c <frame_dummy+0x18>)
 800013e:	f3af 8000 	nop.w
 8000142:	bd08      	pop	{r3, pc}
 8000144:	00000000 	.word	0x00000000
 8000148:	20000690 	.word	0x20000690
 800014c:	0800bbf0 	.word	0x0800bbf0

08000150 <strlen>:
 8000150:	4603      	mov	r3, r0
 8000152:	f813 2b01 	ldrb.w	r2, [r3], #1
 8000156:	2a00      	cmp	r2, #0
 8000158:	d1fb      	bne.n	8000152 <strlen+0x2>
 800015a:	1a18      	subs	r0, r3, r0
 800015c:	3801      	subs	r0, #1
 800015e:	4770      	bx	lr

08000160 <__aeabi_drsub>:
 8000160:	f081 4100 	eor.w	r1, r1, #2147483648	@ 0x80000000
 8000164:	e002      	b.n	800016c <__adddf3>
 8000166:	bf00      	nop

08000168 <__aeabi_dsub>:
 8000168:	f083 4300 	eor.w	r3, r3, #2147483648	@ 0x80000000

0800016c <__adddf3>:
 800016c:	b530      	push	{r4, r5, lr}
 800016e:	ea4f 0441 	mov.w	r4, r1, lsl #1
 8000172:	ea4f 0543 	mov.w	r5, r3, lsl #1
 8000176:	ea94 0f05 	teq	r4, r5
 800017a:	bf08      	it	eq
 800017c:	ea90 0f02 	teqeq	r0, r2
 8000180:	bf1f      	itttt	ne
 8000182:	ea54 0c00 	orrsne.w	ip, r4, r0
 8000186:	ea55 0c02 	orrsne.w	ip, r5, r2
 800018a:	ea7f 5c64 	mvnsne.w	ip, r4, asr #21
 800018e:	ea7f 5c65 	mvnsne.w	ip, r5, asr #21
 8000192:	f000 80e2 	beq.w	800035a <__adddf3+0x1ee>
 8000196:	ea4f 5454 	mov.w	r4, r4, lsr #21
 800019a:	ebd4 5555 	rsbs	r5, r4, r5, lsr #21
 800019e:	bfb8      	it	lt
 80001a0:	426d      	neglt	r5, r5
 80001a2:	dd0c      	ble.n	80001be <__adddf3+0x52>
 80001a4:	442c      	add	r4, r5
 80001a6:	ea80 0202 	eor.w	r2, r0, r2
 80001aa:	ea81 0303 	eor.w	r3, r1, r3
 80001ae:	ea82 0000 	eor.w	r0, r2, r0
 80001b2:	ea83 0101 	eor.w	r1, r3, r1
 80001b6:	ea80 0202 	eor.w	r2, r0, r2
 80001ba:	ea81 0303 	eor.w	r3, r1, r3
 80001be:	2d36      	cmp	r5, #54	@ 0x36
 80001c0:	bf88      	it	hi
 80001c2:	bd30      	pophi	{r4, r5, pc}
 80001c4:	f011 4f00 	tst.w	r1, #2147483648	@ 0x80000000
 80001c8:	ea4f 3101 	mov.w	r1, r1, lsl #12
 80001cc:	f44f 1c80 	mov.w	ip, #1048576	@ 0x100000
 80001d0:	ea4c 3111 	orr.w	r1, ip, r1, lsr #12
 80001d4:	d002      	beq.n	80001dc <__adddf3+0x70>
 80001d6:	4240      	negs	r0, r0
 80001d8:	eb61 0141 	sbc.w	r1, r1, r1, lsl #1
 80001dc:	f013 4f00 	tst.w	r3, #2147483648	@ 0x80000000
 80001e0:	ea4f 3303 	mov.w	r3, r3, lsl #12
 80001e4:	ea4c 3313 	orr.w	r3, ip, r3, lsr #12
 80001e8:	d002      	beq.n	80001f0 <__adddf3+0x84>
 80001ea:	4252      	negs	r2, r2
 80001ec:	eb63 0343 	sbc.w	r3, r3, r3, lsl #1
 80001f0:	ea94 0f05 	teq	r4, r5
 80001f4:	f000 80a7 	beq.w	8000346 <__adddf3+0x1da>
 80001f8:	f1a4 0401 	sub.w	r4, r4, #1
 80001fc:	f1d5 0e20 	rsbs	lr, r5, #32
 8000200:	db0d      	blt.n	800021e <__adddf3+0xb2>
 8000202:	fa02 fc0e 	lsl.w	ip, r2, lr
 8000206:	fa22 f205 	lsr.w	r2, r2, r5
 800020a:	1880      	adds	r0, r0, r2
 800020c:	f141 0100 	adc.w	r1, r1, #0
 8000210:	fa03 f20e 	lsl.w	r2, r3, lr
 8000214:	1880      	adds	r0, r0, r2
 8000216:	fa43 f305 	asr.w	r3, r3, r5
 800021a:	4159      	adcs	r1, r3
 800021c:	e00e      	b.n	800023c <__adddf3+0xd0>
 800021e:	f1a5 0520 	sub.w	r5, r5, #32
 8000222:	f10e 0e20 	add.w	lr, lr, #32
 8000226:	2a01      	cmp	r2, #1
 8000228:	fa03 fc0e 	lsl.w	ip, r3, lr
 800022c:	bf28      	it	cs
 800022e:	f04c 0c02 	orrcs.w	ip, ip, #2
 8000232:	fa43 f305 	asr.w	r3, r3, r5
 8000236:	18c0      	adds	r0, r0, r3
 8000238:	eb51 71e3 	adcs.w	r1, r1, r3, asr #31
 800023c:	f001 4500 	and.w	r5, r1, #2147483648	@ 0x80000000
 8000240:	d507      	bpl.n	8000252 <__adddf3+0xe6>
 8000242:	f04f 0e00 	mov.w	lr, #0
 8000246:	f1dc 0c00 	rsbs	ip, ip, #0
 800024a:	eb7e 0000 	sbcs.w	r0, lr, r0
 800024e:	eb6e 0101 	sbc.w	r1, lr, r1
 8000252:	f5b1 1f80 	cmp.w	r1, #1048576	@ 0x100000
 8000256:	d31b      	bcc.n	8000290 <__adddf3+0x124>
 8000258:	f5b1 1f00 	cmp.w	r1, #2097152	@ 0x200000
 800025c:	d30c      	bcc.n	8000278 <__adddf3+0x10c>
 800025e:	0849      	lsrs	r1, r1, #1
 8000260:	ea5f 0030 	movs.w	r0, r0, rrx
 8000264:	ea4f 0c3c 	mov.w	ip, ip, rrx
 8000268:	f104 0401 	add.w	r4, r4, #1
 800026c:	ea4f 5244 	mov.w	r2, r4, lsl #21
 8000270:	f512 0f80 	cmn.w	r2, #4194304	@ 0x400000
 8000274:	f080 809a 	bcs.w	80003ac <__adddf3+0x240>
 8000278:	f1bc 4f00 	cmp.w	ip, #2147483648	@ 0x80000000
 800027c:	bf08      	it	eq
 800027e:	ea5f 0c50 	movseq.w	ip, r0, lsr #1
 8000282:	f150 0000 	adcs.w	r0, r0, #0
 8000286:	eb41 5104 	adc.w	r1, r1, r4, lsl #20
 800028a:	ea41 0105 	orr.w	r1, r1, r5
 800028e:	bd30      	pop	{r4, r5, pc}
 8000290:	ea5f 0c4c 	movs.w	ip, ip, lsl #1
 8000294:	4140      	adcs	r0, r0
 8000296:	eb41 0101 	adc.w	r1, r1, r1
 800029a:	3c01      	subs	r4, #1
 800029c:	bf28      	it	cs
 800029e:	f5b1 1f80 	cmpcs.w	r1, #1048576	@ 0x100000
 80002a2:	d2e9      	bcs.n	8000278 <__adddf3+0x10c>
 80002a4:	f091 0f00 	teq	r1, #0
 80002a8:	bf04      	itt	eq
 80002aa:	4601      	moveq	r1, r0
 80002ac:	2000      	moveq	r0, #0
 80002ae:	fab1 f381 	clz	r3, r1
 80002b2:	bf08      	it	eq
 80002b4:	3320      	addeq	r3, #32
 80002b6:	f1a3 030b 	sub.w	r3, r3, #11
 80002ba:	f1b3 0220 	subs.w	r2, r3, #32
 80002be:	da0c      	bge.n	80002da <__adddf3+0x16e>
 80002c0:	320c      	adds	r2, #12
 80002c2:	dd08      	ble.n	80002d6 <__adddf3+0x16a>
 80002c4:	f102 0c14 	add.w	ip, r2, #20
 80002c8:	f1c2 020c 	rsb	r2, r2, #12
 80002cc:	fa01 f00c 	lsl.w	r0, r1, ip
 80002d0:	fa21 f102 	lsr.w	r1, r1, r2
 80002d4:	e00c      	b.n	80002f0 <__adddf3+0x184>
 80002d6:	f102 0214 	add.w	r2, r2, #20
 80002da:	bfd8      	it	le
 80002dc:	f1c2 0c20 	rsble	ip, r2, #32
 80002e0:	fa01 f102 	lsl.w	r1, r1, r2
 80002e4:	fa20 fc0c 	lsr.w	ip, r0, ip
 80002e8:	bfdc      	itt	le
 80002ea:	ea41 010c 	orrle.w	r1, r1, ip
 80002ee:	4090      	lslle	r0, r2
 80002f0:	1ae4      	subs	r4, r4, r3
 80002f2:	bfa2      	ittt	ge
 80002f4:	eb01 5104 	addge.w	r1, r1, r4, lsl #20
 80002f8:	4329      	orrge	r1, r5
 80002fa:	bd30      	popge	{r4, r5, pc}
 80002fc:	ea6f 0404 	mvn.w	r4, r4
 8000300:	3c1f      	subs	r4, #31
 8000302:	da1c      	bge.n	800033e <__adddf3+0x1d2>
 8000304:	340c      	adds	r4, #12
 8000306:	dc0e      	bgt.n	8000326 <__adddf3+0x1ba>
 8000308:	f104 0414 	add.w	r4, r4, #20
 800030c:	f1c4 0220 	rsb	r2, r4, #32
 8000310:	fa20 f004 	lsr.w	r0, r0, r4
 8000314:	fa01 f302 	lsl.w	r3, r1, r2
 8000318:	ea40 0003 	orr.w	r0, r0, r3
 800031c:	fa21 f304 	lsr.w	r3, r1, r4
 8000320:	ea45 0103 	orr.w	r1, r5, r3
 8000324:	bd30      	pop	{r4, r5, pc}
 8000326:	f1c4 040c 	rsb	r4, r4, #12
 800032a:	f1c4 0220 	rsb	r2, r4, #32
 800032e:	fa20 f002 	lsr.w	r0, r0, r2
 8000332:	fa01 f304 	lsl.w	r3, r1, r4
 8000336:	ea40 0003 	orr.w	r0, r0, r3
 800033a:	4629      	mov	r1, r5
 800033c:	bd30      	pop	{r4, r5, pc}
 800033e:	fa21 f004 	lsr.w	r0, r1, r4
 8000342:	4629      	mov	r1, r5
 8000344:	bd30      	pop	{r4, r5, pc}
 8000346:	f094 0f00 	teq	r4, #0
 800034a:	f483 1380 	eor.w	r3, r3, #1048576	@ 0x100000
 800034e:	bf06      	itte	eq
 8000350:	f481 1180 	eoreq.w	r1, r1, #1048576	@ 0x100000
 8000354:	3401      	addeq	r4, #1
 8000356:	3d01      	subne	r5, #1
 8000358:	e74e      	b.n	80001f8 <__adddf3+0x8c>
 800035a:	ea7f 5c64 	mvns.w	ip, r4, asr #21
 800035e:	bf18      	it	ne
 8000360:	ea7f 5c65 	mvnsne.w	ip, r5, asr #21
 8000364:	d029      	beq.n	80003ba <__adddf3+0x24e>
 8000366:	ea94 0f05 	teq	r4, r5
 800036a:	bf08      	it	eq
 800036c:	ea90 0f02 	teqeq	r0, r2
 8000370:	d005      	beq.n	800037e <__adddf3+0x212>
 8000372:	ea54 0c00 	orrs.w	ip, r4, r0
 8000376:	bf04      	itt	eq
 8000378:	4619      	moveq	r1, r3
 800037a:	4610      	moveq	r0, r2
 800037c:	bd30      	pop	{r4, r5, pc}
 800037e:	ea91 0f03 	teq	r1, r3
 8000382:	bf1e      	ittt	ne
 8000384:	2100      	movne	r1, #0
 8000386:	2000      	movne	r0, #0
 8000388:	bd30      	popne	{r4, r5, pc}
 800038a:	ea5f 5c54 	movs.w	ip, r4, lsr #21
 800038e:	d105      	bne.n	800039c <__adddf3+0x230>
 8000390:	0040      	lsls	r0, r0, #1
 8000392:	4149      	adcs	r1, r1
 8000394:	bf28      	it	cs
 8000396:	f041 4100 	orrcs.w	r1, r1, #2147483648	@ 0x80000000
 800039a:	bd30      	pop	{r4, r5, pc}
 800039c:	f514 0480 	adds.w	r4, r4, #4194304	@ 0x400000
 80003a0:	bf3c      	itt	cc
 80003a2:	f501 1180 	addcc.w	r1, r1, #1048576	@ 0x100000
 80003a6:	bd30      	popcc	{r4, r5, pc}
 80003a8:	f001 4500 	and.w	r5, r1, #2147483648	@ 0x80000000
 80003ac:	f045 41fe 	orr.w	r1, r5, #2130706432	@ 0x7f000000
 80003b0:	f441 0170 	orr.w	r1, r1, #15728640	@ 0xf00000
 80003b4:	f04f 0000 	mov.w	r0, #0
 80003b8:	bd30      	pop	{r4, r5, pc}
 80003ba:	ea7f 5c64 	mvns.w	ip, r4, asr #21
 80003be:	bf1a      	itte	ne
 80003c0:	4619      	movne	r1, r3
 80003c2:	4610      	movne	r0, r2
 80003c4:	ea7f 5c65 	mvnseq.w	ip, r5, asr #21
 80003c8:	bf1c      	itt	ne
 80003ca:	460b      	movne	r3, r1
 80003cc:	4602      	movne	r2, r0
 80003ce:	ea50 3401 	orrs.w	r4, r0, r1, lsl #12
 80003d2:	bf06      	itte	eq
 80003d4:	ea52 3503 	orrseq.w	r5, r2, r3, lsl #12
 80003d8:	ea91 0f03 	teqeq	r1, r3
 80003dc:	f441 2100 	orrne.w	r1, r1, #524288	@ 0x80000
 80003e0:	bd30      	pop	{r4, r5, pc}
 80003e2:	bf00      	nop

080003e4 <__aeabi_ui2d>:
 80003e4:	f090 0f00 	teq	r0, #0
 80003e8:	bf04      	itt	eq
 80003ea:	2100      	moveq	r1, #0
 80003ec:	4770      	bxeq	lr
 80003ee:	b530      	push	{r4, r5, lr}
 80003f0:	f44f 6480 	mov.w	r4, #1024	@ 0x400
 80003f4:	f104 0432 	add.w	r4, r4, #50	@ 0x32
 80003f8:	f04f 0500 	mov.w	r5, #0
 80003fc:	f04f 0100 	mov.w	r1, #0
 8000400:	e750      	b.n	80002a4 <__adddf3+0x138>
 8000402:	bf00      	nop

08000404 <__aeabi_i2d>:
 8000404:	f090 0f00 	teq	r0, #0
 8000408:	bf04      	itt	eq
 800040a:	2100      	moveq	r1, #0
 800040c:	4770      	bxeq	lr
 800040e:	b530      	push	{r4, r5, lr}
 8000410:	f44f 6480 	mov.w	r4, #1024	@ 0x400
 8000414:	f104 0432 	add.w	r4, r4, #50	@ 0x32
 8000418:	f010 4500 	ands.w	r5, r0, #2147483648	@ 0x80000000
 800041c:	bf48      	it	mi
 800041e:	4240      	negmi	r0, r0
 8000420:	f04f 0100 	mov.w	r1, #0
 8000424:	e73e      	b.n	80002a4 <__adddf3+0x138>
 8000426:	bf00      	nop

08000428 <__aeabi_f2d>:
 8000428:	0042      	lsls	r2, r0, #1
 800042a:	ea4f 01e2 	mov.w	r1, r2, asr #3
 800042e:	ea4f 0131 	mov.w	r1, r1, rrx
 8000432:	ea4f 7002 	mov.w	r0, r2, lsl #28
 8000436:	bf1f      	itttt	ne
 8000438:	f012 437f 	andsne.w	r3, r2, #4278190080	@ 0xff000000
 800043c:	f093 4f7f 	teqne	r3, #4278190080	@ 0xff000000
 8000440:	f081 5160 	eorne.w	r1, r1, #939524096	@ 0x38000000
 8000444:	4770      	bxne	lr
 8000446:	f032 427f 	bics.w	r2, r2, #4278190080	@ 0xff000000
 800044a:	bf08      	it	eq
 800044c:	4770      	bxeq	lr
 800044e:	f093 4f7f 	teq	r3, #4278190080	@ 0xff000000
 8000452:	bf04      	itt	eq
 8000454:	f441 2100 	orreq.w	r1, r1, #524288	@ 0x80000
 8000458:	4770      	bxeq	lr
 800045a:	b530      	push	{r4, r5, lr}
 800045c:	f44f 7460 	mov.w	r4, #896	@ 0x380
 8000460:	f001 4500 	and.w	r5, r1, #2147483648	@ 0x80000000
 8000464:	f021 4100 	bic.w	r1, r1, #2147483648	@ 0x80000000
 8000468:	e71c      	b.n	80002a4 <__adddf3+0x138>
 800046a:	bf00      	nop

0800046c <__aeabi_ul2d>:
 800046c:	ea50 0201 	orrs.w	r2, r0, r1
 8000470:	bf08      	it	eq
 8000472:	4770      	bxeq	lr
 8000474:	b530      	push	{r4, r5, lr}
 8000476:	f04f 0500 	mov.w	r5, #0
 800047a:	e00a      	b.n	8000492 <__aeabi_l2d+0x16>

0800047c <__aeabi_l2d>:
 800047c:	ea50 0201 	orrs.w	r2, r0, r1
 8000480:	bf08      	it	eq
 8000482:	4770      	bxeq	lr
 8000484:	b530      	push	{r4, r5, lr}
 8000486:	f011 4500 	ands.w	r5, r1, #2147483648	@ 0x80000000
 800048a:	d502      	bpl.n	8000492 <__aeabi_l2d+0x16>
 800048c:	4240      	negs	r0, r0
 800048e:	eb61 0141 	sbc.w	r1, r1, r1, lsl #1
 8000492:	f44f 6480 	mov.w	r4, #1024	@ 0x400
 8000496:	f104 0432 	add.w	r4, r4, #50	@ 0x32
 800049a:	ea5f 5c91 	movs.w	ip, r1, lsr #22
 800049e:	f43f aed8 	beq.w	8000252 <__adddf3+0xe6>
 80004a2:	f04f 0203 	mov.w	r2, #3
 80004a6:	ea5f 0cdc 	movs.w	ip, ip, lsr #3
 80004aa:	bf18      	it	ne
 80004ac:	3203      	addne	r2, #3
 80004ae:	ea5f 0cdc 	movs.w	ip, ip, lsr #3
 80004b2:	bf18      	it	ne
 80004b4:	3203      	addne	r2, #3
 80004b6:	eb02 02dc 	add.w	r2, r2, ip, lsr #3
 80004ba:	f1c2 0320 	rsb	r3, r2, #32
 80004be:	fa00 fc03 	lsl.w	ip, r0, r3
 80004c2:	fa20 f002 	lsr.w	r0, r0, r2
 80004c6:	fa01 fe03 	lsl.w	lr, r1, r3
 80004ca:	ea40 000e 	orr.w	r0, r0, lr
 80004ce:	fa21 f102 	lsr.w	r1, r1, r2
 80004d2:	4414      	add	r4, r2
 80004d4:	e6bd      	b.n	8000252 <__adddf3+0xe6>
 80004d6:	bf00      	nop

080004d8 <__aeabi_dmul>:
 80004d8:	b570      	push	{r4, r5, r6, lr}
 80004da:	f04f 0cff 	mov.w	ip, #255	@ 0xff
 80004de:	f44c 6ce0 	orr.w	ip, ip, #1792	@ 0x700
 80004e2:	ea1c 5411 	ands.w	r4, ip, r1, lsr #20
 80004e6:	bf1d      	ittte	ne
 80004e8:	ea1c 5513 	andsne.w	r5, ip, r3, lsr #20
 80004ec:	ea94 0f0c 	teqne	r4, ip
 80004f0:	ea95 0f0c 	teqne	r5, ip
 80004f4:	f000 f8de 	bleq	80006b4 <__aeabi_dmul+0x1dc>
 80004f8:	442c      	add	r4, r5
 80004fa:	ea81 0603 	eor.w	r6, r1, r3
 80004fe:	ea21 514c 	bic.w	r1, r1, ip, lsl #21
 8000502:	ea23 534c 	bic.w	r3, r3, ip, lsl #21
 8000506:	ea50 3501 	orrs.w	r5, r0, r1, lsl #12
 800050a:	bf18      	it	ne
 800050c:	ea52 3503 	orrsne.w	r5, r2, r3, lsl #12
 8000510:	f441 1180 	orr.w	r1, r1, #1048576	@ 0x100000
 8000514:	f443 1380 	orr.w	r3, r3, #1048576	@ 0x100000
 8000518:	d038      	beq.n	800058c <__aeabi_dmul+0xb4>
 800051a:	fba0 ce02 	umull	ip, lr, r0, r2
 800051e:	f04f 0500 	mov.w	r5, #0
 8000522:	fbe1 e502 	umlal	lr, r5, r1, r2
 8000526:	f006 4200 	and.w	r2, r6, #2147483648	@ 0x80000000
 800052a:	fbe0 e503 	umlal	lr, r5, r0, r3
 800052e:	f04f 0600 	mov.w	r6, #0
 8000532:	fbe1 5603 	umlal	r5, r6, r1, r3
 8000536:	f09c 0f00 	teq	ip, #0
 800053a:	bf18      	it	ne
 800053c:	f04e 0e01 	orrne.w	lr, lr, #1
 8000540:	f1a4 04ff 	sub.w	r4, r4, #255	@ 0xff
 8000544:	f5b6 7f00 	cmp.w	r6, #512	@ 0x200
 8000548:	f564 7440 	sbc.w	r4, r4, #768	@ 0x300
 800054c:	d204      	bcs.n	8000558 <__aeabi_dmul+0x80>
 800054e:	ea5f 0e4e 	movs.w	lr, lr, lsl #1
 8000552:	416d      	adcs	r5, r5
 8000554:	eb46 0606 	adc.w	r6, r6, r6
 8000558:	ea42 21c6 	orr.w	r1, r2, r6, lsl #11
 800055c:	ea41 5155 	orr.w	r1, r1, r5, lsr #21
 8000560:	ea4f 20c5 	mov.w	r0, r5, lsl #11
 8000564:	ea40 505e 	orr.w	r0, r0, lr, lsr #21
 8000568:	ea4f 2ece 	mov.w	lr, lr, lsl #11
 800056c:	f1b4 0cfd 	subs.w	ip, r4, #253	@ 0xfd
 8000570:	bf88      	it	hi
 8000572:	f5bc 6fe0 	cmphi.w	ip, #1792	@ 0x700
 8000576:	d81e      	bhi.n	80005b6 <__aeabi_dmul+0xde>
 8000578:	f1be 4f00 	cmp.w	lr, #2147483648	@ 0x80000000
 800057c:	bf08      	it	eq
 800057e:	ea5f 0e50 	movseq.w	lr, r0, lsr #1
 8000582:	f150 0000 	adcs.w	r0, r0, #0
 8000586:	eb41 5104 	adc.w	r1, r1, r4, lsl #20
 800058a:	bd70      	pop	{r4, r5, r6, pc}
 800058c:	f006 4600 	and.w	r6, r6, #2147483648	@ 0x80000000
 8000590:	ea46 0101 	orr.w	r1, r6, r1
 8000594:	ea40 0002 	orr.w	r0, r0, r2
 8000598:	ea81 0103 	eor.w	r1, r1, r3
 800059c:	ebb4 045c 	subs.w	r4, r4, ip, lsr #1
 80005a0:	bfc2      	ittt	gt
 80005a2:	ebd4 050c 	rsbsgt	r5, r4, ip
 80005a6:	ea41 5104 	orrgt.w	r1, r1, r4, lsl #20
 80005aa:	bd70      	popgt	{r4, r5, r6, pc}
 80005ac:	f441 1180 	orr.w	r1, r1, #1048576	@ 0x100000
 80005b0:	f04f 0e00 	mov.w	lr, #0
 80005b4:	3c01      	subs	r4, #1
 80005b6:	f300 80ab 	bgt.w	8000710 <__aeabi_dmul+0x238>
 80005ba:	f114 0f36 	cmn.w	r4, #54	@ 0x36
 80005be:	bfde      	ittt	le
 80005c0:	2000      	movle	r0, #0
 80005c2:	f001 4100 	andle.w	r1, r1, #2147483648	@ 0x80000000
 80005c6:	bd70      	pople	{r4, r5, r6, pc}
 80005c8:	f1c4 0400 	rsb	r4, r4, #0
 80005cc:	3c20      	subs	r4, #32
 80005ce:	da35      	bge.n	800063c <__aeabi_dmul+0x164>
 80005d0:	340c      	adds	r4, #12
 80005d2:	dc1b      	bgt.n	800060c <__aeabi_dmul+0x134>
 80005d4:	f104 0414 	add.w	r4, r4, #20
 80005d8:	f1c4 0520 	rsb	r5, r4, #32
 80005dc:	fa00 f305 	lsl.w	r3, r0, r5
 80005e0:	fa20 f004 	lsr.w	r0, r0, r4
 80005e4:	fa01 f205 	lsl.w	r2, r1, r5
 80005e8:	ea40 0002 	orr.w	r0, r0, r2
 80005ec:	f001 4200 	and.w	r2, r1, #2147483648	@ 0x80000000
 80005f0:	f021 4100 	bic.w	r1, r1, #2147483648	@ 0x80000000
 80005f4:	eb10 70d3 	adds.w	r0, r0, r3, lsr #31
 80005f8:	fa21 f604 	lsr.w	r6, r1, r4
 80005fc:	eb42 0106 	adc.w	r1, r2, r6
 8000600:	ea5e 0e43 	orrs.w	lr, lr, r3, lsl #1
 8000604:	bf08      	it	eq
 8000606:	ea20 70d3 	biceq.w	r0, r0, r3, lsr #31
 800060a:	bd70      	pop	{r4, r5, r6, pc}
 800060c:	f1c4 040c 	rsb	r4, r4, #12
 8000610:	f1c4 0520 	rsb	r5, r4, #32
 8000614:	fa00 f304 	lsl.w	r3, r0, r4
 8000618:	fa20 f005 	lsr.w	r0, r0, r5
 800061c:	fa01 f204 	lsl.w	r2, r1, r4
 8000620:	ea40 0002 	orr.w	r0, r0, r2
 8000624:	f001 4100 	and.w	r1, r1, #2147483648	@ 0x80000000
 8000628:	eb10 70d3 	adds.w	r0, r0, r3, lsr #31
 800062c:	f141 0100 	adc.w	r1, r1, #0
 8000630:	ea5e 0e43 	orrs.w	lr, lr, r3, lsl #1
 8000634:	bf08      	it	eq
 8000636:	ea20 70d3 	biceq.w	r0, r0, r3, lsr #31
 800063a:	bd70      	pop	{r4, r5, r6, pc}
 800063c:	f1c4 0520 	rsb	r5, r4, #32
 8000640:	fa00 f205 	lsl.w	r2, r0, r5
 8000644:	ea4e 0e02 	orr.w	lr, lr, r2
 8000648:	fa20 f304 	lsr.w	r3, r0, r4
 800064c:	fa01 f205 	lsl.w	r2, r1, r5
 8000650:	ea43 0302 	orr.w	r3, r3, r2
 8000654:	fa21 f004 	lsr.w	r0, r1, r4
 8000658:	f001 4100 	and.w	r1, r1, #2147483648	@ 0x80000000
 800065c:	fa21 f204 	lsr.w	r2, r1, r4
 8000660:	ea20 0002 	bic.w	r0, r0, r2
 8000664:	eb00 70d3 	add.w	r0, r0, r3, lsr #31
 8000668:	ea5e 0e43 	orrs.w	lr, lr, r3, lsl #1
 800066c:	bf08      	it	eq
 800066e:	ea20 70d3 	biceq.w	r0, r0, r3, lsr #31
 8000672:	bd70      	pop	{r4, r5, r6, pc}
 8000674:	f094 0f00 	teq	r4, #0
 8000678:	d10f      	bne.n	800069a <__aeabi_dmul+0x1c2>
 800067a:	f001 4600 	and.w	r6, r1, #2147483648	@ 0x80000000
 800067e:	0040      	lsls	r0, r0, #1
 8000680:	eb41 0101 	adc.w	r1, r1, r1
 8000684:	f411 1f80 	tst.w	r1, #1048576	@ 0x100000
 8000688:	bf08      	it	eq
 800068a:	3c01      	subeq	r4, #1
 800068c:	d0f7      	beq.n	800067e <__aeabi_dmul+0x1a6>
 800068e:	ea41 0106 	orr.w	r1, r1, r6
 8000692:	f095 0f00 	teq	r5, #0
 8000696:	bf18      	it	ne
 8000698:	4770      	bxne	lr
 800069a:	f003 4600 	and.w	r6, r3, #2147483648	@ 0x80000000
 800069e:	0052      	lsls	r2, r2, #1
 80006a0:	eb43 0303 	adc.w	r3, r3, r3
 80006a4:	f413 1f80 	tst.w	r3, #1048576	@ 0x100000
 80006a8:	bf08      	it	eq
 80006aa:	3d01      	subeq	r5, #1
 80006ac:	d0f7      	beq.n	800069e <__aeabi_dmul+0x1c6>
 80006ae:	ea43 0306 	orr.w	r3, r3, r6
 80006b2:	4770      	bx	lr
 80006b4:	ea94 0f0c 	teq	r4, ip
 80006b8:	ea0c 5513 	and.w	r5, ip, r3, lsr #20
 80006bc:	bf18      	it	ne
 80006be:	ea95 0f0c 	teqne	r5, ip
 80006c2:	d00c      	beq.n	80006de <__aeabi_dmul+0x206>
 80006c4:	ea50 0641 	orrs.w	r6, r0, r1, lsl #1
 80006c8:	bf18      	it	ne
 80006ca:	ea52 0643 	orrsne.w	r6, r2, r3, lsl #1
 80006ce:	d1d1      	bne.n	8000674 <__aeabi_dmul+0x19c>
 80006d0:	ea81 0103 	eor.w	r1, r1, r3
 80006d4:	f001 4100 	and.w	r1, r1, #2147483648	@ 0x80000000
 80006d8:	f04f 0000 	mov.w	r0, #0
 80006dc:	bd70      	pop	{r4, r5, r6, pc}
 80006de:	ea50 0641 	orrs.w	r6, r0, r1, lsl #1
 80006e2:	bf06      	itte	eq
 80006e4:	4610      	moveq	r0, r2
 80006e6:	4619      	moveq	r1, r3
 80006e8:	ea52 0643 	orrsne.w	r6, r2, r3, lsl #1
 80006ec:	d019      	beq.n	8000722 <__aeabi_dmul+0x24a>
 80006ee:	ea94 0f0c 	teq	r4, ip
 80006f2:	d102      	bne.n	80006fa <__aeabi_dmul+0x222>
 80006f4:	ea50 3601 	orrs.w	r6, r0, r1, lsl #12
 80006f8:	d113      	bne.n	8000722 <__aeabi_dmul+0x24a>
 80006fa:	ea95 0f0c 	teq	r5, ip
 80006fe:	d105      	bne.n	800070c <__aeabi_dmul+0x234>
 8000700:	ea52 3603 	orrs.w	r6, r2, r3, lsl #12
 8000704:	bf1c      	itt	ne
 8000706:	4610      	movne	r0, r2
 8000708:	4619      	movne	r1, r3
 800070a:	d10a      	bne.n	8000722 <__aeabi_dmul+0x24a>
 800070c:	ea81 0103 	eor.w	r1, r1, r3
 8000710:	f001 4100 	and.w	r1, r1, #2147483648	@ 0x80000000
 8000714:	f041 41fe 	orr.w	r1, r1, #2130706432	@ 0x7f000000
 8000718:	f441 0170 	orr.w	r1, r1, #15728640	@ 0xf00000
 800071c:	f04f 0000 	mov.w	r0, #0
 8000720:	bd70      	pop	{r4, r5, r6, pc}
 8000722:	f041 41fe 	orr.w	r1, r1, #2130706432	@ 0x7f000000
 8000726:	f441 0178 	orr.w	r1, r1, #16252928	@ 0xf80000
 800072a:	bd70      	pop	{r4, r5, r6, pc}

0800072c <__aeabi_ddiv>:
 800072c:	b570      	push	{r4, r5, r6, lr}
 800072e:	f04f 0cff 	mov.w	ip, #255	@ 0xff
 8000732:	f44c 6ce0 	orr.w	ip, ip, #1792	@ 0x700
 8000736:	ea1c 5411 	ands.w	r4, ip, r1, lsr #20
 800073a:	bf1d      	ittte	ne
 800073c:	ea1c 5513 	andsne.w	r5, ip, r3, lsr #20
 8000740:	ea94 0f0c 	teqne	r4, ip
 8000744:	ea95 0f0c 	teqne	r5, ip
 8000748:	f000 f8a7 	bleq	800089a <__aeabi_ddiv+0x16e>
 800074c:	eba4 0405 	sub.w	r4, r4, r5
 8000750:	ea81 0e03 	eor.w	lr, r1, r3
 8000754:	ea52 3503 	orrs.w	r5, r2, r3, lsl #12
 8000758:	ea4f 3101 	mov.w	r1, r1, lsl #12
 800075c:	f000 8088 	beq.w	8000870 <__aeabi_ddiv+0x144>
 8000760:	ea4f 3303 	mov.w	r3, r3, lsl #12
 8000764:	f04f 5580 	mov.w	r5, #268435456	@ 0x10000000
 8000768:	ea45 1313 	orr.w	r3, r5, r3, lsr #4
 800076c:	ea43 6312 	orr.w	r3, r3, r2, lsr #24
 8000770:	ea4f 2202 	mov.w	r2, r2, lsl #8
 8000774:	ea45 1511 	orr.w	r5, r5, r1, lsr #4
 8000778:	ea45 6510 	orr.w	r5, r5, r0, lsr #24
 800077c:	ea4f 2600 	mov.w	r6, r0, lsl #8
 8000780:	f00e 4100 	and.w	r1, lr, #2147483648	@ 0x80000000
 8000784:	429d      	cmp	r5, r3
 8000786:	bf08      	it	eq
 8000788:	4296      	cmpeq	r6, r2
 800078a:	f144 04fd 	adc.w	r4, r4, #253	@ 0xfd
 800078e:	f504 7440 	add.w	r4, r4, #768	@ 0x300
 8000792:	d202      	bcs.n	800079a <__aeabi_ddiv+0x6e>
 8000794:	085b      	lsrs	r3, r3, #1
 8000796:	ea4f 0232 	mov.w	r2, r2, rrx
 800079a:	1ab6      	subs	r6, r6, r2
 800079c:	eb65 0503 	sbc.w	r5, r5, r3
 80007a0:	085b      	lsrs	r3, r3, #1
 80007a2:	ea4f 0232 	mov.w	r2, r2, rrx
 80007a6:	f44f 1080 	mov.w	r0, #1048576	@ 0x100000
 80007aa:	f44f 2c00 	mov.w	ip, #524288	@ 0x80000
 80007ae:	ebb6 0e02 	subs.w	lr, r6, r2
 80007b2:	eb75 0e03 	sbcs.w	lr, r5, r3
 80007b6:	bf22      	ittt	cs
 80007b8:	1ab6      	subcs	r6, r6, r2
 80007ba:	4675      	movcs	r5, lr
 80007bc:	ea40 000c 	orrcs.w	r0, r0, ip
 80007c0:	085b      	lsrs	r3, r3, #1
 80007c2:	ea4f 0232 	mov.w	r2, r2, rrx
 80007c6:	ebb6 0e02 	subs.w	lr, r6, r2
 80007ca:	eb75 0e03 	sbcs.w	lr, r5, r3
 80007ce:	bf22      	ittt	cs
 80007d0:	1ab6      	subcs	r6, r6, r2
 80007d2:	4675      	movcs	r5, lr
 80007d4:	ea40 005c 	orrcs.w	r0, r0, ip, lsr #1
 80007d8:	085b      	lsrs	r3, r3, #1
 80007da:	ea4f 0232 	mov.w	r2, r2, rrx
 80007de:	ebb6 0e02 	subs.w	lr, r6, r2
 80007e2:	eb75 0e03 	sbcs.w	lr, r5, r3
 80007e6:	bf22      	ittt	cs
 80007e8:	1ab6      	subcs	r6, r6, r2
 80007ea:	4675      	movcs	r5, lr
 80007ec:	ea40 009c 	orrcs.w	r0, r0, ip, lsr #2
 80007f0:	085b      	lsrs	r3, r3, #1
 80007f2:	ea4f 0232 	mov.w	r2, r2, rrx
 80007f6:	ebb6 0e02 	subs.w	lr, r6, r2
 80007fa:	eb75 0e03 	sbcs.w	lr, r5, r3
 80007fe:	bf22      	ittt	cs
 8000800:	1ab6      	subcs	r6, r6, r2
 8000802:	4675      	movcs	r5, lr
 8000804:	ea40 00dc 	orrcs.w	r0, r0, ip, lsr #3
 8000808:	ea55 0e06 	orrs.w	lr, r5, r6
 800080c:	d018      	beq.n	8000840 <__aeabi_ddiv+0x114>
 800080e:	ea4f 1505 	mov.w	r5, r5, lsl #4
 8000812:	ea45 7516 	orr.w	r5, r5, r6, lsr #28
 8000816:	ea4f 1606 	mov.w	r6, r6, lsl #4
 800081a:	ea4f 03c3 	mov.w	r3, r3, lsl #3
 800081e:	ea43 7352 	orr.w	r3, r3, r2, lsr #29
 8000822:	ea4f 02c2 	mov.w	r2, r2, lsl #3
 8000826:	ea5f 1c1c 	movs.w	ip, ip, lsr #4
 800082a:	d1c0      	bne.n	80007ae <__aeabi_ddiv+0x82>
 800082c:	f411 1f80 	tst.w	r1, #1048576	@ 0x100000
 8000830:	d10b      	bne.n	800084a <__aeabi_ddiv+0x11e>
 8000832:	ea41 0100 	orr.w	r1, r1, r0
 8000836:	f04f 0000 	mov.w	r0, #0
 800083a:	f04f 4c00 	mov.w	ip, #2147483648	@ 0x80000000
 800083e:	e7b6      	b.n	80007ae <__aeabi_ddiv+0x82>
 8000840:	f411 1f80 	tst.w	r1, #1048576	@ 0x100000
 8000844:	bf04      	itt	eq
 8000846:	4301      	orreq	r1, r0
 8000848:	2000      	moveq	r0, #0
 800084a:	f1b4 0cfd 	subs.w	ip, r4, #253	@ 0xfd
 800084e:	bf88      	it	hi
 8000850:	f5bc 6fe0 	cmphi.w	ip, #1792	@ 0x700
 8000854:	f63f aeaf 	bhi.w	80005b6 <__aeabi_dmul+0xde>
 8000858:	ebb5 0c03 	subs.w	ip, r5, r3
 800085c:	bf04      	itt	eq
 800085e:	ebb6 0c02 	subseq.w	ip, r6, r2
 8000862:	ea5f 0c50 	movseq.w	ip, r0, lsr #1
 8000866:	f150 0000 	adcs.w	r0, r0, #0
 800086a:	eb41 5104 	adc.w	r1, r1, r4, lsl #20
 800086e:	bd70      	pop	{r4, r5, r6, pc}
 8000870:	f00e 4e00 	and.w	lr, lr, #2147483648	@ 0x80000000
 8000874:	ea4e 3111 	orr.w	r1, lr, r1, lsr #12
 8000878:	eb14 045c 	adds.w	r4, r4, ip, lsr #1
 800087c:	bfc2      	ittt	gt
 800087e:	ebd4 050c 	rsbsgt	r5, r4, ip
 8000882:	ea41 5104 	orrgt.w	r1, r1, r4, lsl #20
 8000886:	bd70      	popgt	{r4, r5, r6, pc}
 8000888:	f441 1180 	orr.w	r1, r1, #1048576	@ 0x100000
 800088c:	f04f 0e00 	mov.w	lr, #0
 8000890:	3c01      	subs	r4, #1
 8000892:	e690      	b.n	80005b6 <__aeabi_dmul+0xde>
 8000894:	ea45 0e06 	orr.w	lr, r5, r6
 8000898:	e68d      	b.n	80005b6 <__aeabi_dmul+0xde>
 800089a:	ea0c 5513 	and.w	r5, ip, r3, lsr #20
 800089e:	ea94 0f0c 	teq	r4, ip
 80008a2:	bf08      	it	eq
 80008a4:	ea95 0f0c 	teqeq	r5, ip
 80008a8:	f43f af3b 	beq.w	8000722 <__aeabi_dmul+0x24a>
 80008ac:	ea94 0f0c 	teq	r4, ip
 80008b0:	d10a      	bne.n	80008c8 <__aeabi_ddiv+0x19c>
 80008b2:	ea50 3401 	orrs.w	r4, r0, r1, lsl #12
 80008b6:	f47f af34 	bne.w	8000722 <__aeabi_dmul+0x24a>
 80008ba:	ea95 0f0c 	teq	r5, ip
 80008be:	f47f af25 	bne.w	800070c <__aeabi_dmul+0x234>
 80008c2:	4610      	mov	r0, r2
 80008c4:	4619      	mov	r1, r3
 80008c6:	e72c      	b.n	8000722 <__aeabi_dmul+0x24a>
 80008c8:	ea95 0f0c 	teq	r5, ip
 80008cc:	d106      	bne.n	80008dc <__aeabi_ddiv+0x1b0>
 80008ce:	ea52 3503 	orrs.w	r5, r2, r3, lsl #12
 80008d2:	f43f aefd 	beq.w	80006d0 <__aeabi_dmul+0x1f8>
 80008d6:	4610      	mov	r0, r2
 80008d8:	4619      	mov	r1, r3
 80008da:	e722      	b.n	8000722 <__aeabi_dmul+0x24a>
 80008dc:	ea50 0641 	orrs.w	r6, r0, r1, lsl #1
 80008e0:	bf18      	it	ne
 80008e2:	ea52 0643 	orrsne.w	r6, r2, r3, lsl #1
 80008e6:	f47f aec5 	bne.w	8000674 <__aeabi_dmul+0x19c>
 80008ea:	ea50 0441 	orrs.w	r4, r0, r1, lsl #1
 80008ee:	f47f af0d 	bne.w	800070c <__aeabi_dmul+0x234>
 80008f2:	ea52 0543 	orrs.w	r5, r2, r3, lsl #1
 80008f6:	f47f aeeb 	bne.w	80006d0 <__aeabi_dmul+0x1f8>
 80008fa:	e712      	b.n	8000722 <__aeabi_dmul+0x24a>

080008fc <__aeabi_d2iz>:
 80008fc:	ea4f 0241 	mov.w	r2, r1, lsl #1
 8000900:	f512 1200 	adds.w	r2, r2, #2097152	@ 0x200000
 8000904:	d215      	bcs.n	8000932 <__aeabi_d2iz+0x36>
 8000906:	d511      	bpl.n	800092c <__aeabi_d2iz+0x30>
 8000908:	f46f 7378 	mvn.w	r3, #992	@ 0x3e0
 800090c:	ebb3 5262 	subs.w	r2, r3, r2, asr #21
 8000910:	d912      	bls.n	8000938 <__aeabi_d2iz+0x3c>
 8000912:	ea4f 23c1 	mov.w	r3, r1, lsl #11
 8000916:	f043 4300 	orr.w	r3, r3, #2147483648	@ 0x80000000
 800091a:	ea43 5350 	orr.w	r3, r3, r0, lsr #21
 800091e:	f011 4f00 	tst.w	r1, #2147483648	@ 0x80000000
 8000922:	fa23 f002 	lsr.w	r0, r3, r2
 8000926:	bf18      	it	ne
 8000928:	4240      	negne	r0, r0
 800092a:	4770      	bx	lr
 800092c:	f04f 0000 	mov.w	r0, #0
 8000930:	4770      	bx	lr
 8000932:	ea50 3001 	orrs.w	r0, r0, r1, lsl #12
 8000936:	d105      	bne.n	8000944 <__aeabi_d2iz+0x48>
 8000938:	f011 4000 	ands.w	r0, r1, #2147483648	@ 0x80000000
 800093c:	bf08      	it	eq
 800093e:	f06f 4000 	mvneq.w	r0, #2147483648	@ 0x80000000
 8000942:	4770      	bx	lr
 8000944:	f04f 0000 	mov.w	r0, #0
 8000948:	4770      	bx	lr
 800094a:	bf00      	nop

0800094c <__aeabi_frsub>:
 800094c:	f080 4000 	eor.w	r0, r0, #2147483648	@ 0x80000000
 8000950:	e002      	b.n	8000958 <__addsf3>
 8000952:	bf00      	nop

08000954 <__aeabi_fsub>:
 8000954:	f081 4100 	eor.w	r1, r1, #2147483648	@ 0x80000000

08000958 <__addsf3>:
 8000958:	0042      	lsls	r2, r0, #1
 800095a:	bf1f      	itttt	ne
 800095c:	ea5f 0341 	movsne.w	r3, r1, lsl #1
 8000960:	ea92 0f03 	teqne	r2, r3
 8000964:	ea7f 6c22 	mvnsne.w	ip, r2, asr #24
 8000968:	ea7f 6c23 	mvnsne.w	ip, r3, asr #24
 800096c:	d06a      	beq.n	8000a44 <__addsf3+0xec>
 800096e:	ea4f 6212 	mov.w	r2, r2, lsr #24
 8000972:	ebd2 6313 	rsbs	r3, r2, r3, lsr #24
 8000976:	bfc1      	itttt	gt
 8000978:	18d2      	addgt	r2, r2, r3
 800097a:	4041      	eorgt	r1, r0
 800097c:	4048      	eorgt	r0, r1
 800097e:	4041      	eorgt	r1, r0
 8000980:	bfb8      	it	lt
 8000982:	425b      	neglt	r3, r3
 8000984:	2b19      	cmp	r3, #25
 8000986:	bf88      	it	hi
 8000988:	4770      	bxhi	lr
 800098a:	f010 4f00 	tst.w	r0, #2147483648	@ 0x80000000
 800098e:	f440 0000 	orr.w	r0, r0, #8388608	@ 0x800000
 8000992:	f020 407f 	bic.w	r0, r0, #4278190080	@ 0xff000000
 8000996:	bf18      	it	ne
 8000998:	4240      	negne	r0, r0
 800099a:	f011 4f00 	tst.w	r1, #2147483648	@ 0x80000000
 800099e:	f441 0100 	orr.w	r1, r1, #8388608	@ 0x800000
 80009a2:	f021 417f 	bic.w	r1, r1, #4278190080	@ 0xff000000
 80009a6:	bf18      	it	ne
 80009a8:	4249      	negne	r1, r1
 80009aa:	ea92 0f03 	teq	r2, r3
 80009ae:	d03f      	beq.n	8000a30 <__addsf3+0xd8>
 80009b0:	f1a2 0201 	sub.w	r2, r2, #1
 80009b4:	fa41 fc03 	asr.w	ip, r1, r3
 80009b8:	eb10 000c 	adds.w	r0, r0, ip
 80009bc:	f1c3 0320 	rsb	r3, r3, #32
 80009c0:	fa01 f103 	lsl.w	r1, r1, r3
 80009c4:	f000 4300 	and.w	r3, r0, #2147483648	@ 0x80000000
 80009c8:	d502      	bpl.n	80009d0 <__addsf3+0x78>
 80009ca:	4249      	negs	r1, r1
 80009cc:	eb60 0040 	sbc.w	r0, r0, r0, lsl #1
 80009d0:	f5b0 0f00 	cmp.w	r0, #8388608	@ 0x800000
 80009d4:	d313      	bcc.n	80009fe <__addsf3+0xa6>
 80009d6:	f1b0 7f80 	cmp.w	r0, #16777216	@ 0x1000000
 80009da:	d306      	bcc.n	80009ea <__addsf3+0x92>
 80009dc:	0840      	lsrs	r0, r0, #1
 80009de:	ea4f 0131 	mov.w	r1, r1, rrx
 80009e2:	f102 0201 	add.w	r2, r2, #1
 80009e6:	2afe      	cmp	r2, #254	@ 0xfe
 80009e8:	d251      	bcs.n	8000a8e <__addsf3+0x136>
 80009ea:	f1b1 4f00 	cmp.w	r1, #2147483648	@ 0x80000000
 80009ee:	eb40 50c2 	adc.w	r0, r0, r2, lsl #23
 80009f2:	bf08      	it	eq
 80009f4:	f020 0001 	biceq.w	r0, r0, #1
 80009f8:	ea40 0003 	orr.w	r0, r0, r3
 80009fc:	4770      	bx	lr
 80009fe:	0049      	lsls	r1, r1, #1
 8000a00:	eb40 0000 	adc.w	r0, r0, r0
 8000a04:	3a01      	subs	r2, #1
 8000a06:	bf28      	it	cs
 8000a08:	f5b0 0f00 	cmpcs.w	r0, #8388608	@ 0x800000
 8000a0c:	d2ed      	bcs.n	80009ea <__addsf3+0x92>
 8000a0e:	fab0 fc80 	clz	ip, r0
 8000a12:	f1ac 0c08 	sub.w	ip, ip, #8
 8000a16:	ebb2 020c 	subs.w	r2, r2, ip
 8000a1a:	fa00 f00c 	lsl.w	r0, r0, ip
 8000a1e:	bfaa      	itet	ge
 8000a20:	eb00 50c2 	addge.w	r0, r0, r2, lsl #23
 8000a24:	4252      	neglt	r2, r2
 8000a26:	4318      	orrge	r0, r3
 8000a28:	bfbc      	itt	lt
 8000a2a:	40d0      	lsrlt	r0, r2
 8000a2c:	4318      	orrlt	r0, r3
 8000a2e:	4770      	bx	lr
 8000a30:	f092 0f00 	teq	r2, #0
 8000a34:	f481 0100 	eor.w	r1, r1, #8388608	@ 0x800000
 8000a38:	bf06      	itte	eq
 8000a3a:	f480 0000 	eoreq.w	r0, r0, #8388608	@ 0x800000
 8000a3e:	3201      	addeq	r2, #1
 8000a40:	3b01      	subne	r3, #1
 8000a42:	e7b5      	b.n	80009b0 <__addsf3+0x58>
 8000a44:	ea4f 0341 	mov.w	r3, r1, lsl #1
 8000a48:	ea7f 6c22 	mvns.w	ip, r2, asr #24
 8000a4c:	bf18      	it	ne
 8000a4e:	ea7f 6c23 	mvnsne.w	ip, r3, asr #24
 8000a52:	d021      	beq.n	8000a98 <__addsf3+0x140>
 8000a54:	ea92 0f03 	teq	r2, r3
 8000a58:	d004      	beq.n	8000a64 <__addsf3+0x10c>
 8000a5a:	f092 0f00 	teq	r2, #0
 8000a5e:	bf08      	it	eq
 8000a60:	4608      	moveq	r0, r1
 8000a62:	4770      	bx	lr
 8000a64:	ea90 0f01 	teq	r0, r1
 8000a68:	bf1c      	itt	ne
 8000a6a:	2000      	movne	r0, #0
 8000a6c:	4770      	bxne	lr
 8000a6e:	f012 4f7f 	tst.w	r2, #4278190080	@ 0xff000000
 8000a72:	d104      	bne.n	8000a7e <__addsf3+0x126>
 8000a74:	0040      	lsls	r0, r0, #1
 8000a76:	bf28      	it	cs
 8000a78:	f040 4000 	orrcs.w	r0, r0, #2147483648	@ 0x80000000
 8000a7c:	4770      	bx	lr
 8000a7e:	f112 7200 	adds.w	r2, r2, #33554432	@ 0x2000000
 8000a82:	bf3c      	itt	cc
 8000a84:	f500 0000 	addcc.w	r0, r0, #8388608	@ 0x800000
 8000a88:	4770      	bxcc	lr
 8000a8a:	f000 4300 	and.w	r3, r0, #2147483648	@ 0x80000000
 8000a8e:	f043 40fe 	orr.w	r0, r3, #2130706432	@ 0x7f000000
 8000a92:	f440 0000 	orr.w	r0, r0, #8388608	@ 0x800000
 8000a96:	4770      	bx	lr
 8000a98:	ea7f 6222 	mvns.w	r2, r2, asr #24
 8000a9c:	bf16      	itet	ne
 8000a9e:	4608      	movne	r0, r1
 8000aa0:	ea7f 6323 	mvnseq.w	r3, r3, asr #24
 8000aa4:	4601      	movne	r1, r0
 8000aa6:	0242      	lsls	r2, r0, #9
 8000aa8:	bf06      	itte	eq
 8000aaa:	ea5f 2341 	movseq.w	r3, r1, lsl #9
 8000aae:	ea90 0f01 	teqeq	r0, r1
 8000ab2:	f440 0080 	orrne.w	r0, r0, #4194304	@ 0x400000
 8000ab6:	4770      	bx	lr

08000ab8 <__aeabi_ui2f>:
 8000ab8:	f04f 0300 	mov.w	r3, #0
 8000abc:	e004      	b.n	8000ac8 <__aeabi_i2f+0x8>
 8000abe:	bf00      	nop

08000ac0 <__aeabi_i2f>:
 8000ac0:	f010 4300 	ands.w	r3, r0, #2147483648	@ 0x80000000
 8000ac4:	bf48      	it	mi
 8000ac6:	4240      	negmi	r0, r0
 8000ac8:	ea5f 0c00 	movs.w	ip, r0
 8000acc:	bf08      	it	eq
 8000ace:	4770      	bxeq	lr
 8000ad0:	f043 4396 	orr.w	r3, r3, #1258291200	@ 0x4b000000
 8000ad4:	4601      	mov	r1, r0
 8000ad6:	f04f 0000 	mov.w	r0, #0
 8000ada:	e01c      	b.n	8000b16 <__aeabi_l2f+0x2a>

08000adc <__aeabi_ul2f>:
 8000adc:	ea50 0201 	orrs.w	r2, r0, r1
 8000ae0:	bf08      	it	eq
 8000ae2:	4770      	bxeq	lr
 8000ae4:	f04f 0300 	mov.w	r3, #0
 8000ae8:	e00a      	b.n	8000b00 <__aeabi_l2f+0x14>
 8000aea:	bf00      	nop

08000aec <__aeabi_l2f>:
 8000aec:	ea50 0201 	orrs.w	r2, r0, r1
 8000af0:	bf08      	it	eq
 8000af2:	4770      	bxeq	lr
 8000af4:	f011 4300 	ands.w	r3, r1, #2147483648	@ 0x80000000
 8000af8:	d502      	bpl.n	8000b00 <__aeabi_l2f+0x14>
 8000afa:	4240      	negs	r0, r0
 8000afc:	eb61 0141 	sbc.w	r1, r1, r1, lsl #1
 8000b00:	ea5f 0c01 	movs.w	ip, r1
 8000b04:	bf02      	ittt	eq
 8000b06:	4684      	moveq	ip, r0
 8000b08:	4601      	moveq	r1, r0
 8000b0a:	2000      	moveq	r0, #0
 8000b0c:	f043 43b6 	orr.w	r3, r3, #1526726656	@ 0x5b000000
 8000b10:	bf08      	it	eq
 8000b12:	f1a3 5380 	subeq.w	r3, r3, #268435456	@ 0x10000000
 8000b16:	f5a3 0300 	sub.w	r3, r3, #8388608	@ 0x800000
 8000b1a:	fabc f28c 	clz	r2, ip
 8000b1e:	3a08      	subs	r2, #8
 8000b20:	eba3 53c2 	sub.w	r3, r3, r2, lsl #23
 8000b24:	db10      	blt.n	8000b48 <__aeabi_l2f+0x5c>
 8000b26:	fa01 fc02 	lsl.w	ip, r1, r2
 8000b2a:	4463      	add	r3, ip
 8000b2c:	fa00 fc02 	lsl.w	ip, r0, r2
 8000b30:	f1c2 0220 	rsb	r2, r2, #32
 8000b34:	f1bc 4f00 	cmp.w	ip, #2147483648	@ 0x80000000
 8000b38:	fa20 f202 	lsr.w	r2, r0, r2
 8000b3c:	eb43 0002 	adc.w	r0, r3, r2
 8000b40:	bf08      	it	eq
 8000b42:	f020 0001 	biceq.w	r0, r0, #1
 8000b46:	4770      	bx	lr
 8000b48:	f102 0220 	add.w	r2, r2, #32
 8000b4c:	fa01 fc02 	lsl.w	ip, r1, r2
 8000b50:	f1c2 0220 	rsb	r2, r2, #32
 8000b54:	ea50 004c 	orrs.w	r0, r0, ip, lsl #1
 8000b58:	fa21 f202 	lsr.w	r2, r1, r2
 8000b5c:	eb43 0002 	adc.w	r0, r3, r2
 8000b60:	bf08      	it	eq
 8000b62:	ea20 70dc 	biceq.w	r0, r0, ip, lsr #31
 8000b66:	4770      	bx	lr

08000b68 <MX_ADC1_Init>:
ADC_HandleTypeDef hadc1;
ADC_HandleTypeDef hadc2;

/* ADC1 init function */
void MX_ADC1_Init(void)
{
 8000b68:	b580      	push	{r7, lr}
 8000b6a:	b084      	sub	sp, #16
 8000b6c:	af00      	add	r7, sp, #0

  /* USER CODE BEGIN ADC1_Init 0 */

  /* USER CODE END ADC1_Init 0 */

  ADC_ChannelConfTypeDef sConfig = {0};
 8000b6e:	1d3b      	adds	r3, r7, #4
 8000b70:	2200      	movs	r2, #0
 8000b72:	601a      	str	r2, [r3, #0]
 8000b74:	605a      	str	r2, [r3, #4]
 8000b76:	609a      	str	r2, [r3, #8]

  /* USER CODE END ADC1_Init 1 */

  /** Common config
  */
  hadc1.Instance = ADC1;
 8000b78:	4b18      	ldr	r3, [pc, #96]	@ (8000bdc <MX_ADC1_Init+0x74>)
 8000b7a:	4a19      	ldr	r2, [pc, #100]	@ (8000be0 <MX_ADC1_Init+0x78>)
 8000b7c:	601a      	str	r2, [r3, #0]
  hadc1.Init.ScanConvMode = ADC_SCAN_DISABLE;
 8000b7e:	4b17      	ldr	r3, [pc, #92]	@ (8000bdc <MX_ADC1_Init+0x74>)
 8000b80:	2200      	movs	r2, #0
 8000b82:	609a      	str	r2, [r3, #8]
  hadc1.Init.ContinuousConvMode = ENABLE;
 8000b84:	4b15      	ldr	r3, [pc, #84]	@ (8000bdc <MX_ADC1_Init+0x74>)
 8000b86:	2201      	movs	r2, #1
 8000b88:	731a      	strb	r2, [r3, #12]
  hadc1.Init.DiscontinuousConvMode = DISABLE;
 8000b8a:	4b14      	ldr	r3, [pc, #80]	@ (8000bdc <MX_ADC1_Init+0x74>)
 8000b8c:	2200      	movs	r2, #0
 8000b8e:	751a      	strb	r2, [r3, #20]
  hadc1.Init.ExternalTrigConv = ADC_SOFTWARE_START;
 8000b90:	4b12      	ldr	r3, [pc, #72]	@ (8000bdc <MX_ADC1_Init+0x74>)
 8000b92:	f44f 2260 	mov.w	r2, #917504	@ 0xe0000
 8000b96:	61da      	str	r2, [r3, #28]
  hadc1.Init.DataAlign = ADC_DATAALIGN_RIGHT;
 8000b98:	4b10      	ldr	r3, [pc, #64]	@ (8000bdc <MX_ADC1_Init+0x74>)
 8000b9a:	2200      	movs	r2, #0
 8000b9c:	605a      	str	r2, [r3, #4]
  hadc1.Init.NbrOfConversion = 1;
 8000b9e:	4b0f      	ldr	r3, [pc, #60]	@ (8000bdc <MX_ADC1_Init+0x74>)
 8000ba0:	2201      	movs	r2, #1
 8000ba2:	611a      	str	r2, [r3, #16]
  if (HAL_ADC_Init(&hadc1) != HAL_OK)
 8000ba4:	480d      	ldr	r0, [pc, #52]	@ (8000bdc <MX_ADC1_Init+0x74>)
 8000ba6:	f002 f9c5 	bl	8002f34 <HAL_ADC_Init>
 8000baa:	4603      	mov	r3, r0
 8000bac:	2b00      	cmp	r3, #0
 8000bae:	d001      	beq.n	8000bb4 <MX_ADC1_Init+0x4c>
  {
    Error_Handler();
 8000bb0:	f000 fff2 	bl	8001b98 <Error_Handler>
  }

  /** Configure Regular Channel
  */
  sConfig.Channel = ADC_CHANNEL_0;
 8000bb4:	2300      	movs	r3, #0
 8000bb6:	607b      	str	r3, [r7, #4]
  sConfig.Rank = ADC_REGULAR_RANK_1;
 8000bb8:	2301      	movs	r3, #1
 8000bba:	60bb      	str	r3, [r7, #8]
  sConfig.SamplingTime = ADC_SAMPLETIME_1CYCLE_5;
 8000bbc:	2300      	movs	r3, #0
 8000bbe:	60fb      	str	r3, [r7, #12]
  if (HAL_ADC_ConfigChannel(&hadc1, &sConfig) != HAL_OK)
 8000bc0:	1d3b      	adds	r3, r7, #4
 8000bc2:	4619      	mov	r1, r3
 8000bc4:	4805      	ldr	r0, [pc, #20]	@ (8000bdc <MX_ADC1_Init+0x74>)
 8000bc6:	f002 fc79 	bl	80034bc <HAL_ADC_ConfigChannel>
 8000bca:	4603      	mov	r3, r0
 8000bcc:	2b00      	cmp	r3, #0
 8000bce:	d001      	beq.n	8000bd4 <MX_ADC1_Init+0x6c>
  {
    Error_Handler();
 8000bd0:	f000 ffe2 	bl	8001b98 <Error_Handler>
  }
  /* USER CODE BEGIN ADC1_Init 2 */

  /* USER CODE END ADC1_Init 2 */

}
 8000bd4:	bf00      	nop
 8000bd6:	3710      	adds	r7, #16
 8000bd8:	46bd      	mov	sp, r7
 8000bda:	bd80      	pop	{r7, pc}
 8000bdc:	200006a8 	.word	0x200006a8
 8000be0:	40012400 	.word	0x40012400

08000be4 <MX_ADC2_Init>:
/* ADC2 init function */
void MX_ADC2_Init(void)
{
 8000be4:	b580      	push	{r7, lr}
 8000be6:	b084      	sub	sp, #16
 8000be8:	af00      	add	r7, sp, #0

  /* USER CODE BEGIN ADC2_Init 0 */

  /* USER CODE END ADC2_Init 0 */

  ADC_ChannelConfTypeDef sConfig = {0};
 8000bea:	1d3b      	adds	r3, r7, #4
 8000bec:	2200      	movs	r2, #0
 8000bee:	601a      	str	r2, [r3, #0]
 8000bf0:	605a      	str	r2, [r3, #4]
 8000bf2:	609a      	str	r2, [r3, #8]

  /* USER CODE END ADC2_Init 1 */

  /** Common config
  */
  hadc2.Instance = ADC2;
 8000bf4:	4b18      	ldr	r3, [pc, #96]	@ (8000c58 <MX_ADC2_Init+0x74>)
 8000bf6:	4a19      	ldr	r2, [pc, #100]	@ (8000c5c <MX_ADC2_Init+0x78>)
 8000bf8:	601a      	str	r2, [r3, #0]
  hadc2.Init.ScanConvMode = ADC_SCAN_DISABLE;
 8000bfa:	4b17      	ldr	r3, [pc, #92]	@ (8000c58 <MX_ADC2_Init+0x74>)
 8000bfc:	2200      	movs	r2, #0
 8000bfe:	609a      	str	r2, [r3, #8]
  hadc2.Init.ContinuousConvMode = DISABLE;
 8000c00:	4b15      	ldr	r3, [pc, #84]	@ (8000c58 <MX_ADC2_Init+0x74>)
 8000c02:	2200      	movs	r2, #0
 8000c04:	731a      	strb	r2, [r3, #12]
  hadc2.Init.DiscontinuousConvMode = DISABLE;
 8000c06:	4b14      	ldr	r3, [pc, #80]	@ (8000c58 <MX_ADC2_Init+0x74>)
 8000c08:	2200      	movs	r2, #0
 8000c0a:	751a      	strb	r2, [r3, #20]
  hadc2.Init.ExternalTrigConv = ADC_SOFTWARE_START;
 8000c0c:	4b12      	ldr	r3, [pc, #72]	@ (8000c58 <MX_ADC2_Init+0x74>)
 8000c0e:	f44f 2260 	mov.w	r2, #917504	@ 0xe0000
 8000c12:	61da      	str	r2, [r3, #28]
  hadc2.Init.DataAlign = ADC_DATAALIGN_RIGHT;
 8000c14:	4b10      	ldr	r3, [pc, #64]	@ (8000c58 <MX_ADC2_Init+0x74>)
 8000c16:	2200      	movs	r2, #0
 8000c18:	605a      	str	r2, [r3, #4]
  hadc2.Init.NbrOfConversion = 1;
 8000c1a:	4b0f      	ldr	r3, [pc, #60]	@ (8000c58 <MX_ADC2_Init+0x74>)
 8000c1c:	2201      	movs	r2, #1
 8000c1e:	611a      	str	r2, [r3, #16]
  if (HAL_ADC_Init(&hadc2) != HAL_OK)
 8000c20:	480d      	ldr	r0, [pc, #52]	@ (8000c58 <MX_ADC2_Init+0x74>)
 8000c22:	f002 f987 	bl	8002f34 <HAL_ADC_Init>
 8000c26:	4603      	mov	r3, r0
 8000c28:	2b00      	cmp	r3, #0
 8000c2a:	d001      	beq.n	8000c30 <MX_ADC2_Init+0x4c>
  {
    Error_Handler();
 8000c2c:	f000 ffb4 	bl	8001b98 <Error_Handler>
  }

  /** Configure Regular Channel
  */
  sConfig.Channel = ADC_CHANNEL_1;
 8000c30:	2301      	movs	r3, #1
 8000c32:	607b      	str	r3, [r7, #4]
  sConfig.Rank = ADC_REGULAR_RANK_1;
 8000c34:	2301      	movs	r3, #1
 8000c36:	60bb      	str	r3, [r7, #8]
  sConfig.SamplingTime = ADC_SAMPLETIME_1CYCLE_5;
 8000c38:	2300      	movs	r3, #0
 8000c3a:	60fb      	str	r3, [r7, #12]
  if (HAL_ADC_ConfigChannel(&hadc2, &sConfig) != HAL_OK)
 8000c3c:	1d3b      	adds	r3, r7, #4
 8000c3e:	4619      	mov	r1, r3
 8000c40:	4805      	ldr	r0, [pc, #20]	@ (8000c58 <MX_ADC2_Init+0x74>)
 8000c42:	f002 fc3b 	bl	80034bc <HAL_ADC_ConfigChannel>
 8000c46:	4603      	mov	r3, r0
 8000c48:	2b00      	cmp	r3, #0
 8000c4a:	d001      	beq.n	8000c50 <MX_ADC2_Init+0x6c>
  {
    Error_Handler();
 8000c4c:	f000 ffa4 	bl	8001b98 <Error_Handler>
  }
  /* USER CODE BEGIN ADC2_Init 2 */

  /* USER CODE END ADC2_Init 2 */

}
 8000c50:	bf00      	nop
 8000c52:	3710      	adds	r7, #16
 8000c54:	46bd      	mov	sp, r7
 8000c56:	bd80      	pop	{r7, pc}
 8000c58:	200006d8 	.word	0x200006d8
 8000c5c:	40012800 	.word	0x40012800

08000c60 <HAL_ADC_MspInit>:

void HAL_ADC_MspInit(ADC_HandleTypeDef* adcHandle)
{
 8000c60:	b580      	push	{r7, lr}
 8000c62:	b08a      	sub	sp, #40	@ 0x28
 8000c64:	af00      	add	r7, sp, #0
 8000c66:	6078      	str	r0, [r7, #4]

  GPIO_InitTypeDef GPIO_InitStruct = {0};
 8000c68:	f107 0318 	add.w	r3, r7, #24
 8000c6c:	2200      	movs	r2, #0
 8000c6e:	601a      	str	r2, [r3, #0]
 8000c70:	605a      	str	r2, [r3, #4]
 8000c72:	609a      	str	r2, [r3, #8]
 8000c74:	60da      	str	r2, [r3, #12]
  if(adcHandle->Instance==ADC1)
 8000c76:	687b      	ldr	r3, [r7, #4]
 8000c78:	681b      	ldr	r3, [r3, #0]
 8000c7a:	4a28      	ldr	r2, [pc, #160]	@ (8000d1c <HAL_ADC_MspInit+0xbc>)
 8000c7c:	4293      	cmp	r3, r2
 8000c7e:	d122      	bne.n	8000cc6 <HAL_ADC_MspInit+0x66>
  {
  /* USER CODE BEGIN ADC1_MspInit 0 */

  /* USER CODE END ADC1_MspInit 0 */
    /* ADC1 clock enable */
    __HAL_RCC_ADC1_CLK_ENABLE();
 8000c80:	4b27      	ldr	r3, [pc, #156]	@ (8000d20 <HAL_ADC_MspInit+0xc0>)
 8000c82:	699b      	ldr	r3, [r3, #24]
 8000c84:	4a26      	ldr	r2, [pc, #152]	@ (8000d20 <HAL_ADC_MspInit+0xc0>)
 8000c86:	f443 7300 	orr.w	r3, r3, #512	@ 0x200
 8000c8a:	6193      	str	r3, [r2, #24]
 8000c8c:	4b24      	ldr	r3, [pc, #144]	@ (8000d20 <HAL_ADC_MspInit+0xc0>)
 8000c8e:	699b      	ldr	r3, [r3, #24]
 8000c90:	f403 7300 	and.w	r3, r3, #512	@ 0x200
 8000c94:	617b      	str	r3, [r7, #20]
 8000c96:	697b      	ldr	r3, [r7, #20]

    __HAL_RCC_GPIOA_CLK_ENABLE();
 8000c98:	4b21      	ldr	r3, [pc, #132]	@ (8000d20 <HAL_ADC_MspInit+0xc0>)
 8000c9a:	699b      	ldr	r3, [r3, #24]
 8000c9c:	4a20      	ldr	r2, [pc, #128]	@ (8000d20 <HAL_ADC_MspInit+0xc0>)
 8000c9e:	f043 0304 	orr.w	r3, r3, #4
 8000ca2:	6193      	str	r3, [r2, #24]
 8000ca4:	4b1e      	ldr	r3, [pc, #120]	@ (8000d20 <HAL_ADC_MspInit+0xc0>)
 8000ca6:	699b      	ldr	r3, [r3, #24]
 8000ca8:	f003 0304 	and.w	r3, r3, #4
 8000cac:	613b      	str	r3, [r7, #16]
 8000cae:	693b      	ldr	r3, [r7, #16]
    /**ADC1 GPIO Configuration
    PA0-WKUP     ------> ADC1_IN0
    */
    GPIO_InitStruct.Pin = KEY_Pin;
 8000cb0:	2301      	movs	r3, #1
 8000cb2:	61bb      	str	r3, [r7, #24]
    GPIO_InitStruct.Mode = GPIO_MODE_ANALOG;
 8000cb4:	2303      	movs	r3, #3
 8000cb6:	61fb      	str	r3, [r7, #28]
    HAL_GPIO_Init(KEY_GPIO_Port, &GPIO_InitStruct);
 8000cb8:	f107 0318 	add.w	r3, r7, #24
 8000cbc:	4619      	mov	r1, r3
 8000cbe:	4819      	ldr	r0, [pc, #100]	@ (8000d24 <HAL_ADC_MspInit+0xc4>)
 8000cc0:	f003 f90c 	bl	8003edc <HAL_GPIO_Init>

  /* USER CODE BEGIN ADC2_MspInit 1 */

  /* USER CODE END ADC2_MspInit 1 */
  }
}
 8000cc4:	e026      	b.n	8000d14 <HAL_ADC_MspInit+0xb4>
  else if(adcHandle->Instance==ADC2)
 8000cc6:	687b      	ldr	r3, [r7, #4]
 8000cc8:	681b      	ldr	r3, [r3, #0]
 8000cca:	4a17      	ldr	r2, [pc, #92]	@ (8000d28 <HAL_ADC_MspInit+0xc8>)
 8000ccc:	4293      	cmp	r3, r2
 8000cce:	d121      	bne.n	8000d14 <HAL_ADC_MspInit+0xb4>
    __HAL_RCC_ADC2_CLK_ENABLE();
 8000cd0:	4b13      	ldr	r3, [pc, #76]	@ (8000d20 <HAL_ADC_MspInit+0xc0>)
 8000cd2:	699b      	ldr	r3, [r3, #24]
 8000cd4:	4a12      	ldr	r2, [pc, #72]	@ (8000d20 <HAL_ADC_MspInit+0xc0>)
 8000cd6:	f443 6380 	orr.w	r3, r3, #1024	@ 0x400
 8000cda:	6193      	str	r3, [r2, #24]
 8000cdc:	4b10      	ldr	r3, [pc, #64]	@ (8000d20 <HAL_ADC_MspInit+0xc0>)
 8000cde:	699b      	ldr	r3, [r3, #24]
 8000ce0:	f403 6380 	and.w	r3, r3, #1024	@ 0x400
 8000ce4:	60fb      	str	r3, [r7, #12]
 8000ce6:	68fb      	ldr	r3, [r7, #12]
    __HAL_RCC_GPIOA_CLK_ENABLE();
 8000ce8:	4b0d      	ldr	r3, [pc, #52]	@ (8000d20 <HAL_ADC_MspInit+0xc0>)
 8000cea:	699b      	ldr	r3, [r3, #24]
 8000cec:	4a0c      	ldr	r2, [pc, #48]	@ (8000d20 <HAL_ADC_MspInit+0xc0>)
 8000cee:	f043 0304 	orr.w	r3, r3, #4
 8000cf2:	6193      	str	r3, [r2, #24]
 8000cf4:	4b0a      	ldr	r3, [pc, #40]	@ (8000d20 <HAL_ADC_MspInit+0xc0>)
 8000cf6:	699b      	ldr	r3, [r3, #24]
 8000cf8:	f003 0304 	and.w	r3, r3, #4
 8000cfc:	60bb      	str	r3, [r7, #8]
 8000cfe:	68bb      	ldr	r3, [r7, #8]
    GPIO_InitStruct.Pin = VBAT_PACK_ADC_Pin;
 8000d00:	2302      	movs	r3, #2
 8000d02:	61bb      	str	r3, [r7, #24]
    GPIO_InitStruct.Mode = GPIO_MODE_ANALOG;
 8000d04:	2303      	movs	r3, #3
 8000d06:	61fb      	str	r3, [r7, #28]
    HAL_GPIO_Init(VBAT_PACK_ADC_GPIO_Port, &GPIO_InitStruct);
 8000d08:	f107 0318 	add.w	r3, r7, #24
 8000d0c:	4619      	mov	r1, r3
 8000d0e:	4805      	ldr	r0, [pc, #20]	@ (8000d24 <HAL_ADC_MspInit+0xc4>)
 8000d10:	f003 f8e4 	bl	8003edc <HAL_GPIO_Init>
}
 8000d14:	bf00      	nop
 8000d16:	3728      	adds	r7, #40	@ 0x28
 8000d18:	46bd      	mov	sp, r7
 8000d1a:	bd80      	pop	{r7, pc}
 8000d1c:	40012400 	.word	0x40012400
 8000d20:	40021000 	.word	0x40021000
 8000d24:	40010800 	.word	0x40010800
 8000d28:	40012800 	.word	0x40012800

08000d2c <BSP_MPU6050_ReadReg>:
extern I2C_HandleTypeDef hi2c2;

IMU_SensorData_Raw_Structer IMU_SensorData_Raw;

uint8_t BSP_MPU6050_ReadReg(uint8_t address)
{
 8000d2c:	b580      	push	{r7, lr}
 8000d2e:	b088      	sub	sp, #32
 8000d30:	af04      	add	r7, sp, #16
 8000d32:	4603      	mov	r3, r0
 8000d34:	71fb      	strb	r3, [r7, #7]
	uint8_t Value = 0;
 8000d36:	2300      	movs	r3, #0
 8000d38:	73fb      	strb	r3, [r7, #15]
	HAL_I2C_Mem_Read(&hi2c2,IMU_ADDRESS_READ,address,I2C_MEMADD_SIZE_8BIT,&Value,1,0x10);
 8000d3a:	79fb      	ldrb	r3, [r7, #7]
 8000d3c:	b29a      	uxth	r2, r3
 8000d3e:	2310      	movs	r3, #16
 8000d40:	9302      	str	r3, [sp, #8]
 8000d42:	2301      	movs	r3, #1
 8000d44:	9301      	str	r3, [sp, #4]
 8000d46:	f107 030f 	add.w	r3, r7, #15
 8000d4a:	9300      	str	r3, [sp, #0]
 8000d4c:	2301      	movs	r3, #1
 8000d4e:	21d1      	movs	r1, #209	@ 0xd1
 8000d50:	4803      	ldr	r0, [pc, #12]	@ (8000d60 <BSP_MPU6050_ReadReg+0x34>)
 8000d52:	f003 fc9d 	bl	8004690 <HAL_I2C_Mem_Read>
	return Value;
 8000d56:	7bfb      	ldrb	r3, [r7, #15]
}
 8000d58:	4618      	mov	r0, r3
 8000d5a:	3710      	adds	r7, #16
 8000d5c:	46bd      	mov	sp, r7
 8000d5e:	bd80      	pop	{r7, pc}
 8000d60:	2000085c 	.word	0x2000085c

08000d64 <BSP_MPU6050_ReadMultiReg>:

void BSP_MPU6050_ReadMultiReg(uint8_t address,uint8_t length,uint8_t *data)
{
 8000d64:	b580      	push	{r7, lr}
 8000d66:	b086      	sub	sp, #24
 8000d68:	af04      	add	r7, sp, #16
 8000d6a:	4603      	mov	r3, r0
 8000d6c:	603a      	str	r2, [r7, #0]
 8000d6e:	71fb      	strb	r3, [r7, #7]
 8000d70:	460b      	mov	r3, r1
 8000d72:	71bb      	strb	r3, [r7, #6]
	HAL_I2C_Mem_Read(&hi2c2,IMU_ADDRESS_READ,address,I2C_MEMADD_SIZE_8BIT,data,length,0x10);
 8000d74:	79fb      	ldrb	r3, [r7, #7]
 8000d76:	b29a      	uxth	r2, r3
 8000d78:	79bb      	ldrb	r3, [r7, #6]
 8000d7a:	b29b      	uxth	r3, r3
 8000d7c:	2110      	movs	r1, #16
 8000d7e:	9102      	str	r1, [sp, #8]
 8000d80:	9301      	str	r3, [sp, #4]
 8000d82:	683b      	ldr	r3, [r7, #0]
 8000d84:	9300      	str	r3, [sp, #0]
 8000d86:	2301      	movs	r3, #1
 8000d88:	21d1      	movs	r1, #209	@ 0xd1
 8000d8a:	4803      	ldr	r0, [pc, #12]	@ (8000d98 <BSP_MPU6050_ReadMultiReg+0x34>)
 8000d8c:	f003 fc80 	bl	8004690 <HAL_I2C_Mem_Read>
}
 8000d90:	bf00      	nop
 8000d92:	3708      	adds	r7, #8
 8000d94:	46bd      	mov	sp, r7
 8000d96:	bd80      	pop	{r7, pc}
 8000d98:	2000085c 	.word	0x2000085c

08000d9c <BSP_MPU6050_WriteReg>:

void BSP_MPU6050_WriteReg(uint8_t address,uint8_t data)
{
 8000d9c:	b580      	push	{r7, lr}
 8000d9e:	b086      	sub	sp, #24
 8000da0:	af04      	add	r7, sp, #16
 8000da2:	4603      	mov	r3, r0
 8000da4:	460a      	mov	r2, r1
 8000da6:	71fb      	strb	r3, [r7, #7]
 8000da8:	4613      	mov	r3, r2
 8000daa:	71bb      	strb	r3, [r7, #6]
	HAL_I2C_Mem_Write(&hi2c2,IMU_ADDRESS_WRITE,address,I2C_MEMADD_SIZE_8BIT,&data,1,0x10);
 8000dac:	79fb      	ldrb	r3, [r7, #7]
 8000dae:	b29a      	uxth	r2, r3
 8000db0:	2310      	movs	r3, #16
 8000db2:	9302      	str	r3, [sp, #8]
 8000db4:	2301      	movs	r3, #1
 8000db6:	9301      	str	r3, [sp, #4]
 8000db8:	1dbb      	adds	r3, r7, #6
 8000dba:	9300      	str	r3, [sp, #0]
 8000dbc:	2301      	movs	r3, #1
 8000dbe:	21d0      	movs	r1, #208	@ 0xd0
 8000dc0:	4804      	ldr	r0, [pc, #16]	@ (8000dd4 <BSP_MPU6050_WriteReg+0x38>)
 8000dc2:	f003 fb6b 	bl	800449c <HAL_I2C_Mem_Write>
	HAL_Delay(100);
 8000dc6:	2064      	movs	r0, #100	@ 0x64
 8000dc8:	f002 f890 	bl	8002eec <HAL_Delay>
}
 8000dcc:	bf00      	nop
 8000dce:	3708      	adds	r7, #8
 8000dd0:	46bd      	mov	sp, r7
 8000dd2:	bd80      	pop	{r7, pc}
 8000dd4:	2000085c 	.word	0x2000085c

08000dd8 <BSP_MPU6050_Read_WHOAMI>:
	HAL_I2C_Mem_Write(&hi2c2,IMU_ADDRESS_WRITE,address,I2C_MEMADD_SIZE_8BIT,data,length,0x10);
	HAL_Delay(100);
}

uint8_t BSP_MPU6050_Read_WHOAMI(void)
{
 8000dd8:	b580      	push	{r7, lr}
 8000dda:	af00      	add	r7, sp, #0
	return BSP_MPU6050_ReadReg(MPUREG_WHOAMI);
 8000ddc:	2075      	movs	r0, #117	@ 0x75
 8000dde:	f7ff ffa5 	bl	8000d2c <BSP_MPU6050_ReadReg>
 8000de2:	4603      	mov	r3, r0
}
 8000de4:	4618      	mov	r0, r3
 8000de6:	bd80      	pop	{r7, pc}

08000de8 <BSP_MPU6050_Init>:

uint8_t BSP_MPU6050_Init(void)
{
 8000de8:	b580      	push	{r7, lr}
 8000dea:	b082      	sub	sp, #8
 8000dec:	af00      	add	r7, sp, #0
	uint8_t tries;

	for(tries = 0; tries<5; tries++)
 8000dee:	2300      	movs	r3, #0
 8000df0:	71fb      	strb	r3, [r7, #7]
 8000df2:	e010      	b.n	8000e16 <BSP_MPU6050_Init+0x2e>
	{
		BSP_MPU6050_WriteReg(MPUREG_PWR_MGMT_1,BIT_PWR_MGMT_1_DEVICE_RESET);//复位MPU6050
 8000df4:	2180      	movs	r1, #128	@ 0x80
 8000df6:	206b      	movs	r0, #107	@ 0x6b
 8000df8:	f7ff ffd0 	bl	8000d9c <BSP_MPU6050_WriteReg>
		BSP_MPU6050_WriteReg(MPUREG_PWR_MGMT_1,BIT_PWR_MGMT_1_CLK_ZGYRO);//设置时钟
 8000dfc:	2103      	movs	r1, #3
 8000dfe:	206b      	movs	r0, #107	@ 0x6b
 8000e00:	f7ff ffcc 	bl	8000d9c <BSP_MPU6050_WriteReg>
		if(BSP_MPU6050_ReadReg(MPUREG_PWR_MGMT_1) == BIT_PWR_MGMT_1_CLK_ZGYRO)//判断是否写入，写入则跳出循环
 8000e04:	206b      	movs	r0, #107	@ 0x6b
 8000e06:	f7ff ff91 	bl	8000d2c <BSP_MPU6050_ReadReg>
 8000e0a:	4603      	mov	r3, r0
 8000e0c:	2b03      	cmp	r3, #3
 8000e0e:	d006      	beq.n	8000e1e <BSP_MPU6050_Init+0x36>
	for(tries = 0; tries<5; tries++)
 8000e10:	79fb      	ldrb	r3, [r7, #7]
 8000e12:	3301      	adds	r3, #1
 8000e14:	71fb      	strb	r3, [r7, #7]
 8000e16:	79fb      	ldrb	r3, [r7, #7]
 8000e18:	2b04      	cmp	r3, #4
 8000e1a:	d9eb      	bls.n	8000df4 <BSP_MPU6050_Init+0xc>
 8000e1c:	e000      	b.n	8000e20 <BSP_MPU6050_Init+0x38>
			break;
 8000e1e:	bf00      	nop
	}
	if(tries == 5)
 8000e20:	79fb      	ldrb	r3, [r7, #7]
 8000e22:	2b05      	cmp	r3, #5
 8000e24:	d101      	bne.n	8000e2a <BSP_MPU6050_Init+0x42>
		return 0;
 8000e26:	2300      	movs	r3, #0
 8000e28:	e023      	b.n	8000e72 <BSP_MPU6050_Init+0x8a>

	BSP_MPU6050_WriteReg(MPUREG_PWR_MGMT_2,0x00);//禁止休眠
 8000e2a:	2100      	movs	r1, #0
 8000e2c:	206c      	movs	r0, #108	@ 0x6c
 8000e2e:	f7ff ffb5 	bl	8000d9c <BSP_MPU6050_WriteReg>
	BSP_MPU6050_WriteReg(MPUREG_USER_CTRL,0x00);//I2C主模式关闭
 8000e32:	2100      	movs	r1, #0
 8000e34:	206a      	movs	r0, #106	@ 0x6a
 8000e36:	f7ff ffb1 	bl	8000d9c <BSP_MPU6050_WriteReg>
	BSP_MPU6050_WriteReg(MPUREG_CONFIG,BITS_DLPF_CFG_20HZ);//设置低通滤波器
 8000e3a:	2104      	movs	r1, #4
 8000e3c:	201a      	movs	r0, #26
 8000e3e:	f7ff ffad 	bl	8000d9c <BSP_MPU6050_WriteReg>
	BSP_MPU6050_WriteReg(MPUREG_SMPLRT_DIV,MPUREG_SMPLRT_200HZ);//设置采样频率
 8000e42:	2104      	movs	r1, #4
 8000e44:	2019      	movs	r0, #25
 8000e46:	f7ff ffa9 	bl	8000d9c <BSP_MPU6050_WriteReg>
	BSP_MPU6050_WriteReg(MPUREG_GYRO_CONFIG,BITS_GYRO_FS_2000DPS);//设置陀螺仪量程
 8000e4a:	2118      	movs	r1, #24
 8000e4c:	201b      	movs	r0, #27
 8000e4e:	f7ff ffa5 	bl	8000d9c <BSP_MPU6050_WriteReg>
	BSP_MPU6050_WriteReg(MPUREG_ACCEL_CONFIG,BITS_ACCEL_FS_8G);//设置加速度计量程
 8000e52:	2110      	movs	r1, #16
 8000e54:	201c      	movs	r0, #28
 8000e56:	f7ff ffa1 	bl	8000d9c <BSP_MPU6050_WriteReg>
	BSP_MPU6050_WriteReg(MPUREG_INT_ENABLE,0x00);//禁止中断
 8000e5a:	2100      	movs	r1, #0
 8000e5c:	2038      	movs	r0, #56	@ 0x38
 8000e5e:	f7ff ff9d 	bl	8000d9c <BSP_MPU6050_WriteReg>

	if(BSP_MPU6050_Read_WHOAMI() == IMU_WHOAMI)
 8000e62:	f7ff ffb9 	bl	8000dd8 <BSP_MPU6050_Read_WHOAMI>
 8000e66:	4603      	mov	r3, r0
 8000e68:	2b68      	cmp	r3, #104	@ 0x68
 8000e6a:	d101      	bne.n	8000e70 <BSP_MPU6050_Init+0x88>
		return 1;
 8000e6c:	2301      	movs	r3, #1
 8000e6e:	e000      	b.n	8000e72 <BSP_MPU6050_Init+0x8a>
	else
		return 0;
 8000e70:	2300      	movs	r3, #0
}
 8000e72:	4618      	mov	r0, r3
 8000e74:	3708      	adds	r7, #8
 8000e76:	46bd      	mov	sp, r7
 8000e78:	bd80      	pop	{r7, pc}
	...

08000e7c <BSP_MPU6050_UpdateSensors>:

void BSP_MPU6050_UpdateSensors(void)
{
 8000e7c:	b580      	push	{r7, lr}
 8000e7e:	b084      	sub	sp, #16
 8000e80:	af00      	add	r7, sp, #0
	uint8_t buffer[14];
	BSP_MPU6050_ReadMultiReg(MPUREG_ACCEL_XOUT_H,14,buffer);
 8000e82:	463b      	mov	r3, r7
 8000e84:	461a      	mov	r2, r3
 8000e86:	210e      	movs	r1, #14
 8000e88:	203b      	movs	r0, #59	@ 0x3b
 8000e8a:	f7ff ff6b 	bl	8000d64 <BSP_MPU6050_ReadMultiReg>
	IMU_SensorData_Raw.ACC_X = (buffer[0]<<8)|buffer[1];
 8000e8e:	783b      	ldrb	r3, [r7, #0]
 8000e90:	021b      	lsls	r3, r3, #8
 8000e92:	b21a      	sxth	r2, r3
 8000e94:	787b      	ldrb	r3, [r7, #1]
 8000e96:	b21b      	sxth	r3, r3
 8000e98:	4313      	orrs	r3, r2
 8000e9a:	b21a      	sxth	r2, r3
 8000e9c:	4b1d      	ldr	r3, [pc, #116]	@ (8000f14 <BSP_MPU6050_UpdateSensors+0x98>)
 8000e9e:	801a      	strh	r2, [r3, #0]
	IMU_SensorData_Raw.ACC_Y = (buffer[2]<<8)|buffer[3];
 8000ea0:	78bb      	ldrb	r3, [r7, #2]
 8000ea2:	021b      	lsls	r3, r3, #8
 8000ea4:	b21a      	sxth	r2, r3
 8000ea6:	78fb      	ldrb	r3, [r7, #3]
 8000ea8:	b21b      	sxth	r3, r3
 8000eaa:	4313      	orrs	r3, r2
 8000eac:	b21a      	sxth	r2, r3
 8000eae:	4b19      	ldr	r3, [pc, #100]	@ (8000f14 <BSP_MPU6050_UpdateSensors+0x98>)
 8000eb0:	805a      	strh	r2, [r3, #2]
	IMU_SensorData_Raw.ACC_Z = (buffer[4]<<8)|buffer[5];
 8000eb2:	793b      	ldrb	r3, [r7, #4]
 8000eb4:	021b      	lsls	r3, r3, #8
 8000eb6:	b21a      	sxth	r2, r3
 8000eb8:	797b      	ldrb	r3, [r7, #5]
 8000eba:	b21b      	sxth	r3, r3
 8000ebc:	4313      	orrs	r3, r2
 8000ebe:	b21a      	sxth	r2, r3
 8000ec0:	4b14      	ldr	r3, [pc, #80]	@ (8000f14 <BSP_MPU6050_UpdateSensors+0x98>)
 8000ec2:	809a      	strh	r2, [r3, #4]
	IMU_SensorData_Raw.Temp = (buffer[6]<<8)|buffer[7];
 8000ec4:	79bb      	ldrb	r3, [r7, #6]
 8000ec6:	021b      	lsls	r3, r3, #8
 8000ec8:	b21a      	sxth	r2, r3
 8000eca:	79fb      	ldrb	r3, [r7, #7]
 8000ecc:	b21b      	sxth	r3, r3
 8000ece:	4313      	orrs	r3, r2
 8000ed0:	b21a      	sxth	r2, r3
 8000ed2:	4b10      	ldr	r3, [pc, #64]	@ (8000f14 <BSP_MPU6050_UpdateSensors+0x98>)
 8000ed4:	819a      	strh	r2, [r3, #12]
	IMU_SensorData_Raw.GYR_X = (buffer[8]<<8)|buffer[9];
 8000ed6:	7a3b      	ldrb	r3, [r7, #8]
 8000ed8:	021b      	lsls	r3, r3, #8
 8000eda:	b21a      	sxth	r2, r3
 8000edc:	7a7b      	ldrb	r3, [r7, #9]
 8000ede:	b21b      	sxth	r3, r3
 8000ee0:	4313      	orrs	r3, r2
 8000ee2:	b21a      	sxth	r2, r3
 8000ee4:	4b0b      	ldr	r3, [pc, #44]	@ (8000f14 <BSP_MPU6050_UpdateSensors+0x98>)
 8000ee6:	80da      	strh	r2, [r3, #6]
	IMU_SensorData_Raw.GYR_Y = (buffer[10]<<8)|buffer[11];
 8000ee8:	7abb      	ldrb	r3, [r7, #10]
 8000eea:	021b      	lsls	r3, r3, #8
 8000eec:	b21a      	sxth	r2, r3
 8000eee:	7afb      	ldrb	r3, [r7, #11]
 8000ef0:	b21b      	sxth	r3, r3
 8000ef2:	4313      	orrs	r3, r2
 8000ef4:	b21a      	sxth	r2, r3
 8000ef6:	4b07      	ldr	r3, [pc, #28]	@ (8000f14 <BSP_MPU6050_UpdateSensors+0x98>)
 8000ef8:	811a      	strh	r2, [r3, #8]
	IMU_SensorData_Raw.GYR_Z = (buffer[12]<<8)|buffer[13];
 8000efa:	7b3b      	ldrb	r3, [r7, #12]
 8000efc:	021b      	lsls	r3, r3, #8
 8000efe:	b21a      	sxth	r2, r3
 8000f00:	7b7b      	ldrb	r3, [r7, #13]
 8000f02:	b21b      	sxth	r3, r3
 8000f04:	4313      	orrs	r3, r2
 8000f06:	b21a      	sxth	r2, r3
 8000f08:	4b02      	ldr	r3, [pc, #8]	@ (8000f14 <BSP_MPU6050_UpdateSensors+0x98>)
 8000f0a:	815a      	strh	r2, [r3, #10]


}
 8000f0c:	bf00      	nop
 8000f0e:	3710      	adds	r7, #16
 8000f10:	46bd      	mov	sp, r7
 8000f12:	bd80      	pop	{r7, pc}
 8000f14:	20000708 	.word	0x20000708

08000f18 <MX_DMA_Init>:

/**
  * Enable DMA controller clock
  */
void MX_DMA_Init(void)
{
 8000f18:	b580      	push	{r7, lr}
 8000f1a:	b082      	sub	sp, #8
 8000f1c:	af00      	add	r7, sp, #0

  /* DMA controller clock enable */
  __HAL_RCC_DMA1_CLK_ENABLE();
 8000f1e:	4b0c      	ldr	r3, [pc, #48]	@ (8000f50 <MX_DMA_Init+0x38>)
 8000f20:	695b      	ldr	r3, [r3, #20]
 8000f22:	4a0b      	ldr	r2, [pc, #44]	@ (8000f50 <MX_DMA_Init+0x38>)
 8000f24:	f043 0301 	orr.w	r3, r3, #1
 8000f28:	6153      	str	r3, [r2, #20]
 8000f2a:	4b09      	ldr	r3, [pc, #36]	@ (8000f50 <MX_DMA_Init+0x38>)
 8000f2c:	695b      	ldr	r3, [r3, #20]
 8000f2e:	f003 0301 	and.w	r3, r3, #1
 8000f32:	607b      	str	r3, [r7, #4]
 8000f34:	687b      	ldr	r3, [r7, #4]

  /* DMA interrupt init */
  /* DMA1_Channel3_IRQn interrupt configuration */
  HAL_NVIC_SetPriority(DMA1_Channel3_IRQn, 5, 0);
 8000f36:	2200      	movs	r2, #0
 8000f38:	2105      	movs	r1, #5
 8000f3a:	200d      	movs	r0, #13
 8000f3c:	f002 fdb5 	bl	8003aaa <HAL_NVIC_SetPriority>
  HAL_NVIC_EnableIRQ(DMA1_Channel3_IRQn);
 8000f40:	200d      	movs	r0, #13
 8000f42:	f002 fdce 	bl	8003ae2 <HAL_NVIC_EnableIRQ>

}
 8000f46:	bf00      	nop
 8000f48:	3708      	adds	r7, #8
 8000f4a:	46bd      	mov	sp, r7
 8000f4c:	bd80      	pop	{r7, pc}
 8000f4e:	bf00      	nop
 8000f50:	40021000 	.word	0x40021000

08000f54 <MX_FREERTOS_Init>:
/**
 * @brief  FreeRTOS initialization
 * @param  None
 * @retval None
 */
void MX_FREERTOS_Init(void) {
 8000f54:	b580      	push	{r7, lr}
 8000f56:	af00      	add	r7, sp, #0
	/* USER CODE BEGIN Init */
	HAL_UART_Transmit(&huart2, "SD_disk_initialize...\r\n", 23, 0x0100);
 8000f58:	f44f 7380 	mov.w	r3, #256	@ 0x100
 8000f5c:	2217      	movs	r2, #23
 8000f5e:	490f      	ldr	r1, [pc, #60]	@ (8000f9c <MX_FREERTOS_Init+0x48>)
 8000f60:	480f      	ldr	r0, [pc, #60]	@ (8000fa0 <MX_FREERTOS_Init+0x4c>)
 8000f62:	f006 fc85 	bl	8007870 <HAL_UART_Transmit>
	/* add queues, ... */
	/* USER CODE END RTOS_QUEUES */

	/* Create the thread(s) */
	/* creation of defaultTask */
	defaultTaskHandle = osThreadNew(StartDefaultTask, NULL,
 8000f66:	4a0f      	ldr	r2, [pc, #60]	@ (8000fa4 <MX_FREERTOS_Init+0x50>)
 8000f68:	2100      	movs	r1, #0
 8000f6a:	480f      	ldr	r0, [pc, #60]	@ (8000fa8 <MX_FREERTOS_Init+0x54>)
 8000f6c:	f007 fc52 	bl	8008814 <osThreadNew>
 8000f70:	4603      	mov	r3, r0
 8000f72:	4a0e      	ldr	r2, [pc, #56]	@ (8000fac <MX_FREERTOS_Init+0x58>)
 8000f74:	6013      	str	r3, [r2, #0]
			&defaultTask_attributes);

	/* creation of myTask02 */
	myTask02Handle = osThreadNew(StartTask02, NULL, &myTask02_attributes);
 8000f76:	4a0e      	ldr	r2, [pc, #56]	@ (8000fb0 <MX_FREERTOS_Init+0x5c>)
 8000f78:	2100      	movs	r1, #0
 8000f7a:	480e      	ldr	r0, [pc, #56]	@ (8000fb4 <MX_FREERTOS_Init+0x60>)
 8000f7c:	f007 fc4a 	bl	8008814 <osThreadNew>
 8000f80:	4603      	mov	r3, r0
 8000f82:	4a0d      	ldr	r2, [pc, #52]	@ (8000fb8 <MX_FREERTOS_Init+0x64>)
 8000f84:	6013      	str	r3, [r2, #0]

	/* creation of myTask03 */
	myTask03Handle = osThreadNew(StartTask03, NULL, &myTask03_attributes);
 8000f86:	4a0d      	ldr	r2, [pc, #52]	@ (8000fbc <MX_FREERTOS_Init+0x68>)
 8000f88:	2100      	movs	r1, #0
 8000f8a:	480d      	ldr	r0, [pc, #52]	@ (8000fc0 <MX_FREERTOS_Init+0x6c>)
 8000f8c:	f007 fc42 	bl	8008814 <osThreadNew>
 8000f90:	4603      	mov	r3, r0
 8000f92:	4a0c      	ldr	r2, [pc, #48]	@ (8000fc4 <MX_FREERTOS_Init+0x70>)
 8000f94:	6013      	str	r3, [r2, #0]

	/* USER CODE BEGIN RTOS_EVENTS */
	/* add events, ... */
	/* USER CODE END RTOS_EVENTS */

}
 8000f96:	bf00      	nop
 8000f98:	bd80      	pop	{r7, pc}
 8000f9a:	bf00      	nop
 8000f9c:	0800bc2c 	.word	0x0800bc2c
 8000fa0:	20001430 	.word	0x20001430
 8000fa4:	0800cb58 	.word	0x0800cb58
 8000fa8:	08000fc9 	.word	0x08000fc9
 8000fac:	200007fc 	.word	0x200007fc
 8000fb0:	0800cb7c 	.word	0x0800cb7c
 8000fb4:	08001331 	.word	0x08001331
 8000fb8:	20000800 	.word	0x20000800
 8000fbc:	0800cba0 	.word	0x0800cba0
 8000fc0:	08001429 	.word	0x08001429
 8000fc4:	20000804 	.word	0x20000804

08000fc8 <StartDefaultTask>:
 * @brief  Function implementing the defaultTask thread.
 * @param  argument: Not used
 * @retval None
 */
/* USER CODE END Header_StartDefaultTask */
void StartDefaultTask(void *argument) {
 8000fc8:	b580      	push	{r7, lr}
 8000fca:	b08a      	sub	sp, #40	@ 0x28
 8000fcc:	af06      	add	r7, sp, #24
 8000fce:	6078      	str	r0, [r7, #4]
	/* USER CODE BEGIN StartDefaultTask */
//	HAL_ADC_Start_DMA(&hadc1,(uint32_t *)ADC_Value,2);	 //启动ADC转换
	for (uint8_t i = 0; i < 24; i++) {
 8000fd0:	2300      	movs	r3, #0
 8000fd2:	73fb      	strb	r3, [r7, #15]
 8000fd4:	e00a      	b.n	8000fec <StartDefaultTask+0x24>
		B[i] = Rect[i]; //三维坐标数组赋值
 8000fd6:	7bfa      	ldrb	r2, [r7, #15]
 8000fd8:	7bfb      	ldrb	r3, [r7, #15]
 8000fda:	4907      	ldr	r1, [pc, #28]	@ (8000ff8 <StartDefaultTask+0x30>)
 8000fdc:	f851 2022 	ldr.w	r2, [r1, r2, lsl #2]
 8000fe0:	4906      	ldr	r1, [pc, #24]	@ (8000ffc <StartDefaultTask+0x34>)
 8000fe2:	f841 2023 	str.w	r2, [r1, r3, lsl #2]
	for (uint8_t i = 0; i < 24; i++) {
 8000fe6:	7bfb      	ldrb	r3, [r7, #15]
 8000fe8:	3301      	adds	r3, #1
 8000fea:	73fb      	strb	r3, [r7, #15]
 8000fec:	7bfb      	ldrb	r3, [r7, #15]
 8000fee:	2b17      	cmp	r3, #23
 8000ff0:	d9f1      	bls.n	8000fd6 <StartDefaultTask+0xe>
	}
	for (uint8_t i = 0; i < 16; i++) {
 8000ff2:	2300      	movs	r3, #0
 8000ff4:	73bb      	strb	r3, [r7, #14]
 8000ff6:	e00e      	b.n	8001016 <StartDefaultTask+0x4e>
 8000ff8:	200005b0 	.word	0x200005b0
 8000ffc:	20000718 	.word	0x20000718
		C[i] = D[i]; //影子数组赋初值
 8001000:	7bba      	ldrb	r2, [r7, #14]
 8001002:	7bbb      	ldrb	r3, [r7, #14]
 8001004:	49af      	ldr	r1, [pc, #700]	@ (80012c4 <StartDefaultTask+0x2fc>)
 8001006:	f851 2022 	ldr.w	r2, [r1, r2, lsl #2]
 800100a:	49af      	ldr	r1, [pc, #700]	@ (80012c8 <StartDefaultTask+0x300>)
 800100c:	f841 2023 	str.w	r2, [r1, r3, lsl #2]
	for (uint8_t i = 0; i < 16; i++) {
 8001010:	7bbb      	ldrb	r3, [r7, #14]
 8001012:	3301      	adds	r3, #1
 8001014:	73bb      	strb	r3, [r7, #14]
 8001016:	7bbb      	ldrb	r3, [r7, #14]
 8001018:	2b0f      	cmp	r3, #15
 800101a:	d9f1      	bls.n	8001000 <StartDefaultTask+0x38>

	/* Infinite loop */
	for (;;) {

#ifdef DEBUG
		ST7789_WriteString(30 - 11, 40 + 20 * 0, "X", Font_11x18, RED, BLACK);
 800101c:	4bab      	ldr	r3, [pc, #684]	@ (80012cc <StartDefaultTask+0x304>)
 800101e:	2200      	movs	r2, #0
 8001020:	9202      	str	r2, [sp, #8]
 8001022:	f44f 4278 	mov.w	r2, #63488	@ 0xf800
 8001026:	9201      	str	r2, [sp, #4]
 8001028:	685a      	ldr	r2, [r3, #4]
 800102a:	9200      	str	r2, [sp, #0]
 800102c:	681b      	ldr	r3, [r3, #0]
 800102e:	4aa8      	ldr	r2, [pc, #672]	@ (80012d0 <StartDefaultTask+0x308>)
 8001030:	2128      	movs	r1, #40	@ 0x28
 8001032:	2013      	movs	r0, #19
 8001034:	f001 fad4 	bl	80025e0 <ST7789_WriteString>
		ST7789_DisplayNumber(30 + 11, 40 + 20 * 0, IMU_SensorData_Raw.ACC_X,
 8001038:	4ba6      	ldr	r3, [pc, #664]	@ (80012d4 <StartDefaultTask+0x30c>)
 800103a:	f9b3 3000 	ldrsh.w	r3, [r3]
 800103e:	4619      	mov	r1, r3
 8001040:	4ba2      	ldr	r3, [pc, #648]	@ (80012cc <StartDefaultTask+0x304>)
 8001042:	2200      	movs	r2, #0
 8001044:	9202      	str	r2, [sp, #8]
 8001046:	f44f 4278 	mov.w	r2, #63488	@ 0xf800
 800104a:	9201      	str	r2, [sp, #4]
 800104c:	685a      	ldr	r2, [r3, #4]
 800104e:	9200      	str	r2, [sp, #0]
 8001050:	681b      	ldr	r3, [r3, #0]
 8001052:	460a      	mov	r2, r1
 8001054:	2128      	movs	r1, #40	@ 0x28
 8001056:	2029      	movs	r0, #41	@ 0x29
 8001058:	f001 fb0c 	bl	8002674 <ST7789_DisplayNumber>
				Font_11x18, RED, BLACK);
		ST7789_WriteString(30 - 11, 40 + 20 * 1, "Y", Font_11x18, RED, BLACK);
 800105c:	4b9b      	ldr	r3, [pc, #620]	@ (80012cc <StartDefaultTask+0x304>)
 800105e:	2200      	movs	r2, #0
 8001060:	9202      	str	r2, [sp, #8]
 8001062:	f44f 4278 	mov.w	r2, #63488	@ 0xf800
 8001066:	9201      	str	r2, [sp, #4]
 8001068:	685a      	ldr	r2, [r3, #4]
 800106a:	9200      	str	r2, [sp, #0]
 800106c:	681b      	ldr	r3, [r3, #0]
 800106e:	4a9a      	ldr	r2, [pc, #616]	@ (80012d8 <StartDefaultTask+0x310>)
 8001070:	213c      	movs	r1, #60	@ 0x3c
 8001072:	2013      	movs	r0, #19
 8001074:	f001 fab4 	bl	80025e0 <ST7789_WriteString>
		ST7789_DisplayNumber(30 + 11, 40 + 20 * 1, IMU_SensorData_Raw.ACC_Y,
 8001078:	4b96      	ldr	r3, [pc, #600]	@ (80012d4 <StartDefaultTask+0x30c>)
 800107a:	f9b3 3002 	ldrsh.w	r3, [r3, #2]
 800107e:	4619      	mov	r1, r3
 8001080:	4b92      	ldr	r3, [pc, #584]	@ (80012cc <StartDefaultTask+0x304>)
 8001082:	2200      	movs	r2, #0
 8001084:	9202      	str	r2, [sp, #8]
 8001086:	f44f 4278 	mov.w	r2, #63488	@ 0xf800
 800108a:	9201      	str	r2, [sp, #4]
 800108c:	685a      	ldr	r2, [r3, #4]
 800108e:	9200      	str	r2, [sp, #0]
 8001090:	681b      	ldr	r3, [r3, #0]
 8001092:	460a      	mov	r2, r1
 8001094:	213c      	movs	r1, #60	@ 0x3c
 8001096:	2029      	movs	r0, #41	@ 0x29
 8001098:	f001 faec 	bl	8002674 <ST7789_DisplayNumber>
				Font_11x18, RED, BLACK);
		ST7789_WriteString(30 - 11, 40 + 20 * 2, "Z", Font_11x18, RED, BLACK);
 800109c:	4b8b      	ldr	r3, [pc, #556]	@ (80012cc <StartDefaultTask+0x304>)
 800109e:	2200      	movs	r2, #0
 80010a0:	9202      	str	r2, [sp, #8]
 80010a2:	f44f 4278 	mov.w	r2, #63488	@ 0xf800
 80010a6:	9201      	str	r2, [sp, #4]
 80010a8:	685a      	ldr	r2, [r3, #4]
 80010aa:	9200      	str	r2, [sp, #0]
 80010ac:	681b      	ldr	r3, [r3, #0]
 80010ae:	4a8b      	ldr	r2, [pc, #556]	@ (80012dc <StartDefaultTask+0x314>)
 80010b0:	2150      	movs	r1, #80	@ 0x50
 80010b2:	2013      	movs	r0, #19
 80010b4:	f001 fa94 	bl	80025e0 <ST7789_WriteString>
		ST7789_DisplayNumber(30 + 11, 40 + 20 * 2, IMU_SensorData_Raw.ACC_Z,
 80010b8:	4b86      	ldr	r3, [pc, #536]	@ (80012d4 <StartDefaultTask+0x30c>)
 80010ba:	f9b3 3004 	ldrsh.w	r3, [r3, #4]
 80010be:	4619      	mov	r1, r3
 80010c0:	4b82      	ldr	r3, [pc, #520]	@ (80012cc <StartDefaultTask+0x304>)
 80010c2:	2200      	movs	r2, #0
 80010c4:	9202      	str	r2, [sp, #8]
 80010c6:	f44f 4278 	mov.w	r2, #63488	@ 0xf800
 80010ca:	9201      	str	r2, [sp, #4]
 80010cc:	685a      	ldr	r2, [r3, #4]
 80010ce:	9200      	str	r2, [sp, #0]
 80010d0:	681b      	ldr	r3, [r3, #0]
 80010d2:	460a      	mov	r2, r1
 80010d4:	2150      	movs	r1, #80	@ 0x50
 80010d6:	2029      	movs	r0, #41	@ 0x29
 80010d8:	f001 facc 	bl	8002674 <ST7789_DisplayNumber>
				Font_11x18, RED, BLACK);
		ST7789_WriteString(30 - 11, 40 + 20 * 3, "GX", Font_11x18, RED, BLACK);
 80010dc:	4b7b      	ldr	r3, [pc, #492]	@ (80012cc <StartDefaultTask+0x304>)
 80010de:	2200      	movs	r2, #0
 80010e0:	9202      	str	r2, [sp, #8]
 80010e2:	f44f 4278 	mov.w	r2, #63488	@ 0xf800
 80010e6:	9201      	str	r2, [sp, #4]
 80010e8:	685a      	ldr	r2, [r3, #4]
 80010ea:	9200      	str	r2, [sp, #0]
 80010ec:	681b      	ldr	r3, [r3, #0]
 80010ee:	4a7c      	ldr	r2, [pc, #496]	@ (80012e0 <StartDefaultTask+0x318>)
 80010f0:	2164      	movs	r1, #100	@ 0x64
 80010f2:	2013      	movs	r0, #19
 80010f4:	f001 fa74 	bl	80025e0 <ST7789_WriteString>
		ST7789_DisplayNumber(30 + 22, 40 + 20 * 3, IMU_SensorData_Raw.GYR_X,
 80010f8:	4b76      	ldr	r3, [pc, #472]	@ (80012d4 <StartDefaultTask+0x30c>)
 80010fa:	f9b3 3006 	ldrsh.w	r3, [r3, #6]
 80010fe:	4619      	mov	r1, r3
 8001100:	4b72      	ldr	r3, [pc, #456]	@ (80012cc <StartDefaultTask+0x304>)
 8001102:	2200      	movs	r2, #0
 8001104:	9202      	str	r2, [sp, #8]
 8001106:	f44f 4278 	mov.w	r2, #63488	@ 0xf800
 800110a:	9201      	str	r2, [sp, #4]
 800110c:	685a      	ldr	r2, [r3, #4]
 800110e:	9200      	str	r2, [sp, #0]
 8001110:	681b      	ldr	r3, [r3, #0]
 8001112:	460a      	mov	r2, r1
 8001114:	2164      	movs	r1, #100	@ 0x64
 8001116:	2034      	movs	r0, #52	@ 0x34
 8001118:	f001 faac 	bl	8002674 <ST7789_DisplayNumber>
				Font_11x18, RED, BLACK);
		ST7789_WriteString(30 - 11, 40 + 20 * 4, "GY", Font_11x18, RED, BLACK);
 800111c:	4b6b      	ldr	r3, [pc, #428]	@ (80012cc <StartDefaultTask+0x304>)
 800111e:	2200      	movs	r2, #0
 8001120:	9202      	str	r2, [sp, #8]
 8001122:	f44f 4278 	mov.w	r2, #63488	@ 0xf800
 8001126:	9201      	str	r2, [sp, #4]
 8001128:	685a      	ldr	r2, [r3, #4]
 800112a:	9200      	str	r2, [sp, #0]
 800112c:	681b      	ldr	r3, [r3, #0]
 800112e:	4a6d      	ldr	r2, [pc, #436]	@ (80012e4 <StartDefaultTask+0x31c>)
 8001130:	2178      	movs	r1, #120	@ 0x78
 8001132:	2013      	movs	r0, #19
 8001134:	f001 fa54 	bl	80025e0 <ST7789_WriteString>
		ST7789_DisplayNumber(30 + 22, 40 + 20 * 4, IMU_SensorData_Raw.GYR_Y,
 8001138:	4b66      	ldr	r3, [pc, #408]	@ (80012d4 <StartDefaultTask+0x30c>)
 800113a:	f9b3 3008 	ldrsh.w	r3, [r3, #8]
 800113e:	4619      	mov	r1, r3
 8001140:	4b62      	ldr	r3, [pc, #392]	@ (80012cc <StartDefaultTask+0x304>)
 8001142:	2200      	movs	r2, #0
 8001144:	9202      	str	r2, [sp, #8]
 8001146:	f44f 4278 	mov.w	r2, #63488	@ 0xf800
 800114a:	9201      	str	r2, [sp, #4]
 800114c:	685a      	ldr	r2, [r3, #4]
 800114e:	9200      	str	r2, [sp, #0]
 8001150:	681b      	ldr	r3, [r3, #0]
 8001152:	460a      	mov	r2, r1
 8001154:	2178      	movs	r1, #120	@ 0x78
 8001156:	2034      	movs	r0, #52	@ 0x34
 8001158:	f001 fa8c 	bl	8002674 <ST7789_DisplayNumber>
				Font_11x18, RED, BLACK);
		ST7789_WriteString(30 - 11, 40 + 20 * 5, "GZ", Font_11x18, RED, BLACK);
 800115c:	4b5b      	ldr	r3, [pc, #364]	@ (80012cc <StartDefaultTask+0x304>)
 800115e:	2200      	movs	r2, #0
 8001160:	9202      	str	r2, [sp, #8]
 8001162:	f44f 4278 	mov.w	r2, #63488	@ 0xf800
 8001166:	9201      	str	r2, [sp, #4]
 8001168:	685a      	ldr	r2, [r3, #4]
 800116a:	9200      	str	r2, [sp, #0]
 800116c:	681b      	ldr	r3, [r3, #0]
 800116e:	4a5e      	ldr	r2, [pc, #376]	@ (80012e8 <StartDefaultTask+0x320>)
 8001170:	218c      	movs	r1, #140	@ 0x8c
 8001172:	2013      	movs	r0, #19
 8001174:	f001 fa34 	bl	80025e0 <ST7789_WriteString>
		ST7789_DisplayNumber(30 + 22, 40 + 20 * 5, IMU_SensorData_Raw.GYR_Z,
 8001178:	4b56      	ldr	r3, [pc, #344]	@ (80012d4 <StartDefaultTask+0x30c>)
 800117a:	f9b3 300a 	ldrsh.w	r3, [r3, #10]
 800117e:	4619      	mov	r1, r3
 8001180:	4b52      	ldr	r3, [pc, #328]	@ (80012cc <StartDefaultTask+0x304>)
 8001182:	2200      	movs	r2, #0
 8001184:	9202      	str	r2, [sp, #8]
 8001186:	f44f 4278 	mov.w	r2, #63488	@ 0xf800
 800118a:	9201      	str	r2, [sp, #4]
 800118c:	685a      	ldr	r2, [r3, #4]
 800118e:	9200      	str	r2, [sp, #0]
 8001190:	681b      	ldr	r3, [r3, #0]
 8001192:	460a      	mov	r2, r1
 8001194:	218c      	movs	r1, #140	@ 0x8c
 8001196:	2034      	movs	r0, #52	@ 0x34
 8001198:	f001 fa6c 	bl	8002674 <ST7789_DisplayNumber>
				Font_11x18, RED, BLACK);
		ST7789_WriteString(30 - 11, 40 + 20 * 6, "T", Font_11x18, RED, BLACK);
 800119c:	4b4b      	ldr	r3, [pc, #300]	@ (80012cc <StartDefaultTask+0x304>)
 800119e:	2200      	movs	r2, #0
 80011a0:	9202      	str	r2, [sp, #8]
 80011a2:	f44f 4278 	mov.w	r2, #63488	@ 0xf800
 80011a6:	9201      	str	r2, [sp, #4]
 80011a8:	685a      	ldr	r2, [r3, #4]
 80011aa:	9200      	str	r2, [sp, #0]
 80011ac:	681b      	ldr	r3, [r3, #0]
 80011ae:	4a4f      	ldr	r2, [pc, #316]	@ (80012ec <StartDefaultTask+0x324>)
 80011b0:	21a0      	movs	r1, #160	@ 0xa0
 80011b2:	2013      	movs	r0, #19
 80011b4:	f001 fa14 	bl	80025e0 <ST7789_WriteString>
		ST7789_DisplayNumber(30 + 11, 40 + 20 * 6, IMU_SensorData_Raw.Temp,
 80011b8:	4b46      	ldr	r3, [pc, #280]	@ (80012d4 <StartDefaultTask+0x30c>)
 80011ba:	f9b3 300c 	ldrsh.w	r3, [r3, #12]
 80011be:	4619      	mov	r1, r3
 80011c0:	4b42      	ldr	r3, [pc, #264]	@ (80012cc <StartDefaultTask+0x304>)
 80011c2:	2200      	movs	r2, #0
 80011c4:	9202      	str	r2, [sp, #8]
 80011c6:	f44f 4278 	mov.w	r2, #63488	@ 0xf800
 80011ca:	9201      	str	r2, [sp, #4]
 80011cc:	685a      	ldr	r2, [r3, #4]
 80011ce:	9200      	str	r2, [sp, #0]
 80011d0:	681b      	ldr	r3, [r3, #0]
 80011d2:	460a      	mov	r2, r1
 80011d4:	21a0      	movs	r1, #160	@ 0xa0
 80011d6:	2029      	movs	r0, #41	@ 0x29
 80011d8:	f001 fa4c 	bl	8002674 <ST7789_DisplayNumber>
				Font_11x18, RED, BLACK);
		ST7789_WriteString(30 - 11, 40 + 20 * 7, "LCD", Font_11x18, RED, BLACK);
 80011dc:	4b3b      	ldr	r3, [pc, #236]	@ (80012cc <StartDefaultTask+0x304>)
 80011de:	2200      	movs	r2, #0
 80011e0:	9202      	str	r2, [sp, #8]
 80011e2:	f44f 4278 	mov.w	r2, #63488	@ 0xf800
 80011e6:	9201      	str	r2, [sp, #4]
 80011e8:	685a      	ldr	r2, [r3, #4]
 80011ea:	9200      	str	r2, [sp, #0]
 80011ec:	681b      	ldr	r3, [r3, #0]
 80011ee:	4a40      	ldr	r2, [pc, #256]	@ (80012f0 <StartDefaultTask+0x328>)
 80011f0:	21b4      	movs	r1, #180	@ 0xb4
 80011f2:	2013      	movs	r0, #19
 80011f4:	f001 f9f4 	bl	80025e0 <ST7789_WriteString>
		ST7789_DisplayNumber(30 + 33, 40 + 20 * 7, pwmVal, Font_11x18, RED,
 80011f8:	4b3e      	ldr	r3, [pc, #248]	@ (80012f4 <StartDefaultTask+0x32c>)
 80011fa:	881b      	ldrh	r3, [r3, #0]
 80011fc:	4619      	mov	r1, r3
 80011fe:	4b33      	ldr	r3, [pc, #204]	@ (80012cc <StartDefaultTask+0x304>)
 8001200:	2200      	movs	r2, #0
 8001202:	9202      	str	r2, [sp, #8]
 8001204:	f44f 4278 	mov.w	r2, #63488	@ 0xf800
 8001208:	9201      	str	r2, [sp, #4]
 800120a:	685a      	ldr	r2, [r3, #4]
 800120c:	9200      	str	r2, [sp, #0]
 800120e:	681b      	ldr	r3, [r3, #0]
 8001210:	460a      	mov	r2, r1
 8001212:	21b4      	movs	r1, #180	@ 0xb4
 8001214:	203f      	movs	r0, #63	@ 0x3f
 8001216:	f001 fa2d 	bl	8002674 <ST7789_DisplayNumber>
		BLACK);
		ST7789_WriteString(30 - 11, 40 + 20 * 8, "KEY", Font_11x18, RED, BLACK);
 800121a:	4b2c      	ldr	r3, [pc, #176]	@ (80012cc <StartDefaultTask+0x304>)
 800121c:	2200      	movs	r2, #0
 800121e:	9202      	str	r2, [sp, #8]
 8001220:	f44f 4278 	mov.w	r2, #63488	@ 0xf800
 8001224:	9201      	str	r2, [sp, #4]
 8001226:	685a      	ldr	r2, [r3, #4]
 8001228:	9200      	str	r2, [sp, #0]
 800122a:	681b      	ldr	r3, [r3, #0]
 800122c:	4a32      	ldr	r2, [pc, #200]	@ (80012f8 <StartDefaultTask+0x330>)
 800122e:	21c8      	movs	r1, #200	@ 0xc8
 8001230:	2013      	movs	r0, #19
 8001232:	f001 f9d5 	bl	80025e0 <ST7789_WriteString>
		ST7789_DisplayNumber(30 + 33, 40 + 20 * 8, KEY_Flag, Font_11x18,
 8001236:	4b31      	ldr	r3, [pc, #196]	@ (80012fc <StartDefaultTask+0x334>)
 8001238:	781b      	ldrb	r3, [r3, #0]
 800123a:	4619      	mov	r1, r3
 800123c:	4b23      	ldr	r3, [pc, #140]	@ (80012cc <StartDefaultTask+0x304>)
 800123e:	2200      	movs	r2, #0
 8001240:	9202      	str	r2, [sp, #8]
 8001242:	f44f 4278 	mov.w	r2, #63488	@ 0xf800
 8001246:	9201      	str	r2, [sp, #4]
 8001248:	685a      	ldr	r2, [r3, #4]
 800124a:	9200      	str	r2, [sp, #0]
 800124c:	681b      	ldr	r3, [r3, #0]
 800124e:	460a      	mov	r2, r1
 8001250:	21c8      	movs	r1, #200	@ 0xc8
 8001252:	203f      	movs	r0, #63	@ 0x3f
 8001254:	f001 fa0e 	bl	8002674 <ST7789_DisplayNumber>
		RED, BLACK);
		ST7789_WriteString(30 - 11, 40 + 20 * 9, "BAT", Font_11x18, RED, BLACK);
 8001258:	4b1c      	ldr	r3, [pc, #112]	@ (80012cc <StartDefaultTask+0x304>)
 800125a:	2200      	movs	r2, #0
 800125c:	9202      	str	r2, [sp, #8]
 800125e:	f44f 4278 	mov.w	r2, #63488	@ 0xf800
 8001262:	9201      	str	r2, [sp, #4]
 8001264:	685a      	ldr	r2, [r3, #4]
 8001266:	9200      	str	r2, [sp, #0]
 8001268:	681b      	ldr	r3, [r3, #0]
 800126a:	4a25      	ldr	r2, [pc, #148]	@ (8001300 <StartDefaultTask+0x338>)
 800126c:	21dc      	movs	r1, #220	@ 0xdc
 800126e:	2013      	movs	r0, #19
 8001270:	f001 f9b6 	bl	80025e0 <ST7789_WriteString>
		ST7789_DisplayNumber(30 + 33, 40 + 20 * 9, ADC_BAT_Value, Font_11x18,
 8001274:	4b23      	ldr	r3, [pc, #140]	@ (8001304 <StartDefaultTask+0x33c>)
 8001276:	881b      	ldrh	r3, [r3, #0]
 8001278:	4619      	mov	r1, r3
 800127a:	4b14      	ldr	r3, [pc, #80]	@ (80012cc <StartDefaultTask+0x304>)
 800127c:	2200      	movs	r2, #0
 800127e:	9202      	str	r2, [sp, #8]
 8001280:	f44f 4278 	mov.w	r2, #63488	@ 0xf800
 8001284:	9201      	str	r2, [sp, #4]
 8001286:	685a      	ldr	r2, [r3, #4]
 8001288:	9200      	str	r2, [sp, #0]
 800128a:	681b      	ldr	r3, [r3, #0]
 800128c:	460a      	mov	r2, r1
 800128e:	21dc      	movs	r1, #220	@ 0xdc
 8001290:	203f      	movs	r0, #63	@ 0x3f
 8001292:	f001 f9ef 	bl	8002674 <ST7789_DisplayNumber>
//		j = j + 6;//角度 + 6
//		if(j >= 360){j =0;}
//		osDelay(10);
		/**/

		LintToLine(20, 60, 220, 60, WHITE, 20, 60, 60, 220);
 8001296:	23dc      	movs	r3, #220	@ 0xdc
 8001298:	9304      	str	r3, [sp, #16]
 800129a:	233c      	movs	r3, #60	@ 0x3c
 800129c:	9303      	str	r3, [sp, #12]
 800129e:	233c      	movs	r3, #60	@ 0x3c
 80012a0:	9302      	str	r3, [sp, #8]
 80012a2:	2314      	movs	r3, #20
 80012a4:	9301      	str	r3, [sp, #4]
 80012a6:	f64f 73ff 	movw	r3, #65535	@ 0xffff
 80012aa:	9300      	str	r3, [sp, #0]
 80012ac:	233c      	movs	r3, #60	@ 0x3c
 80012ae:	22dc      	movs	r2, #220	@ 0xdc
 80012b0:	213c      	movs	r1, #60	@ 0x3c
 80012b2:	2014      	movs	r0, #20
 80012b4:	f000 fc76 	bl	8001ba4 <LintToLine>
		LintToLine(180, 200, 180, 300, WHITE, 180, 300, 50, 300);
 80012b8:	f44f 7396 	mov.w	r3, #300	@ 0x12c
 80012bc:	9304      	str	r3, [sp, #16]
 80012be:	2332      	movs	r3, #50	@ 0x32
 80012c0:	9303      	str	r3, [sp, #12]
 80012c2:	e021      	b.n	8001308 <StartDefaultTask+0x340>
 80012c4:	200007b8 	.word	0x200007b8
 80012c8:	20000778 	.word	0x20000778
 80012cc:	20000000 	.word	0x20000000
 80012d0:	0800bc44 	.word	0x0800bc44
 80012d4:	20000708 	.word	0x20000708
 80012d8:	0800bc48 	.word	0x0800bc48
 80012dc:	0800bc4c 	.word	0x0800bc4c
 80012e0:	0800bc50 	.word	0x0800bc50
 80012e4:	0800bc54 	.word	0x0800bc54
 80012e8:	0800bc58 	.word	0x0800bc58
 80012ec:	0800bc5c 	.word	0x0800bc5c
 80012f0:	0800bc60 	.word	0x0800bc60
 80012f4:	2000000c 	.word	0x2000000c
 80012f8:	0800bc64 	.word	0x0800bc64
 80012fc:	200008b4 	.word	0x200008b4
 8001300:	0800bc68 	.word	0x0800bc68
 8001304:	200008b0 	.word	0x200008b0
 8001308:	f44f 7396 	mov.w	r3, #300	@ 0x12c
 800130c:	9302      	str	r3, [sp, #8]
 800130e:	23b4      	movs	r3, #180	@ 0xb4
 8001310:	9301      	str	r3, [sp, #4]
 8001312:	f64f 73ff 	movw	r3, #65535	@ 0xffff
 8001316:	9300      	str	r3, [sp, #0]
 8001318:	f44f 7396 	mov.w	r3, #300	@ 0x12c
 800131c:	22b4      	movs	r2, #180	@ 0xb4
 800131e:	21c8      	movs	r1, #200	@ 0xc8
 8001320:	20b4      	movs	r0, #180	@ 0xb4
 8001322:	f000 fc3f 	bl	8001ba4 <LintToLine>
//		for(i = 0;i<320;i+=2){
//			ST7789_DrawLine(40, i, 80, 80, WHITE);
//		}

#endif
		osDelay(1);
 8001326:	2001      	movs	r0, #1
 8001328:	f007 fb1e 	bl	8008968 <osDelay>
	for (;;) {
 800132c:	bf00      	nop
 800132e:	e675      	b.n	800101c <StartDefaultTask+0x54>

08001330 <StartTask02>:
 * @brief Function implementing the myTask02 thread.
 * @param argument: Not used
 * @retval None
 */
/* USER CODE END Header_StartTask02 */
void StartTask02(void *argument) {
 8001330:	b580      	push	{r7, lr}
 8001332:	b082      	sub	sp, #8
 8001334:	af00      	add	r7, sp, #0
 8001336:	6078      	str	r0, [r7, #4]
	/* USER CODE BEGIN StartTask02 */
	/* Infinite loop */
	for (;;) {
		/* 调节屏幕亮度函数 */
		if (KEY_Flag == 1) {
 8001338:	4b38      	ldr	r3, [pc, #224]	@ (800141c <StartTask02+0xec>)
 800133a:	781b      	ldrb	r3, [r3, #0]
 800133c:	2b01      	cmp	r3, #1
 800133e:	d12e      	bne.n	800139e <StartTask02+0x6e>
			osDelay(500);
 8001340:	f44f 70fa 	mov.w	r0, #500	@ 0x1f4
 8001344:	f007 fb10 	bl	8008968 <osDelay>
			if (ADC_KEY_Value <= 100) {
 8001348:	4b35      	ldr	r3, [pc, #212]	@ (8001420 <StartTask02+0xf0>)
 800134a:	881b      	ldrh	r3, [r3, #0]
 800134c:	2b64      	cmp	r3, #100	@ 0x64
 800134e:	d815      	bhi.n	800137c <StartTask02+0x4c>
				while (ADC_KEY_Value <= 100) {
 8001350:	e010      	b.n	8001374 <StartTask02+0x44>
					pwmVal -= 200;
 8001352:	4b34      	ldr	r3, [pc, #208]	@ (8001424 <StartTask02+0xf4>)
 8001354:	881b      	ldrh	r3, [r3, #0]
 8001356:	3bc8      	subs	r3, #200	@ 0xc8
 8001358:	b29a      	uxth	r2, r3
 800135a:	4b32      	ldr	r3, [pc, #200]	@ (8001424 <StartTask02+0xf4>)
 800135c:	801a      	strh	r2, [r3, #0]
					if (pwmVal <= 200) {
 800135e:	4b31      	ldr	r3, [pc, #196]	@ (8001424 <StartTask02+0xf4>)
 8001360:	881b      	ldrh	r3, [r3, #0]
 8001362:	2bc8      	cmp	r3, #200	@ 0xc8
 8001364:	d803      	bhi.n	800136e <StartTask02+0x3e>
						pwmVal = 201;
 8001366:	4b2f      	ldr	r3, [pc, #188]	@ (8001424 <StartTask02+0xf4>)
 8001368:	22c9      	movs	r2, #201	@ 0xc9
 800136a:	801a      	strh	r2, [r3, #0]
						break;
 800136c:	e006      	b.n	800137c <StartTask02+0x4c>
					}
					osDelay(10);
 800136e:	200a      	movs	r0, #10
 8001370:	f007 fafa 	bl	8008968 <osDelay>
				while (ADC_KEY_Value <= 100) {
 8001374:	4b2a      	ldr	r3, [pc, #168]	@ (8001420 <StartTask02+0xf0>)
 8001376:	881b      	ldrh	r3, [r3, #0]
 8001378:	2b64      	cmp	r3, #100	@ 0x64
 800137a:	d9ea      	bls.n	8001352 <StartTask02+0x22>
				}
			}
			if (pwmVal <= 2000) {
 800137c:	4b29      	ldr	r3, [pc, #164]	@ (8001424 <StartTask02+0xf4>)
 800137e:	881b      	ldrh	r3, [r3, #0]
 8001380:	f5b3 6ffa 	cmp.w	r3, #2000	@ 0x7d0
 8001384:	d803      	bhi.n	800138e <StartTask02+0x5e>
				pwmVal = 2001;
 8001386:	4b27      	ldr	r3, [pc, #156]	@ (8001424 <StartTask02+0xf4>)
 8001388:	f240 72d1 	movw	r2, #2001	@ 0x7d1
 800138c:	801a      	strh	r2, [r3, #0]
			}
			pwmVal -= 1000;
 800138e:	4b25      	ldr	r3, [pc, #148]	@ (8001424 <StartTask02+0xf4>)
 8001390:	881b      	ldrh	r3, [r3, #0]
 8001392:	f5a3 737a 	sub.w	r3, r3, #1000	@ 0x3e8
 8001396:	b29a      	uxth	r2, r3
 8001398:	4b22      	ldr	r3, [pc, #136]	@ (8001424 <StartTask02+0xf4>)
 800139a:	801a      	strh	r2, [r3, #0]
 800139c:	e039      	b.n	8001412 <StartTask02+0xe2>
		} else if (KEY_Flag == 2) {
 800139e:	4b1f      	ldr	r3, [pc, #124]	@ (800141c <StartTask02+0xec>)
 80013a0:	781b      	ldrb	r3, [r3, #0]
 80013a2:	2b02      	cmp	r3, #2
 80013a4:	d135      	bne.n	8001412 <StartTask02+0xe2>
			osDelay(500);
 80013a6:	f44f 70fa 	mov.w	r0, #500	@ 0x1f4
 80013aa:	f007 fadd 	bl	8008968 <osDelay>
			if (ADC_KEY_Value >= 3900) {
 80013ae:	4b1c      	ldr	r3, [pc, #112]	@ (8001420 <StartTask02+0xf0>)
 80013b0:	881b      	ldrh	r3, [r3, #0]
 80013b2:	f640 723b 	movw	r2, #3899	@ 0xf3b
 80013b6:	4293      	cmp	r3, r2
 80013b8:	d91a      	bls.n	80013f0 <StartTask02+0xc0>
				while (ADC_KEY_Value >= 3900) {
 80013ba:	e013      	b.n	80013e4 <StartTask02+0xb4>
					pwmVal += 200;
 80013bc:	4b19      	ldr	r3, [pc, #100]	@ (8001424 <StartTask02+0xf4>)
 80013be:	881b      	ldrh	r3, [r3, #0]
 80013c0:	33c8      	adds	r3, #200	@ 0xc8
 80013c2:	b29a      	uxth	r2, r3
 80013c4:	4b17      	ldr	r3, [pc, #92]	@ (8001424 <StartTask02+0xf4>)
 80013c6:	801a      	strh	r2, [r3, #0]
					if (pwmVal >= 63000) {
 80013c8:	4b16      	ldr	r3, [pc, #88]	@ (8001424 <StartTask02+0xf4>)
 80013ca:	881b      	ldrh	r3, [r3, #0]
 80013cc:	f24f 6217 	movw	r2, #62999	@ 0xf617
 80013d0:	4293      	cmp	r3, r2
 80013d2:	d904      	bls.n	80013de <StartTask02+0xae>
						pwmVal = 62800;
 80013d4:	4b13      	ldr	r3, [pc, #76]	@ (8001424 <StartTask02+0xf4>)
 80013d6:	f24f 5250 	movw	r2, #62800	@ 0xf550
 80013da:	801a      	strh	r2, [r3, #0]
						break;
 80013dc:	e008      	b.n	80013f0 <StartTask02+0xc0>
					}
					osDelay(10);
 80013de:	200a      	movs	r0, #10
 80013e0:	f007 fac2 	bl	8008968 <osDelay>
				while (ADC_KEY_Value >= 3900) {
 80013e4:	4b0e      	ldr	r3, [pc, #56]	@ (8001420 <StartTask02+0xf0>)
 80013e6:	881b      	ldrh	r3, [r3, #0]
 80013e8:	f640 723b 	movw	r2, #3899	@ 0xf3b
 80013ec:	4293      	cmp	r3, r2
 80013ee:	d8e5      	bhi.n	80013bc <StartTask02+0x8c>
				}
			}
			if (pwmVal >= 63000) {
 80013f0:	4b0c      	ldr	r3, [pc, #48]	@ (8001424 <StartTask02+0xf4>)
 80013f2:	881b      	ldrh	r3, [r3, #0]
 80013f4:	f24f 6217 	movw	r2, #62999	@ 0xf617
 80013f8:	4293      	cmp	r3, r2
 80013fa:	d903      	bls.n	8001404 <StartTask02+0xd4>
				pwmVal = 63000;
 80013fc:	4b09      	ldr	r3, [pc, #36]	@ (8001424 <StartTask02+0xf4>)
 80013fe:	f24f 6218 	movw	r2, #63000	@ 0xf618
 8001402:	801a      	strh	r2, [r3, #0]
			}
			pwmVal += 1000;
 8001404:	4b07      	ldr	r3, [pc, #28]	@ (8001424 <StartTask02+0xf4>)
 8001406:	881b      	ldrh	r3, [r3, #0]
 8001408:	f503 737a 	add.w	r3, r3, #1000	@ 0x3e8
 800140c:	b29a      	uxth	r2, r3
 800140e:	4b05      	ldr	r3, [pc, #20]	@ (8001424 <StartTask02+0xf4>)
 8001410:	801a      	strh	r2, [r3, #0]
		}
		osDelay(1);
 8001412:	2001      	movs	r0, #1
 8001414:	f007 faa8 	bl	8008968 <osDelay>
		if (KEY_Flag == 1) {
 8001418:	e78e      	b.n	8001338 <StartTask02+0x8>
 800141a:	bf00      	nop
 800141c:	200008b4 	.word	0x200008b4
 8001420:	200008b2 	.word	0x200008b2
 8001424:	2000000c 	.word	0x2000000c

08001428 <StartTask03>:
 * @brief Function implementing the myTask03 thread.
 * @param argument: Not used
 * @retval None
 */
/* USER CODE END Header_StartTask03 */
void StartTask03(void *argument) {
 8001428:	b580      	push	{r7, lr}
 800142a:	b084      	sub	sp, #16
 800142c:	af00      	add	r7, sp, #0
 800142e:	6078      	str	r0, [r7, #4]
	/* USER CODE BEGIN StartTask03 */
	/* Infinite loop */
	for (;;) {
		BSP_MPU6050_UpdateSensors();
 8001430:	f7ff fd24 	bl	8000e7c <BSP_MPU6050_UpdateSensors>
////				buffer[1] = (pwmVal / 100) % 10 + 48;
////				buffer[2] = (pwmVal % 100) / 10 + 48;
////				buffer[3] = (pwmVal % 100) % 10 + 48;
//			}

		HAL_ADC_Start(&hadc1);	 //启动ADC转换
 8001434:	4854      	ldr	r0, [pc, #336]	@ (8001588 <StartTask03+0x160>)
 8001436:	f001 fe55 	bl	80030e4 <HAL_ADC_Start>
		HAL_ADC_PollForConversion(&hadc1, 0xFFFF);   //等待转换完成，50为最大等待时间，单位为ms
 800143a:	f64f 71ff 	movw	r1, #65535	@ 0xffff
 800143e:	4852      	ldr	r0, [pc, #328]	@ (8001588 <StartTask03+0x160>)
 8001440:	f001 ff2a 	bl	8003298 <HAL_ADC_PollForConversion>
		ADC_KEY_Value = HAL_ADC_GetValue(&hadc1);   //获取AD值
 8001444:	4850      	ldr	r0, [pc, #320]	@ (8001588 <StartTask03+0x160>)
 8001446:	f002 f82d 	bl	80034a4 <HAL_ADC_GetValue>
 800144a:	4603      	mov	r3, r0
 800144c:	b29a      	uxth	r2, r3
 800144e:	4b4f      	ldr	r3, [pc, #316]	@ (800158c <StartTask03+0x164>)
 8001450:	801a      	strh	r2, [r3, #0]
		HAL_ADC_Stop(&hadc1);	 //启动ADC转换
 8001452:	484d      	ldr	r0, [pc, #308]	@ (8001588 <StartTask03+0x160>)
 8001454:	f001 fef4 	bl	8003240 <HAL_ADC_Stop>

		HAL_ADC_Start(&hadc2);	 //启动ADC转换
 8001458:	484d      	ldr	r0, [pc, #308]	@ (8001590 <StartTask03+0x168>)
 800145a:	f001 fe43 	bl	80030e4 <HAL_ADC_Start>
		HAL_ADC_PollForConversion(&hadc2, 0xFFFF);   //等待转换完成，50为最大等待时间，单位为ms
 800145e:	f64f 71ff 	movw	r1, #65535	@ 0xffff
 8001462:	484b      	ldr	r0, [pc, #300]	@ (8001590 <StartTask03+0x168>)
 8001464:	f001 ff18 	bl	8003298 <HAL_ADC_PollForConversion>
		ADC_BAT_Value = HAL_ADC_GetValue(&hadc2);   //获取AD值
 8001468:	4849      	ldr	r0, [pc, #292]	@ (8001590 <StartTask03+0x168>)
 800146a:	f002 f81b 	bl	80034a4 <HAL_ADC_GetValue>
 800146e:	4603      	mov	r3, r0
 8001470:	b29a      	uxth	r2, r3
 8001472:	4b48      	ldr	r3, [pc, #288]	@ (8001594 <StartTask03+0x16c>)
 8001474:	801a      	strh	r2, [r3, #0]
		HAL_ADC_Stop(&hadc2);	 //启动ADC转换
 8001476:	4846      	ldr	r0, [pc, #280]	@ (8001590 <StartTask03+0x168>)
 8001478:	f001 fee2 	bl	8003240 <HAL_ADC_Stop>

		if (ADC_KEY_Value <= 100) {
 800147c:	4b43      	ldr	r3, [pc, #268]	@ (800158c <StartTask03+0x164>)
 800147e:	881b      	ldrh	r3, [r3, #0]
 8001480:	2b64      	cmp	r3, #100	@ 0x64
 8001482:	d803      	bhi.n	800148c <StartTask03+0x64>
			/* KEY_Flag DOWN */
			KEY_Flag = 1;
 8001484:	4b44      	ldr	r3, [pc, #272]	@ (8001598 <StartTask03+0x170>)
 8001486:	2201      	movs	r2, #1
 8001488:	701a      	strb	r2, [r3, #0]
 800148a:	e027      	b.n	80014dc <StartTask03+0xb4>
		} else if (ADC_KEY_Value >= 3900) {
 800148c:	4b3f      	ldr	r3, [pc, #252]	@ (800158c <StartTask03+0x164>)
 800148e:	881b      	ldrh	r3, [r3, #0]
 8001490:	f640 723b 	movw	r2, #3899	@ 0xf3b
 8001494:	4293      	cmp	r3, r2
 8001496:	d903      	bls.n	80014a0 <StartTask03+0x78>
			/* KEY_Flag UP */
			KEY_Flag = 2;
 8001498:	4b3f      	ldr	r3, [pc, #252]	@ (8001598 <StartTask03+0x170>)
 800149a:	2202      	movs	r2, #2
 800149c:	701a      	strb	r2, [r3, #0]
 800149e:	e01d      	b.n	80014dc <StartTask03+0xb4>
		} else if (ADC_KEY_Value >= 1500 && ADC_KEY_Value <= 2500) {
 80014a0:	4b3a      	ldr	r3, [pc, #232]	@ (800158c <StartTask03+0x164>)
 80014a2:	881b      	ldrh	r3, [r3, #0]
 80014a4:	f240 52db 	movw	r2, #1499	@ 0x5db
 80014a8:	4293      	cmp	r3, r2
 80014aa:	d909      	bls.n	80014c0 <StartTask03+0x98>
 80014ac:	4b37      	ldr	r3, [pc, #220]	@ (800158c <StartTask03+0x164>)
 80014ae:	881b      	ldrh	r3, [r3, #0]
 80014b0:	f640 12c4 	movw	r2, #2500	@ 0x9c4
 80014b4:	4293      	cmp	r3, r2
 80014b6:	d803      	bhi.n	80014c0 <StartTask03+0x98>
			/* KEY_Flag UP */
			KEY_Flag = 0;
 80014b8:	4b37      	ldr	r3, [pc, #220]	@ (8001598 <StartTask03+0x170>)
 80014ba:	2200      	movs	r2, #0
 80014bc:	701a      	strb	r2, [r3, #0]
 80014be:	e00d      	b.n	80014dc <StartTask03+0xb4>
		} else if (ADC_KEY_Value >= 500 && ADC_KEY_Value <= 1500) {
 80014c0:	4b32      	ldr	r3, [pc, #200]	@ (800158c <StartTask03+0x164>)
 80014c2:	881b      	ldrh	r3, [r3, #0]
 80014c4:	f5b3 7ffa 	cmp.w	r3, #500	@ 0x1f4
 80014c8:	d308      	bcc.n	80014dc <StartTask03+0xb4>
 80014ca:	4b30      	ldr	r3, [pc, #192]	@ (800158c <StartTask03+0x164>)
 80014cc:	881b      	ldrh	r3, [r3, #0]
 80014ce:	f240 52dc 	movw	r2, #1500	@ 0x5dc
 80014d2:	4293      	cmp	r3, r2
 80014d4:	d802      	bhi.n	80014dc <StartTask03+0xb4>
			/* KEY_Flag OK */
			KEY_Flag = 3;
 80014d6:	4b30      	ldr	r3, [pc, #192]	@ (8001598 <StartTask03+0x170>)
 80014d8:	2203      	movs	r2, #3
 80014da:	701a      	strb	r2, [r3, #0]
		}

		TIM2->CCR1 = pwmVal;
 80014dc:	4b2f      	ldr	r3, [pc, #188]	@ (800159c <StartTask03+0x174>)
 80014de:	881a      	ldrh	r2, [r3, #0]
 80014e0:	f04f 4380 	mov.w	r3, #1073741824	@ 0x40000000
 80014e4:	635a      	str	r2, [r3, #52]	@ 0x34

		if (send_Flag == 1) {
 80014e6:	4b2e      	ldr	r3, [pc, #184]	@ (80015a0 <StartTask03+0x178>)
 80014e8:	781b      	ldrb	r3, [r3, #0]
 80014ea:	2b01      	cmp	r3, #1
 80014ec:	d147      	bne.n	800157e <StartTask03+0x156>
			send_Flag = 0;
 80014ee:	4b2c      	ldr	r3, [pc, #176]	@ (80015a0 <StartTask03+0x178>)
 80014f0:	2200      	movs	r2, #0
 80014f2:	701a      	strb	r2, [r3, #0]
			HAL_TIM_PWM_Start(&htim3, TIM_CHANNEL_3);
 80014f4:	2108      	movs	r1, #8
 80014f6:	482b      	ldr	r0, [pc, #172]	@ (80015a4 <StartTask03+0x17c>)
 80014f8:	f005 fbf8 	bl	8006cec <HAL_TIM_PWM_Start>
			HAL_UART_Transmit(&huart2, "DELAY:9000\n", 11, 0x0100);
 80014fc:	f44f 7380 	mov.w	r3, #256	@ 0x100
 8001500:	220b      	movs	r2, #11
 8001502:	4929      	ldr	r1, [pc, #164]	@ (80015a8 <StartTask03+0x180>)
 8001504:	4829      	ldr	r0, [pc, #164]	@ (80015ac <StartTask03+0x184>)
 8001506:	f006 f9b3 	bl	8007870 <HAL_UART_Transmit>
			delay_us(9000);
 800150a:	f242 3028 	movw	r0, #9000	@ 0x2328
 800150e:	f000 f8a1 	bl	8001654 <delay_us>
			HAL_TIM_PWM_Stop(&htim3, TIM_CHANNEL_3);
 8001512:	2108      	movs	r1, #8
 8001514:	4823      	ldr	r0, [pc, #140]	@ (80015a4 <StartTask03+0x17c>)
 8001516:	f005 fc8b 	bl	8006e30 <HAL_TIM_PWM_Stop>
			HAL_UART_Transmit(&huart2, "DELAY:4400\n", 11, 0x0100);
 800151a:	f44f 7380 	mov.w	r3, #256	@ 0x100
 800151e:	220b      	movs	r2, #11
 8001520:	4923      	ldr	r1, [pc, #140]	@ (80015b0 <StartTask03+0x188>)
 8001522:	4822      	ldr	r0, [pc, #136]	@ (80015ac <StartTask03+0x184>)
 8001524:	f006 f9a4 	bl	8007870 <HAL_UART_Transmit>
			delay_us(4500);
 8001528:	f241 1094 	movw	r0, #4500	@ 0x1194
 800152c:	f000 f892 	bl	8001654 <delay_us>
			HAL_UART_Transmit(&huart2, "IR_SendByte BEGIN\n", 18, 0x0100);
 8001530:	f44f 7380 	mov.w	r3, #256	@ 0x100
 8001534:	2212      	movs	r2, #18
 8001536:	491f      	ldr	r1, [pc, #124]	@ (80015b4 <StartTask03+0x18c>)
 8001538:	481c      	ldr	r0, [pc, #112]	@ (80015ac <StartTask03+0x184>)
 800153a:	f006 f999 	bl	8007870 <HAL_UART_Transmit>
			IR_SendByte(addr);
 800153e:	4b1e      	ldr	r3, [pc, #120]	@ (80015b8 <StartTask03+0x190>)
 8001540:	781b      	ldrb	r3, [r3, #0]
 8001542:	4618      	mov	r0, r3
 8001544:	f000 f83e 	bl	80015c4 <IR_SendByte>
			uint8_t len = 1;
 8001548:	2301      	movs	r3, #1
 800154a:	72fb      	strb	r3, [r7, #11]
			for (int i = 0; i < len; i++) {
 800154c:	2300      	movs	r3, #0
 800154e:	60fb      	str	r3, [r7, #12]
 8001550:	e007      	b.n	8001562 <StartTask03+0x13a>
				IR_SendByte(data);
 8001552:	4b1a      	ldr	r3, [pc, #104]	@ (80015bc <StartTask03+0x194>)
 8001554:	781b      	ldrb	r3, [r3, #0]
 8001556:	4618      	mov	r0, r3
 8001558:	f000 f834 	bl	80015c4 <IR_SendByte>
			for (int i = 0; i < len; i++) {
 800155c:	68fb      	ldr	r3, [r7, #12]
 800155e:	3301      	adds	r3, #1
 8001560:	60fb      	str	r3, [r7, #12]
 8001562:	7afb      	ldrb	r3, [r7, #11]
 8001564:	68fa      	ldr	r2, [r7, #12]
 8001566:	429a      	cmp	r2, r3
 8001568:	dbf3      	blt.n	8001552 <StartTask03+0x12a>
			}
			send_Flag = 1;
 800156a:	4b0d      	ldr	r3, [pc, #52]	@ (80015a0 <StartTask03+0x178>)
 800156c:	2201      	movs	r2, #1
 800156e:	701a      	strb	r2, [r3, #0]
			HAL_UART_Transmit(&huart2, "IR_SendByte END\n", 16, 0x0100);
 8001570:	f44f 7380 	mov.w	r3, #256	@ 0x100
 8001574:	2210      	movs	r2, #16
 8001576:	4912      	ldr	r1, [pc, #72]	@ (80015c0 <StartTask03+0x198>)
 8001578:	480c      	ldr	r0, [pc, #48]	@ (80015ac <StartTask03+0x184>)
 800157a:	f006 f979 	bl	8007870 <HAL_UART_Transmit>
		}

		osDelay(1);
 800157e:	2001      	movs	r0, #1
 8001580:	f007 f9f2 	bl	8008968 <osDelay>
		BSP_MPU6050_UpdateSensors();
 8001584:	e754      	b.n	8001430 <StartTask03+0x8>
 8001586:	bf00      	nop
 8001588:	200006a8 	.word	0x200006a8
 800158c:	200008b2 	.word	0x200008b2
 8001590:	200006d8 	.word	0x200006d8
 8001594:	200008b0 	.word	0x200008b0
 8001598:	200008b4 	.word	0x200008b4
 800159c:	2000000c 	.word	0x2000000c
 80015a0:	20000008 	.word	0x20000008
 80015a4:	200013a0 	.word	0x200013a0
 80015a8:	0800bc6c 	.word	0x0800bc6c
 80015ac:	20001430 	.word	0x20001430
 80015b0:	0800bc78 	.word	0x0800bc78
 80015b4:	0800bc84 	.word	0x0800bc84
 80015b8:	200007f8 	.word	0x200007f8
 80015bc:	20000009 	.word	0x20000009
 80015c0:	0800bc98 	.word	0x0800bc98

080015c4 <IR_SendByte>:
	HAL_UART_Transmit(&huart2, "Free SD Card Space:", 33, 0x0100);
	HAL_UART_Transmit(&huart2, &FreeSpace, sizeof(FreeSpace), 0x0100);
	HAL_UART_Transmit(&huart2, "\n", 1, 0x0100);
}

void IR_SendByte(uint8_t data) {
 80015c4:	b580      	push	{r7, lr}
 80015c6:	b084      	sub	sp, #16
 80015c8:	af00      	add	r7, sp, #0
 80015ca:	4603      	mov	r3, r0
 80015cc:	71fb      	strb	r3, [r7, #7]
	uint8_t idata = ~data;
 80015ce:	79fb      	ldrb	r3, [r7, #7]
 80015d0:	43db      	mvns	r3, r3
 80015d2:	72fb      	strb	r3, [r7, #11]
	uint16_t send_code = data << 8 | idata;
 80015d4:	79fb      	ldrb	r3, [r7, #7]
 80015d6:	021b      	lsls	r3, r3, #8
 80015d8:	b21a      	sxth	r2, r3
 80015da:	7afb      	ldrb	r3, [r7, #11]
 80015dc:	b21b      	sxth	r3, r3
 80015de:	4313      	orrs	r3, r2
 80015e0:	b21b      	sxth	r3, r3
 80015e2:	813b      	strh	r3, [r7, #8]
	for (int i = 15; i >= 0; i--) {
 80015e4:	230f      	movs	r3, #15
 80015e6:	60fb      	str	r3, [r7, #12]
 80015e8:	e01f      	b.n	800162a <IR_SendByte+0x66>
		HAL_TIM_PWM_Start(&htim3, TIM_CHANNEL_3);
 80015ea:	2108      	movs	r1, #8
 80015ec:	4818      	ldr	r0, [pc, #96]	@ (8001650 <IR_SendByte+0x8c>)
 80015ee:	f005 fb7d 	bl	8006cec <HAL_TIM_PWM_Start>
		delay_us(560);
 80015f2:	f44f 700c 	mov.w	r0, #560	@ 0x230
 80015f6:	f000 f82d 	bl	8001654 <delay_us>
		HAL_TIM_PWM_Stop(&htim3, TIM_CHANNEL_3);
 80015fa:	2108      	movs	r1, #8
 80015fc:	4814      	ldr	r0, [pc, #80]	@ (8001650 <IR_SendByte+0x8c>)
 80015fe:	f005 fc17 	bl	8006e30 <HAL_TIM_PWM_Stop>
		if ((send_code >> i) & 0x01) //正向
 8001602:	893a      	ldrh	r2, [r7, #8]
 8001604:	68fb      	ldr	r3, [r7, #12]
 8001606:	fa42 f303 	asr.w	r3, r2, r3
 800160a:	f003 0301 	and.w	r3, r3, #1
 800160e:	2b00      	cmp	r3, #0
 8001610:	d004      	beq.n	800161c <IR_SendByte+0x58>
			delay_us(1690);
 8001612:	f240 609a 	movw	r0, #1690	@ 0x69a
 8001616:	f000 f81d 	bl	8001654 <delay_us>
 800161a:	e003      	b.n	8001624 <IR_SendByte+0x60>
		else
			delay_us(560);
 800161c:	f44f 700c 	mov.w	r0, #560	@ 0x230
 8001620:	f000 f818 	bl	8001654 <delay_us>
	for (int i = 15; i >= 0; i--) {
 8001624:	68fb      	ldr	r3, [r7, #12]
 8001626:	3b01      	subs	r3, #1
 8001628:	60fb      	str	r3, [r7, #12]
 800162a:	68fb      	ldr	r3, [r7, #12]
 800162c:	2b00      	cmp	r3, #0
 800162e:	dadc      	bge.n	80015ea <IR_SendByte+0x26>
//		if((send_code>>i) & 0x01)//反向
//			delay_us(560);
//		else
//			delay_us(1690);
	}
	HAL_TIM_PWM_Start(&htim3, TIM_CHANNEL_3);
 8001630:	2108      	movs	r1, #8
 8001632:	4807      	ldr	r0, [pc, #28]	@ (8001650 <IR_SendByte+0x8c>)
 8001634:	f005 fb5a 	bl	8006cec <HAL_TIM_PWM_Start>
	delay_us(560);
 8001638:	f44f 700c 	mov.w	r0, #560	@ 0x230
 800163c:	f000 f80a 	bl	8001654 <delay_us>
	HAL_TIM_PWM_Stop(&htim3, TIM_CHANNEL_3);
 8001640:	2108      	movs	r1, #8
 8001642:	4803      	ldr	r0, [pc, #12]	@ (8001650 <IR_SendByte+0x8c>)
 8001644:	f005 fbf4 	bl	8006e30 <HAL_TIM_PWM_Stop>
}
 8001648:	bf00      	nop
 800164a:	3710      	adds	r7, #16
 800164c:	46bd      	mov	sp, r7
 800164e:	bd80      	pop	{r7, pc}
 8001650:	200013a0 	.word	0x200013a0

08001654 <delay_us>:

void delay_us(uint32_t nus) {
 8001654:	b580      	push	{r7, lr}
 8001656:	b088      	sub	sp, #32
 8001658:	af00      	add	r7, sp, #0
 800165a:	6078      	str	r0, [r7, #4]
	uint32_t ticks;
	uint32_t told, tnow, reload, tcnt = 0;
 800165c:	2300      	movs	r3, #0
 800165e:	61bb      	str	r3, [r7, #24]
	if ((0x0001 & (SysTick->CTRL)) == 0)    //定时器未工作
 8001660:	4b20      	ldr	r3, [pc, #128]	@ (80016e4 <delay_us+0x90>)
 8001662:	681b      	ldr	r3, [r3, #0]
 8001664:	f003 0301 	and.w	r3, r3, #1
 8001668:	2b00      	cmp	r3, #0
 800166a:	d101      	bne.n	8001670 <delay_us+0x1c>
		vPortSetupTimerInterrupt();  //初始化定时器
 800166c:	f009 fb66 	bl	800ad3c <vPortSetupTimerInterrupt>

	reload = SysTick->LOAD;                     //获取重装载寄存器值
 8001670:	4b1c      	ldr	r3, [pc, #112]	@ (80016e4 <delay_us+0x90>)
 8001672:	685b      	ldr	r3, [r3, #4]
 8001674:	617b      	str	r3, [r7, #20]
	ticks = nus * (SystemCoreClock / 1000000);  //计数时间值
 8001676:	4b1c      	ldr	r3, [pc, #112]	@ (80016e8 <delay_us+0x94>)
 8001678:	681b      	ldr	r3, [r3, #0]
 800167a:	4a1c      	ldr	r2, [pc, #112]	@ (80016ec <delay_us+0x98>)
 800167c:	fba2 2303 	umull	r2, r3, r2, r3
 8001680:	0c9a      	lsrs	r2, r3, #18
 8001682:	687b      	ldr	r3, [r7, #4]
 8001684:	fb02 f303 	mul.w	r3, r2, r3
 8001688:	613b      	str	r3, [r7, #16]

	vTaskSuspendAll();  //阻止OS调度，防止打断us延时
 800168a:	f008 f9cd 	bl	8009a28 <vTaskSuspendAll>
	told = SysTick->VAL;  //获取当前数值寄存器值（开始时数值）
 800168e:	4b15      	ldr	r3, [pc, #84]	@ (80016e4 <delay_us+0x90>)
 8001690:	689b      	ldr	r3, [r3, #8]
 8001692:	61fb      	str	r3, [r7, #28]
	while (1) {
		tnow = SysTick->VAL; //获取当前数值寄存器值
 8001694:	4b13      	ldr	r3, [pc, #76]	@ (80016e4 <delay_us+0x90>)
 8001696:	689b      	ldr	r3, [r3, #8]
 8001698:	60fb      	str	r3, [r7, #12]
		if (tnow != told)  //当前值不等于开始值说明已在计数
 800169a:	68fa      	ldr	r2, [r7, #12]
 800169c:	69fb      	ldr	r3, [r7, #28]
 800169e:	429a      	cmp	r2, r3
 80016a0:	d0f8      	beq.n	8001694 <delay_us+0x40>
				{
			if (tnow < told)  //当前值小于开始数值，说明未计到0
 80016a2:	68fa      	ldr	r2, [r7, #12]
 80016a4:	69fb      	ldr	r3, [r7, #28]
 80016a6:	429a      	cmp	r2, r3
 80016a8:	d206      	bcs.n	80016b8 <delay_us+0x64>
				tcnt += told - tnow; //计数值=开始值-当前值
 80016aa:	69fa      	ldr	r2, [r7, #28]
 80016ac:	68fb      	ldr	r3, [r7, #12]
 80016ae:	1ad3      	subs	r3, r2, r3
 80016b0:	69ba      	ldr	r2, [r7, #24]
 80016b2:	4413      	add	r3, r2
 80016b4:	61bb      	str	r3, [r7, #24]
 80016b6:	e007      	b.n	80016c8 <delay_us+0x74>

			else
				//当前值大于开始数值，说明已计到0并重新计数
				tcnt += reload - tnow + told;   //计数值=重装载值-当前值+开始值  （
 80016b8:	697a      	ldr	r2, [r7, #20]
 80016ba:	68fb      	ldr	r3, [r7, #12]
 80016bc:	1ad2      	subs	r2, r2, r3
 80016be:	69fb      	ldr	r3, [r7, #28]
 80016c0:	4413      	add	r3, r2
 80016c2:	69ba      	ldr	r2, [r7, #24]
 80016c4:	4413      	add	r3, r2
 80016c6:	61bb      	str	r3, [r7, #24]
												//已从开始值计到0）

			told = tnow;   //更新开始值
 80016c8:	68fb      	ldr	r3, [r7, #12]
 80016ca:	61fb      	str	r3, [r7, #28]
			if (tcnt >= ticks)
 80016cc:	69ba      	ldr	r2, [r7, #24]
 80016ce:	693b      	ldr	r3, [r7, #16]
 80016d0:	429a      	cmp	r2, r3
 80016d2:	d200      	bcs.n	80016d6 <delay_us+0x82>
		tnow = SysTick->VAL; //获取当前数值寄存器值
 80016d4:	e7de      	b.n	8001694 <delay_us+0x40>
				break;  //时间超过/等于要延迟的时间,则退出.
 80016d6:	bf00      	nop
		}
	}
	xTaskResumeAll();	//恢复OS调度
 80016d8:	f008 f9b4 	bl	8009a44 <xTaskResumeAll>
}
 80016dc:	bf00      	nop
 80016de:	3720      	adds	r7, #32
 80016e0:	46bd      	mov	sp, r7
 80016e2:	bd80      	pop	{r7, pc}
 80016e4:	e000e010 	.word	0xe000e010
 80016e8:	20000614 	.word	0x20000614
 80016ec:	431bde83 	.word	0x431bde83

080016f0 <MX_GPIO_Init>:
        * Output
        * EVENT_OUT
        * EXTI
*/
void MX_GPIO_Init(void)
{
 80016f0:	b580      	push	{r7, lr}
 80016f2:	b088      	sub	sp, #32
 80016f4:	af00      	add	r7, sp, #0

  GPIO_InitTypeDef GPIO_InitStruct = {0};
 80016f6:	f107 0310 	add.w	r3, r7, #16
 80016fa:	2200      	movs	r2, #0
 80016fc:	601a      	str	r2, [r3, #0]
 80016fe:	605a      	str	r2, [r3, #4]
 8001700:	609a      	str	r2, [r3, #8]
 8001702:	60da      	str	r2, [r3, #12]

  /* GPIO Ports Clock Enable */
  __HAL_RCC_GPIOC_CLK_ENABLE();
 8001704:	4b4a      	ldr	r3, [pc, #296]	@ (8001830 <MX_GPIO_Init+0x140>)
 8001706:	699b      	ldr	r3, [r3, #24]
 8001708:	4a49      	ldr	r2, [pc, #292]	@ (8001830 <MX_GPIO_Init+0x140>)
 800170a:	f043 0310 	orr.w	r3, r3, #16
 800170e:	6193      	str	r3, [r2, #24]
 8001710:	4b47      	ldr	r3, [pc, #284]	@ (8001830 <MX_GPIO_Init+0x140>)
 8001712:	699b      	ldr	r3, [r3, #24]
 8001714:	f003 0310 	and.w	r3, r3, #16
 8001718:	60fb      	str	r3, [r7, #12]
 800171a:	68fb      	ldr	r3, [r7, #12]
  __HAL_RCC_GPIOD_CLK_ENABLE();
 800171c:	4b44      	ldr	r3, [pc, #272]	@ (8001830 <MX_GPIO_Init+0x140>)
 800171e:	699b      	ldr	r3, [r3, #24]
 8001720:	4a43      	ldr	r2, [pc, #268]	@ (8001830 <MX_GPIO_Init+0x140>)
 8001722:	f043 0320 	orr.w	r3, r3, #32
 8001726:	6193      	str	r3, [r2, #24]
 8001728:	4b41      	ldr	r3, [pc, #260]	@ (8001830 <MX_GPIO_Init+0x140>)
 800172a:	699b      	ldr	r3, [r3, #24]
 800172c:	f003 0320 	and.w	r3, r3, #32
 8001730:	60bb      	str	r3, [r7, #8]
 8001732:	68bb      	ldr	r3, [r7, #8]
  __HAL_RCC_GPIOA_CLK_ENABLE();
 8001734:	4b3e      	ldr	r3, [pc, #248]	@ (8001830 <MX_GPIO_Init+0x140>)
 8001736:	699b      	ldr	r3, [r3, #24]
 8001738:	4a3d      	ldr	r2, [pc, #244]	@ (8001830 <MX_GPIO_Init+0x140>)
 800173a:	f043 0304 	orr.w	r3, r3, #4
 800173e:	6193      	str	r3, [r2, #24]
 8001740:	4b3b      	ldr	r3, [pc, #236]	@ (8001830 <MX_GPIO_Init+0x140>)
 8001742:	699b      	ldr	r3, [r3, #24]
 8001744:	f003 0304 	and.w	r3, r3, #4
 8001748:	607b      	str	r3, [r7, #4]
 800174a:	687b      	ldr	r3, [r7, #4]
  __HAL_RCC_GPIOB_CLK_ENABLE();
 800174c:	4b38      	ldr	r3, [pc, #224]	@ (8001830 <MX_GPIO_Init+0x140>)
 800174e:	699b      	ldr	r3, [r3, #24]
 8001750:	4a37      	ldr	r2, [pc, #220]	@ (8001830 <MX_GPIO_Init+0x140>)
 8001752:	f043 0308 	orr.w	r3, r3, #8
 8001756:	6193      	str	r3, [r2, #24]
 8001758:	4b35      	ldr	r3, [pc, #212]	@ (8001830 <MX_GPIO_Init+0x140>)
 800175a:	699b      	ldr	r3, [r3, #24]
 800175c:	f003 0308 	and.w	r3, r3, #8
 8001760:	603b      	str	r3, [r7, #0]
 8001762:	683b      	ldr	r3, [r7, #0]

  /*Configure GPIO pin Output Level */
  HAL_GPIO_WritePin(LCD_RST_GPIO_Port, LCD_RST_Pin, GPIO_PIN_RESET);
 8001764:	2200      	movs	r2, #0
 8001766:	f44f 5100 	mov.w	r1, #8192	@ 0x2000
 800176a:	4832      	ldr	r0, [pc, #200]	@ (8001834 <MX_GPIO_Init+0x144>)
 800176c:	f002 fd3a 	bl	80041e4 <HAL_GPIO_WritePin>

  /*Configure GPIO pin Output Level */
  HAL_GPIO_WritePin(LCD_DC_GPIO_Port, LCD_DC_Pin, GPIO_PIN_RESET);
 8001770:	2200      	movs	r2, #0
 8001772:	2110      	movs	r1, #16
 8001774:	4830      	ldr	r0, [pc, #192]	@ (8001838 <MX_GPIO_Init+0x148>)
 8001776:	f002 fd35 	bl	80041e4 <HAL_GPIO_WritePin>

  /*Configure GPIO pin Output Level */
  HAL_GPIO_WritePin(GPIOB, EN_8266_Pin|LCD1_CS_Pin|GPIO_PIN_7, GPIO_PIN_RESET);
 800177a:	2200      	movs	r2, #0
 800177c:	f44f 5185 	mov.w	r1, #4256	@ 0x10a0
 8001780:	482e      	ldr	r0, [pc, #184]	@ (800183c <MX_GPIO_Init+0x14c>)
 8001782:	f002 fd2f 	bl	80041e4 <HAL_GPIO_WritePin>

  /*Configure GPIO pin : PtPin */
  GPIO_InitStruct.Pin = LCD_RST_Pin;
 8001786:	f44f 5300 	mov.w	r3, #8192	@ 0x2000
 800178a:	613b      	str	r3, [r7, #16]
  GPIO_InitStruct.Mode = GPIO_MODE_OUTPUT_PP;
 800178c:	2301      	movs	r3, #1
 800178e:	617b      	str	r3, [r7, #20]
  GPIO_InitStruct.Pull = GPIO_NOPULL;
 8001790:	2300      	movs	r3, #0
 8001792:	61bb      	str	r3, [r7, #24]
  GPIO_InitStruct.Speed = GPIO_SPEED_FREQ_LOW;
 8001794:	2302      	movs	r3, #2
 8001796:	61fb      	str	r3, [r7, #28]
  HAL_GPIO_Init(LCD_RST_GPIO_Port, &GPIO_InitStruct);
 8001798:	f107 0310 	add.w	r3, r7, #16
 800179c:	4619      	mov	r1, r3
 800179e:	4825      	ldr	r0, [pc, #148]	@ (8001834 <MX_GPIO_Init+0x144>)
 80017a0:	f002 fb9c 	bl	8003edc <HAL_GPIO_Init>

  /*Configure GPIO pin : PtPin */
  GPIO_InitStruct.Pin = LCD_DC_Pin;
 80017a4:	2310      	movs	r3, #16
 80017a6:	613b      	str	r3, [r7, #16]
  GPIO_InitStruct.Mode = GPIO_MODE_OUTPUT_PP;
 80017a8:	2301      	movs	r3, #1
 80017aa:	617b      	str	r3, [r7, #20]
  GPIO_InitStruct.Pull = GPIO_NOPULL;
 80017ac:	2300      	movs	r3, #0
 80017ae:	61bb      	str	r3, [r7, #24]
  GPIO_InitStruct.Speed = GPIO_SPEED_FREQ_LOW;
 80017b0:	2302      	movs	r3, #2
 80017b2:	61fb      	str	r3, [r7, #28]
  HAL_GPIO_Init(LCD_DC_GPIO_Port, &GPIO_InitStruct);
 80017b4:	f107 0310 	add.w	r3, r7, #16
 80017b8:	4619      	mov	r1, r3
 80017ba:	481f      	ldr	r0, [pc, #124]	@ (8001838 <MX_GPIO_Init+0x148>)
 80017bc:	f002 fb8e 	bl	8003edc <HAL_GPIO_Init>

  /*Configure GPIO pins : PBPin PBPin PBPin */
  GPIO_InitStruct.Pin = MCU_2_BOOT1_Pin|KEY_T_Pin|KEY_1_Pin;
 80017c0:	231c      	movs	r3, #28
 80017c2:	613b      	str	r3, [r7, #16]
  GPIO_InitStruct.Mode = GPIO_MODE_INPUT;
 80017c4:	2300      	movs	r3, #0
 80017c6:	617b      	str	r3, [r7, #20]
  GPIO_InitStruct.Pull = GPIO_NOPULL;
 80017c8:	2300      	movs	r3, #0
 80017ca:	61bb      	str	r3, [r7, #24]
  HAL_GPIO_Init(GPIOB, &GPIO_InitStruct);
 80017cc:	f107 0310 	add.w	r3, r7, #16
 80017d0:	4619      	mov	r1, r3
 80017d2:	481a      	ldr	r0, [pc, #104]	@ (800183c <MX_GPIO_Init+0x14c>)
 80017d4:	f002 fb82 	bl	8003edc <HAL_GPIO_Init>

  /*Configure GPIO pins : PBPin PBPin PB7 */
  GPIO_InitStruct.Pin = EN_8266_Pin|LCD1_CS_Pin|GPIO_PIN_7;
 80017d8:	f44f 5385 	mov.w	r3, #4256	@ 0x10a0
 80017dc:	613b      	str	r3, [r7, #16]
  GPIO_InitStruct.Mode = GPIO_MODE_OUTPUT_PP;
 80017de:	2301      	movs	r3, #1
 80017e0:	617b      	str	r3, [r7, #20]
  GPIO_InitStruct.Pull = GPIO_NOPULL;
 80017e2:	2300      	movs	r3, #0
 80017e4:	61bb      	str	r3, [r7, #24]
  GPIO_InitStruct.Speed = GPIO_SPEED_FREQ_LOW;
 80017e6:	2302      	movs	r3, #2
 80017e8:	61fb      	str	r3, [r7, #28]
  HAL_GPIO_Init(GPIOB, &GPIO_InitStruct);
 80017ea:	f107 0310 	add.w	r3, r7, #16
 80017ee:	4619      	mov	r1, r3
 80017f0:	4812      	ldr	r0, [pc, #72]	@ (800183c <MX_GPIO_Init+0x14c>)
 80017f2:	f002 fb73 	bl	8003edc <HAL_GPIO_Init>

  /*Configure GPIO pin : PtPin */
  GPIO_InitStruct.Pin = VBAT_PACK_CHARGING_Pin;
 80017f6:	f44f 7380 	mov.w	r3, #256	@ 0x100
 80017fa:	613b      	str	r3, [r7, #16]
  GPIO_InitStruct.Mode = GPIO_MODE_INPUT;
 80017fc:	2300      	movs	r3, #0
 80017fe:	617b      	str	r3, [r7, #20]
  GPIO_InitStruct.Pull = GPIO_NOPULL;
 8001800:	2300      	movs	r3, #0
 8001802:	61bb      	str	r3, [r7, #24]
  HAL_GPIO_Init(VBAT_PACK_CHARGING_GPIO_Port, &GPIO_InitStruct);
 8001804:	f107 0310 	add.w	r3, r7, #16
 8001808:	4619      	mov	r1, r3
 800180a:	480b      	ldr	r0, [pc, #44]	@ (8001838 <MX_GPIO_Init+0x148>)
 800180c:	f002 fb66 	bl	8003edc <HAL_GPIO_Init>

  /*Configure GPIO pin : PB6 */
  GPIO_InitStruct.Pin = GPIO_PIN_6;
 8001810:	2340      	movs	r3, #64	@ 0x40
 8001812:	613b      	str	r3, [r7, #16]
  GPIO_InitStruct.Mode = GPIO_MODE_IT_RISING_FALLING;
 8001814:	4b0a      	ldr	r3, [pc, #40]	@ (8001840 <MX_GPIO_Init+0x150>)
 8001816:	617b      	str	r3, [r7, #20]
  GPIO_InitStruct.Pull = GPIO_NOPULL;
 8001818:	2300      	movs	r3, #0
 800181a:	61bb      	str	r3, [r7, #24]
  HAL_GPIO_Init(GPIOB, &GPIO_InitStruct);
 800181c:	f107 0310 	add.w	r3, r7, #16
 8001820:	4619      	mov	r1, r3
 8001822:	4806      	ldr	r0, [pc, #24]	@ (800183c <MX_GPIO_Init+0x14c>)
 8001824:	f002 fb5a 	bl	8003edc <HAL_GPIO_Init>

}
 8001828:	bf00      	nop
 800182a:	3720      	adds	r7, #32
 800182c:	46bd      	mov	sp, r7
 800182e:	bd80      	pop	{r7, pc}
 8001830:	40021000 	.word	0x40021000
 8001834:	40011000 	.word	0x40011000
 8001838:	40010800 	.word	0x40010800
 800183c:	40010c00 	.word	0x40010c00
 8001840:	10310000 	.word	0x10310000

08001844 <MX_I2C1_Init>:
I2C_HandleTypeDef hi2c1;
I2C_HandleTypeDef hi2c2;

/* I2C1 init function */
void MX_I2C1_Init(void)
{
 8001844:	b580      	push	{r7, lr}
 8001846:	af00      	add	r7, sp, #0
  /* USER CODE END I2C1_Init 0 */

  /* USER CODE BEGIN I2C1_Init 1 */

  /* USER CODE END I2C1_Init 1 */
  hi2c1.Instance = I2C1;
 8001848:	4b12      	ldr	r3, [pc, #72]	@ (8001894 <MX_I2C1_Init+0x50>)
 800184a:	4a13      	ldr	r2, [pc, #76]	@ (8001898 <MX_I2C1_Init+0x54>)
 800184c:	601a      	str	r2, [r3, #0]
  hi2c1.Init.ClockSpeed = 100000;
 800184e:	4b11      	ldr	r3, [pc, #68]	@ (8001894 <MX_I2C1_Init+0x50>)
 8001850:	4a12      	ldr	r2, [pc, #72]	@ (800189c <MX_I2C1_Init+0x58>)
 8001852:	605a      	str	r2, [r3, #4]
  hi2c1.Init.DutyCycle = I2C_DUTYCYCLE_2;
 8001854:	4b0f      	ldr	r3, [pc, #60]	@ (8001894 <MX_I2C1_Init+0x50>)
 8001856:	2200      	movs	r2, #0
 8001858:	609a      	str	r2, [r3, #8]
  hi2c1.Init.OwnAddress1 = 0;
 800185a:	4b0e      	ldr	r3, [pc, #56]	@ (8001894 <MX_I2C1_Init+0x50>)
 800185c:	2200      	movs	r2, #0
 800185e:	60da      	str	r2, [r3, #12]
  hi2c1.Init.AddressingMode = I2C_ADDRESSINGMODE_7BIT;
 8001860:	4b0c      	ldr	r3, [pc, #48]	@ (8001894 <MX_I2C1_Init+0x50>)
 8001862:	f44f 4280 	mov.w	r2, #16384	@ 0x4000
 8001866:	611a      	str	r2, [r3, #16]
  hi2c1.Init.DualAddressMode = I2C_DUALADDRESS_DISABLE;
 8001868:	4b0a      	ldr	r3, [pc, #40]	@ (8001894 <MX_I2C1_Init+0x50>)
 800186a:	2200      	movs	r2, #0
 800186c:	615a      	str	r2, [r3, #20]
  hi2c1.Init.OwnAddress2 = 0;
 800186e:	4b09      	ldr	r3, [pc, #36]	@ (8001894 <MX_I2C1_Init+0x50>)
 8001870:	2200      	movs	r2, #0
 8001872:	619a      	str	r2, [r3, #24]
  hi2c1.Init.GeneralCallMode = I2C_GENERALCALL_DISABLE;
 8001874:	4b07      	ldr	r3, [pc, #28]	@ (8001894 <MX_I2C1_Init+0x50>)
 8001876:	2200      	movs	r2, #0
 8001878:	61da      	str	r2, [r3, #28]
  hi2c1.Init.NoStretchMode = I2C_NOSTRETCH_DISABLE;
 800187a:	4b06      	ldr	r3, [pc, #24]	@ (8001894 <MX_I2C1_Init+0x50>)
 800187c:	2200      	movs	r2, #0
 800187e:	621a      	str	r2, [r3, #32]
  if (HAL_I2C_Init(&hi2c1) != HAL_OK)
 8001880:	4804      	ldr	r0, [pc, #16]	@ (8001894 <MX_I2C1_Init+0x50>)
 8001882:	f002 fcc7 	bl	8004214 <HAL_I2C_Init>
 8001886:	4603      	mov	r3, r0
 8001888:	2b00      	cmp	r3, #0
 800188a:	d001      	beq.n	8001890 <MX_I2C1_Init+0x4c>
  {
    Error_Handler();
 800188c:	f000 f984 	bl	8001b98 <Error_Handler>
  }
  /* USER CODE BEGIN I2C1_Init 2 */

  /* USER CODE END I2C1_Init 2 */

}
 8001890:	bf00      	nop
 8001892:	bd80      	pop	{r7, pc}
 8001894:	20000808 	.word	0x20000808
 8001898:	40005400 	.word	0x40005400
 800189c:	000186a0 	.word	0x000186a0

080018a0 <MX_I2C2_Init>:
/* I2C2 init function */
void MX_I2C2_Init(void)
{
 80018a0:	b580      	push	{r7, lr}
 80018a2:	af00      	add	r7, sp, #0
  /* USER CODE END I2C2_Init 0 */

  /* USER CODE BEGIN I2C2_Init 1 */

  /* USER CODE END I2C2_Init 1 */
  hi2c2.Instance = I2C2;
 80018a4:	4b12      	ldr	r3, [pc, #72]	@ (80018f0 <MX_I2C2_Init+0x50>)
 80018a6:	4a13      	ldr	r2, [pc, #76]	@ (80018f4 <MX_I2C2_Init+0x54>)
 80018a8:	601a      	str	r2, [r3, #0]
  hi2c2.Init.ClockSpeed = 400000;
 80018aa:	4b11      	ldr	r3, [pc, #68]	@ (80018f0 <MX_I2C2_Init+0x50>)
 80018ac:	4a12      	ldr	r2, [pc, #72]	@ (80018f8 <MX_I2C2_Init+0x58>)
 80018ae:	605a      	str	r2, [r3, #4]
  hi2c2.Init.DutyCycle = I2C_DUTYCYCLE_2;
 80018b0:	4b0f      	ldr	r3, [pc, #60]	@ (80018f0 <MX_I2C2_Init+0x50>)
 80018b2:	2200      	movs	r2, #0
 80018b4:	609a      	str	r2, [r3, #8]
  hi2c2.Init.OwnAddress1 = 0;
 80018b6:	4b0e      	ldr	r3, [pc, #56]	@ (80018f0 <MX_I2C2_Init+0x50>)
 80018b8:	2200      	movs	r2, #0
 80018ba:	60da      	str	r2, [r3, #12]
  hi2c2.Init.AddressingMode = I2C_ADDRESSINGMODE_7BIT;
 80018bc:	4b0c      	ldr	r3, [pc, #48]	@ (80018f0 <MX_I2C2_Init+0x50>)
 80018be:	f44f 4280 	mov.w	r2, #16384	@ 0x4000
 80018c2:	611a      	str	r2, [r3, #16]
  hi2c2.Init.DualAddressMode = I2C_DUALADDRESS_DISABLE;
 80018c4:	4b0a      	ldr	r3, [pc, #40]	@ (80018f0 <MX_I2C2_Init+0x50>)
 80018c6:	2200      	movs	r2, #0
 80018c8:	615a      	str	r2, [r3, #20]
  hi2c2.Init.OwnAddress2 = 0;
 80018ca:	4b09      	ldr	r3, [pc, #36]	@ (80018f0 <MX_I2C2_Init+0x50>)
 80018cc:	2200      	movs	r2, #0
 80018ce:	619a      	str	r2, [r3, #24]
  hi2c2.Init.GeneralCallMode = I2C_GENERALCALL_DISABLE;
 80018d0:	4b07      	ldr	r3, [pc, #28]	@ (80018f0 <MX_I2C2_Init+0x50>)
 80018d2:	2200      	movs	r2, #0
 80018d4:	61da      	str	r2, [r3, #28]
  hi2c2.Init.NoStretchMode = I2C_NOSTRETCH_DISABLE;
 80018d6:	4b06      	ldr	r3, [pc, #24]	@ (80018f0 <MX_I2C2_Init+0x50>)
 80018d8:	2200      	movs	r2, #0
 80018da:	621a      	str	r2, [r3, #32]
  if (HAL_I2C_Init(&hi2c2) != HAL_OK)
 80018dc:	4804      	ldr	r0, [pc, #16]	@ (80018f0 <MX_I2C2_Init+0x50>)
 80018de:	f002 fc99 	bl	8004214 <HAL_I2C_Init>
 80018e2:	4603      	mov	r3, r0
 80018e4:	2b00      	cmp	r3, #0
 80018e6:	d001      	beq.n	80018ec <MX_I2C2_Init+0x4c>
  {
    Error_Handler();
 80018e8:	f000 f956 	bl	8001b98 <Error_Handler>
  }
  /* USER CODE BEGIN I2C2_Init 2 */

  /* USER CODE END I2C2_Init 2 */

}
 80018ec:	bf00      	nop
 80018ee:	bd80      	pop	{r7, pc}
 80018f0:	2000085c 	.word	0x2000085c
 80018f4:	40005800 	.word	0x40005800
 80018f8:	00061a80 	.word	0x00061a80

080018fc <HAL_I2C_MspInit>:

void HAL_I2C_MspInit(I2C_HandleTypeDef* i2cHandle)
{
 80018fc:	b580      	push	{r7, lr}
 80018fe:	b08c      	sub	sp, #48	@ 0x30
 8001900:	af00      	add	r7, sp, #0
 8001902:	6078      	str	r0, [r7, #4]

  GPIO_InitTypeDef GPIO_InitStruct = {0};
 8001904:	f107 031c 	add.w	r3, r7, #28
 8001908:	2200      	movs	r2, #0
 800190a:	601a      	str	r2, [r3, #0]
 800190c:	605a      	str	r2, [r3, #4]
 800190e:	609a      	str	r2, [r3, #8]
 8001910:	60da      	str	r2, [r3, #12]
  if(i2cHandle->Instance==I2C1)
 8001912:	687b      	ldr	r3, [r7, #4]
 8001914:	681b      	ldr	r3, [r3, #0]
 8001916:	4a32      	ldr	r2, [pc, #200]	@ (80019e0 <HAL_I2C_MspInit+0xe4>)
 8001918:	4293      	cmp	r3, r2
 800191a:	d133      	bne.n	8001984 <HAL_I2C_MspInit+0x88>
  {
  /* USER CODE BEGIN I2C1_MspInit 0 */

  /* USER CODE END I2C1_MspInit 0 */

    __HAL_RCC_GPIOB_CLK_ENABLE();
 800191c:	4b31      	ldr	r3, [pc, #196]	@ (80019e4 <HAL_I2C_MspInit+0xe8>)
 800191e:	699b      	ldr	r3, [r3, #24]
 8001920:	4a30      	ldr	r2, [pc, #192]	@ (80019e4 <HAL_I2C_MspInit+0xe8>)
 8001922:	f043 0308 	orr.w	r3, r3, #8
 8001926:	6193      	str	r3, [r2, #24]
 8001928:	4b2e      	ldr	r3, [pc, #184]	@ (80019e4 <HAL_I2C_MspInit+0xe8>)
 800192a:	699b      	ldr	r3, [r3, #24]
 800192c:	f003 0308 	and.w	r3, r3, #8
 8001930:	61bb      	str	r3, [r7, #24]
 8001932:	69bb      	ldr	r3, [r7, #24]
    /**I2C1 GPIO Configuration
    PB8     ------> I2C1_SCL
    PB9     ------> I2C1_SDA
    */
    GPIO_InitStruct.Pin = GPIO_PIN_8|GPIO_PIN_9;
 8001934:	f44f 7340 	mov.w	r3, #768	@ 0x300
 8001938:	61fb      	str	r3, [r7, #28]
    GPIO_InitStruct.Mode = GPIO_MODE_AF_OD;
 800193a:	2312      	movs	r3, #18
 800193c:	623b      	str	r3, [r7, #32]
    GPIO_InitStruct.Speed = GPIO_SPEED_FREQ_HIGH;
 800193e:	2303      	movs	r3, #3
 8001940:	62bb      	str	r3, [r7, #40]	@ 0x28
    HAL_GPIO_Init(GPIOB, &GPIO_InitStruct);
 8001942:	f107 031c 	add.w	r3, r7, #28
 8001946:	4619      	mov	r1, r3
 8001948:	4827      	ldr	r0, [pc, #156]	@ (80019e8 <HAL_I2C_MspInit+0xec>)
 800194a:	f002 fac7 	bl	8003edc <HAL_GPIO_Init>

    __HAL_AFIO_REMAP_I2C1_ENABLE();
 800194e:	4b27      	ldr	r3, [pc, #156]	@ (80019ec <HAL_I2C_MspInit+0xf0>)
 8001950:	685b      	ldr	r3, [r3, #4]
 8001952:	62fb      	str	r3, [r7, #44]	@ 0x2c
 8001954:	6afb      	ldr	r3, [r7, #44]	@ 0x2c
 8001956:	f043 63e0 	orr.w	r3, r3, #117440512	@ 0x7000000
 800195a:	62fb      	str	r3, [r7, #44]	@ 0x2c
 800195c:	6afb      	ldr	r3, [r7, #44]	@ 0x2c
 800195e:	f043 0302 	orr.w	r3, r3, #2
 8001962:	62fb      	str	r3, [r7, #44]	@ 0x2c
 8001964:	4a21      	ldr	r2, [pc, #132]	@ (80019ec <HAL_I2C_MspInit+0xf0>)
 8001966:	6afb      	ldr	r3, [r7, #44]	@ 0x2c
 8001968:	6053      	str	r3, [r2, #4]

    /* I2C1 clock enable */
    __HAL_RCC_I2C1_CLK_ENABLE();
 800196a:	4b1e      	ldr	r3, [pc, #120]	@ (80019e4 <HAL_I2C_MspInit+0xe8>)
 800196c:	69db      	ldr	r3, [r3, #28]
 800196e:	4a1d      	ldr	r2, [pc, #116]	@ (80019e4 <HAL_I2C_MspInit+0xe8>)
 8001970:	f443 1300 	orr.w	r3, r3, #2097152	@ 0x200000
 8001974:	61d3      	str	r3, [r2, #28]
 8001976:	4b1b      	ldr	r3, [pc, #108]	@ (80019e4 <HAL_I2C_MspInit+0xe8>)
 8001978:	69db      	ldr	r3, [r3, #28]
 800197a:	f403 1300 	and.w	r3, r3, #2097152	@ 0x200000
 800197e:	617b      	str	r3, [r7, #20]
 8001980:	697b      	ldr	r3, [r7, #20]
    __HAL_RCC_I2C2_CLK_ENABLE();
  /* USER CODE BEGIN I2C2_MspInit 1 */

  /* USER CODE END I2C2_MspInit 1 */
  }
}
 8001982:	e029      	b.n	80019d8 <HAL_I2C_MspInit+0xdc>
  else if(i2cHandle->Instance==I2C2)
 8001984:	687b      	ldr	r3, [r7, #4]
 8001986:	681b      	ldr	r3, [r3, #0]
 8001988:	4a19      	ldr	r2, [pc, #100]	@ (80019f0 <HAL_I2C_MspInit+0xf4>)
 800198a:	4293      	cmp	r3, r2
 800198c:	d124      	bne.n	80019d8 <HAL_I2C_MspInit+0xdc>
    __HAL_RCC_GPIOB_CLK_ENABLE();
 800198e:	4b15      	ldr	r3, [pc, #84]	@ (80019e4 <HAL_I2C_MspInit+0xe8>)
 8001990:	699b      	ldr	r3, [r3, #24]
 8001992:	4a14      	ldr	r2, [pc, #80]	@ (80019e4 <HAL_I2C_MspInit+0xe8>)
 8001994:	f043 0308 	orr.w	r3, r3, #8
 8001998:	6193      	str	r3, [r2, #24]
 800199a:	4b12      	ldr	r3, [pc, #72]	@ (80019e4 <HAL_I2C_MspInit+0xe8>)
 800199c:	699b      	ldr	r3, [r3, #24]
 800199e:	f003 0308 	and.w	r3, r3, #8
 80019a2:	613b      	str	r3, [r7, #16]
 80019a4:	693b      	ldr	r3, [r7, #16]
    GPIO_InitStruct.Pin = GPIO_PIN_10|GPIO_PIN_11;
 80019a6:	f44f 6340 	mov.w	r3, #3072	@ 0xc00
 80019aa:	61fb      	str	r3, [r7, #28]
    GPIO_InitStruct.Mode = GPIO_MODE_AF_OD;
 80019ac:	2312      	movs	r3, #18
 80019ae:	623b      	str	r3, [r7, #32]
    GPIO_InitStruct.Speed = GPIO_SPEED_FREQ_HIGH;
 80019b0:	2303      	movs	r3, #3
 80019b2:	62bb      	str	r3, [r7, #40]	@ 0x28
    HAL_GPIO_Init(GPIOB, &GPIO_InitStruct);
 80019b4:	f107 031c 	add.w	r3, r7, #28
 80019b8:	4619      	mov	r1, r3
 80019ba:	480b      	ldr	r0, [pc, #44]	@ (80019e8 <HAL_I2C_MspInit+0xec>)
 80019bc:	f002 fa8e 	bl	8003edc <HAL_GPIO_Init>
    __HAL_RCC_I2C2_CLK_ENABLE();
 80019c0:	4b08      	ldr	r3, [pc, #32]	@ (80019e4 <HAL_I2C_MspInit+0xe8>)
 80019c2:	69db      	ldr	r3, [r3, #28]
 80019c4:	4a07      	ldr	r2, [pc, #28]	@ (80019e4 <HAL_I2C_MspInit+0xe8>)
 80019c6:	f443 0380 	orr.w	r3, r3, #4194304	@ 0x400000
 80019ca:	61d3      	str	r3, [r2, #28]
 80019cc:	4b05      	ldr	r3, [pc, #20]	@ (80019e4 <HAL_I2C_MspInit+0xe8>)
 80019ce:	69db      	ldr	r3, [r3, #28]
 80019d0:	f403 0380 	and.w	r3, r3, #4194304	@ 0x400000
 80019d4:	60fb      	str	r3, [r7, #12]
 80019d6:	68fb      	ldr	r3, [r7, #12]
}
 80019d8:	bf00      	nop
 80019da:	3730      	adds	r7, #48	@ 0x30
 80019dc:	46bd      	mov	sp, r7
 80019de:	bd80      	pop	{r7, pc}
 80019e0:	40005400 	.word	0x40005400
 80019e4:	40021000 	.word	0x40021000
 80019e8:	40010c00 	.word	0x40010c00
 80019ec:	40010000 	.word	0x40010000
 80019f0:	40005800 	.word	0x40005800

080019f4 <main>:
/**
  * @brief  The application entry point.
  * @retval int
  */
int main(void)
{
 80019f4:	b580      	push	{r7, lr}
 80019f6:	b084      	sub	sp, #16
 80019f8:	af04      	add	r7, sp, #16
  /* USER CODE END 1 */

  /* MCU Configuration--------------------------------------------------------*/

  /* Reset of all peripherals, Initializes the Flash interface and the Systick. */
  HAL_Init();
 80019fa:	f001 fa45 	bl	8002e88 <HAL_Init>
  /* USER CODE BEGIN Init */

  /* USER CODE END Init */

  /* Configure the system clock */
  SystemClock_Config();
 80019fe:	f000 f85b 	bl	8001ab8 <SystemClock_Config>
  /* USER CODE BEGIN SysInit */

  /* USER CODE END SysInit */

  /* Initialize all configured peripherals */
  MX_GPIO_Init();
 8001a02:	f7ff fe75 	bl	80016f0 <MX_GPIO_Init>
  MX_DMA_Init();
 8001a06:	f7ff fa87 	bl	8000f18 <MX_DMA_Init>
  MX_I2C2_Init();
 8001a0a:	f7ff ff49 	bl	80018a0 <MX_I2C2_Init>
  MX_SPI2_Init();
 8001a0e:	f000 fa15 	bl	8001e3c <MX_SPI2_Init>
  MX_USART2_UART_Init();
 8001a12:	f001 f925 	bl	8002c60 <MX_USART2_UART_Init>
  MX_TIM2_Init();
 8001a16:	f000 ffa1 	bl	800295c <MX_TIM2_Init>
  MX_TIM3_Init();
 8001a1a:	f000 fff7 	bl	8002a0c <MX_TIM3_Init>
  MX_USART1_UART_Init();
 8001a1e:	f001 f8f5 	bl	8002c0c <MX_USART1_UART_Init>
  MX_SPI1_Init();
 8001a22:	f000 f9d3 	bl	8001dcc <MX_SPI1_Init>
  MX_USB_PCD_Init();
 8001a26:	f001 f9c9 	bl	8002dbc <MX_USB_PCD_Init>
  MX_I2C1_Init();
 8001a2a:	f7ff ff0b 	bl	8001844 <MX_I2C1_Init>
  MX_ADC1_Init();
 8001a2e:	f7ff f89b 	bl	8000b68 <MX_ADC1_Init>
  MX_FATFS_Init();
 8001a32:	f006 f8fd 	bl	8007c30 <MX_FATFS_Init>
  MX_ADC2_Init();
 8001a36:	f7ff f8d5 	bl	8000be4 <MX_ADC2_Init>
  /* USER CODE BEGIN 2 */

	/* 串口 1debug */
//	HAL_UART_Transmit(&huart1, "INIT OK\n", 8, 0xffff);

	HAL_TIM_PWM_Start(&htim2, TIM_CHANNEL_1);
 8001a3a:	2100      	movs	r1, #0
 8001a3c:	4818      	ldr	r0, [pc, #96]	@ (8001aa0 <main+0xac>)
 8001a3e:	f005 f955 	bl	8006cec <HAL_TIM_PWM_Start>
	/* 锁住 */
//	HAL_GPIO_WritePin(GPIOB, GPIO_PIN_7, GPIO_PIN_SET);
	HAL_GPIO_WritePin(EN_8266_GPIO_Port, EN_8266_Pin, GPIO_PIN_RESET);
 8001a42:	2200      	movs	r2, #0
 8001a44:	f44f 5180 	mov.w	r1, #4096	@ 0x1000
 8001a48:	4816      	ldr	r0, [pc, #88]	@ (8001aa4 <main+0xb0>)
 8001a4a:	f002 fbcb 	bl	80041e4 <HAL_GPIO_WritePin>

	/* ADC校准 */
	HAL_ADCEx_Calibration_Start(&hadc1);
 8001a4e:	4816      	ldr	r0, [pc, #88]	@ (8001aa8 <main+0xb4>)
 8001a50:	f001 fec8 	bl	80037e4 <HAL_ADCEx_Calibration_Start>
	/* 串口中断开启接收长度 1 */
//	HAL_UART_Receive_IT(&huart2, &USART_RX_ONE_LINE_LEN, 1);
	/* 解析json */
//	json_parse(&USART_RX_LINE);
	/* 设置背光 */
	pwmVal = 40000;
 8001a54:	4b15      	ldr	r3, [pc, #84]	@ (8001aac <main+0xb8>)
 8001a56:	f649 4240 	movw	r2, #40000	@ 0x9c40
 8001a5a:	601a      	str	r2, [r3, #0]
	/* 调背光 1 -> 3V3 -> 0V | 1400 -> 0.01V -> 3V3 */
	TIM2->CCR1 = pwmVal;
 8001a5c:	f04f 4280 	mov.w	r2, #1073741824	@ 0x40000000
 8001a60:	4b12      	ldr	r3, [pc, #72]	@ (8001aac <main+0xb8>)
 8001a62:	681b      	ldr	r3, [r3, #0]
 8001a64:	6353      	str	r3, [r2, #52]	@ 0x34
	/* 初始化显示屏 */
	ST7789_Init();
 8001a66:	f000 fbbf 	bl	80021e8 <ST7789_Init>
	ST7789_WriteString(30, 30, "MPU6050_Init...", Font_11x18, RED, BLACK);
 8001a6a:	4b11      	ldr	r3, [pc, #68]	@ (8001ab0 <main+0xbc>)
 8001a6c:	2200      	movs	r2, #0
 8001a6e:	9202      	str	r2, [sp, #8]
 8001a70:	f44f 4278 	mov.w	r2, #63488	@ 0xf800
 8001a74:	9201      	str	r2, [sp, #4]
 8001a76:	685a      	ldr	r2, [r3, #4]
 8001a78:	9200      	str	r2, [sp, #0]
 8001a7a:	681b      	ldr	r3, [r3, #0]
 8001a7c:	4a0d      	ldr	r2, [pc, #52]	@ (8001ab4 <main+0xc0>)
 8001a7e:	211e      	movs	r1, #30
 8001a80:	201e      	movs	r0, #30
 8001a82:	f000 fdad 	bl	80025e0 <ST7789_WriteString>
	BSP_MPU6050_Init();
 8001a86:	f7ff f9af 	bl	8000de8 <BSP_MPU6050_Init>
	ST7789_Fill_Color(BLACK);
 8001a8a:	2000      	movs	r0, #0
 8001a8c:	f000 fc54 	bl	8002338 <ST7789_Fill_Color>
  /* USER CODE END 2 */

  /* Init scheduler */
  osKernelInitialize();
 8001a90:	f006 fe5a 	bl	8008748 <osKernelInitialize>

  /* Call init function for freertos objects (in cmsis_os2.c) */
  MX_FREERTOS_Init();
 8001a94:	f7ff fa5e 	bl	8000f54 <MX_FREERTOS_Init>

  /* Start scheduler */
  osKernelStart();
 8001a98:	f006 fe88 	bl	80087ac <osKernelStart>

  /* We should never get here as control is now taken by the scheduler */

  /* Infinite loop */
  /* USER CODE BEGIN WHILE */
	while (1) {
 8001a9c:	bf00      	nop
 8001a9e:	e7fd      	b.n	8001a9c <main+0xa8>
 8001aa0:	20001358 	.word	0x20001358
 8001aa4:	40010c00 	.word	0x40010c00
 8001aa8:	200006a8 	.word	0x200006a8
 8001aac:	2000000c 	.word	0x2000000c
 8001ab0:	20000000 	.word	0x20000000
 8001ab4:	0800bd34 	.word	0x0800bd34

08001ab8 <SystemClock_Config>:
/**
  * @brief System Clock Configuration
  * @retval None
  */
void SystemClock_Config(void)
{
 8001ab8:	b580      	push	{r7, lr}
 8001aba:	b094      	sub	sp, #80	@ 0x50
 8001abc:	af00      	add	r7, sp, #0
  RCC_OscInitTypeDef RCC_OscInitStruct = {0};
 8001abe:	f107 0328 	add.w	r3, r7, #40	@ 0x28
 8001ac2:	2228      	movs	r2, #40	@ 0x28
 8001ac4:	2100      	movs	r1, #0
 8001ac6:	4618      	mov	r0, r3
 8001ac8:	f009 fc88 	bl	800b3dc <memset>
  RCC_ClkInitTypeDef RCC_ClkInitStruct = {0};
 8001acc:	f107 0314 	add.w	r3, r7, #20
 8001ad0:	2200      	movs	r2, #0
 8001ad2:	601a      	str	r2, [r3, #0]
 8001ad4:	605a      	str	r2, [r3, #4]
 8001ad6:	609a      	str	r2, [r3, #8]
 8001ad8:	60da      	str	r2, [r3, #12]
 8001ada:	611a      	str	r2, [r3, #16]
  RCC_PeriphCLKInitTypeDef PeriphClkInit = {0};
 8001adc:	1d3b      	adds	r3, r7, #4
 8001ade:	2200      	movs	r2, #0
 8001ae0:	601a      	str	r2, [r3, #0]
 8001ae2:	605a      	str	r2, [r3, #4]
 8001ae4:	609a      	str	r2, [r3, #8]
 8001ae6:	60da      	str	r2, [r3, #12]

  /** Initializes the RCC Oscillators according to the specified parameters
  * in the RCC_OscInitTypeDef structure.
  */
  RCC_OscInitStruct.OscillatorType = RCC_OSCILLATORTYPE_HSE;
 8001ae8:	2301      	movs	r3, #1
 8001aea:	62bb      	str	r3, [r7, #40]	@ 0x28
  RCC_OscInitStruct.HSEState = RCC_HSE_ON;
 8001aec:	f44f 3380 	mov.w	r3, #65536	@ 0x10000
 8001af0:	62fb      	str	r3, [r7, #44]	@ 0x2c
  RCC_OscInitStruct.HSEPredivValue = RCC_HSE_PREDIV_DIV2;
 8001af2:	f44f 3300 	mov.w	r3, #131072	@ 0x20000
 8001af6:	633b      	str	r3, [r7, #48]	@ 0x30
  RCC_OscInitStruct.HSIState = RCC_HSI_ON;
 8001af8:	2301      	movs	r3, #1
 8001afa:	63bb      	str	r3, [r7, #56]	@ 0x38
  RCC_OscInitStruct.PLL.PLLState = RCC_PLL_ON;
 8001afc:	2302      	movs	r3, #2
 8001afe:	647b      	str	r3, [r7, #68]	@ 0x44
  RCC_OscInitStruct.PLL.PLLSource = RCC_PLLSOURCE_HSE;
 8001b00:	f44f 3380 	mov.w	r3, #65536	@ 0x10000
 8001b04:	64bb      	str	r3, [r7, #72]	@ 0x48
  RCC_OscInitStruct.PLL.PLLMUL = RCC_PLL_MUL9;
 8001b06:	f44f 13e0 	mov.w	r3, #1835008	@ 0x1c0000
 8001b0a:	64fb      	str	r3, [r7, #76]	@ 0x4c
  if (HAL_RCC_OscConfig(&RCC_OscInitStruct) != HAL_OK)
 8001b0c:	f107 0328 	add.w	r3, r7, #40	@ 0x28
 8001b10:	4618      	mov	r0, r3
 8001b12:	f003 fcd7 	bl	80054c4 <HAL_RCC_OscConfig>
 8001b16:	4603      	mov	r3, r0
 8001b18:	2b00      	cmp	r3, #0
 8001b1a:	d001      	beq.n	8001b20 <SystemClock_Config+0x68>
  {
    Error_Handler();
 8001b1c:	f000 f83c 	bl	8001b98 <Error_Handler>
  }

  /** Initializes the CPU, AHB and APB buses clocks
  */
  RCC_ClkInitStruct.ClockType = RCC_CLOCKTYPE_HCLK|RCC_CLOCKTYPE_SYSCLK
 8001b20:	230f      	movs	r3, #15
 8001b22:	617b      	str	r3, [r7, #20]
                              |RCC_CLOCKTYPE_PCLK1|RCC_CLOCKTYPE_PCLK2;
  RCC_ClkInitStruct.SYSCLKSource = RCC_SYSCLKSOURCE_PLLCLK;
 8001b24:	2302      	movs	r3, #2
 8001b26:	61bb      	str	r3, [r7, #24]
  RCC_ClkInitStruct.AHBCLKDivider = RCC_SYSCLK_DIV1;
 8001b28:	2300      	movs	r3, #0
 8001b2a:	61fb      	str	r3, [r7, #28]
  RCC_ClkInitStruct.APB1CLKDivider = RCC_HCLK_DIV2;
 8001b2c:	f44f 6380 	mov.w	r3, #1024	@ 0x400
 8001b30:	623b      	str	r3, [r7, #32]
  RCC_ClkInitStruct.APB2CLKDivider = RCC_HCLK_DIV1;
 8001b32:	2300      	movs	r3, #0
 8001b34:	627b      	str	r3, [r7, #36]	@ 0x24

  if (HAL_RCC_ClockConfig(&RCC_ClkInitStruct, FLASH_LATENCY_2) != HAL_OK)
 8001b36:	f107 0314 	add.w	r3, r7, #20
 8001b3a:	2102      	movs	r1, #2
 8001b3c:	4618      	mov	r0, r3
 8001b3e:	f003 ff43 	bl	80059c8 <HAL_RCC_ClockConfig>
 8001b42:	4603      	mov	r3, r0
 8001b44:	2b00      	cmp	r3, #0
 8001b46:	d001      	beq.n	8001b4c <SystemClock_Config+0x94>
  {
    Error_Handler();
 8001b48:	f000 f826 	bl	8001b98 <Error_Handler>
  }
  PeriphClkInit.PeriphClockSelection = RCC_PERIPHCLK_ADC|RCC_PERIPHCLK_USB;
 8001b4c:	2312      	movs	r3, #18
 8001b4e:	607b      	str	r3, [r7, #4]
  PeriphClkInit.AdcClockSelection = RCC_ADCPCLK2_DIV6;
 8001b50:	f44f 4300 	mov.w	r3, #32768	@ 0x8000
 8001b54:	60fb      	str	r3, [r7, #12]
  PeriphClkInit.UsbClockSelection = RCC_USBCLKSOURCE_PLL_DIV1_5;
 8001b56:	2300      	movs	r3, #0
 8001b58:	613b      	str	r3, [r7, #16]
  if (HAL_RCCEx_PeriphCLKConfig(&PeriphClkInit) != HAL_OK)
 8001b5a:	1d3b      	adds	r3, r7, #4
 8001b5c:	4618      	mov	r0, r3
 8001b5e:	f004 f8f3 	bl	8005d48 <HAL_RCCEx_PeriphCLKConfig>
 8001b62:	4603      	mov	r3, r0
 8001b64:	2b00      	cmp	r3, #0
 8001b66:	d001      	beq.n	8001b6c <SystemClock_Config+0xb4>
  {
    Error_Handler();
 8001b68:	f000 f816 	bl	8001b98 <Error_Handler>
  }
}
 8001b6c:	bf00      	nop
 8001b6e:	3750      	adds	r7, #80	@ 0x50
 8001b70:	46bd      	mov	sp, r7
 8001b72:	bd80      	pop	{r7, pc}

08001b74 <HAL_TIM_PeriodElapsedCallback>:
  * a global variable "uwTick" used as application time base.
  * @param  htim : TIM handle
  * @retval None
  */
void HAL_TIM_PeriodElapsedCallback(TIM_HandleTypeDef *htim)
{
 8001b74:	b580      	push	{r7, lr}
 8001b76:	b082      	sub	sp, #8
 8001b78:	af00      	add	r7, sp, #0
 8001b7a:	6078      	str	r0, [r7, #4]
  /* USER CODE BEGIN Callback 0 */

  /* USER CODE END Callback 0 */
  if (htim->Instance == TIM1) {
 8001b7c:	687b      	ldr	r3, [r7, #4]
 8001b7e:	681b      	ldr	r3, [r3, #0]
 8001b80:	4a04      	ldr	r2, [pc, #16]	@ (8001b94 <HAL_TIM_PeriodElapsedCallback+0x20>)
 8001b82:	4293      	cmp	r3, r2
 8001b84:	d101      	bne.n	8001b8a <HAL_TIM_PeriodElapsedCallback+0x16>
    HAL_IncTick();
 8001b86:	f001 f995 	bl	8002eb4 <HAL_IncTick>
  }
  /* USER CODE BEGIN Callback 1 */

  /* USER CODE END Callback 1 */
}
 8001b8a:	bf00      	nop
 8001b8c:	3708      	adds	r7, #8
 8001b8e:	46bd      	mov	sp, r7
 8001b90:	bd80      	pop	{r7, pc}
 8001b92:	bf00      	nop
 8001b94:	40012c00 	.word	0x40012c00

08001b98 <Error_Handler>:
/**
  * @brief  This function is executed in case of error occurrence.
  * @retval None
  */
void Error_Handler(void)
{
 8001b98:	b480      	push	{r7}
 8001b9a:	af00      	add	r7, sp, #0
  \details Disables IRQ interrupts by setting the I-bit in the CPSR.
           Can only be executed in Privileged modes.
 */
__STATIC_FORCEINLINE void __disable_irq(void)
{
  __ASM volatile ("cpsid i" : : : "memory");
 8001b9c:	b672      	cpsid	i
}
 8001b9e:	bf00      	nop
  /* USER CODE BEGIN Error_Handler_Debug */
	/* User can add his own implementation to report the HAL error return state */
	__disable_irq();
	while (1) {
 8001ba0:	bf00      	nop
 8001ba2:	e7fd      	b.n	8001ba0 <Error_Handler+0x8>

08001ba4 <LintToLine>:



void LintToLine(uint16_t Line0_A_X, uint16_t Line0_A_Y, uint16_t Line0_B_X,
		uint16_t Line0_B_Y, uint16_t color, uint16_t Line1_A_X,
		uint16_t Line1_A_Y, uint16_t Line1_B_X, uint16_t Line1_B_Y) {
 8001ba4:	e92d 43b0 	stmdb	sp!, {r4, r5, r7, r8, r9, lr}
 8001ba8:	b08e      	sub	sp, #56	@ 0x38
 8001baa:	af02      	add	r7, sp, #8
 8001bac:	4604      	mov	r4, r0
 8001bae:	4608      	mov	r0, r1
 8001bb0:	4611      	mov	r1, r2
 8001bb2:	461a      	mov	r2, r3
 8001bb4:	4623      	mov	r3, r4
 8001bb6:	80fb      	strh	r3, [r7, #6]
 8001bb8:	4603      	mov	r3, r0
 8001bba:	80bb      	strh	r3, [r7, #4]
 8001bbc:	460b      	mov	r3, r1
 8001bbe:	807b      	strh	r3, [r7, #2]
 8001bc0:	4613      	mov	r3, r2
 8001bc2:	803b      	strh	r3, [r7, #0]
	int LineA_X;
	int LineA_Y;
	int LineB_X;
	int LineB_Y;
	int dx_a = (Line1_A_X - Line0_A_X);
 8001bc4:	f8b7 204c 	ldrh.w	r2, [r7, #76]	@ 0x4c
 8001bc8:	88fb      	ldrh	r3, [r7, #6]
 8001bca:	1ad3      	subs	r3, r2, r3
 8001bcc:	62bb      	str	r3, [r7, #40]	@ 0x28
	int dy_a = (Line1_A_Y - Line0_A_Y);
 8001bce:	f8b7 2050 	ldrh.w	r2, [r7, #80]	@ 0x50
 8001bd2:	88bb      	ldrh	r3, [r7, #4]
 8001bd4:	1ad3      	subs	r3, r2, r3
 8001bd6:	627b      	str	r3, [r7, #36]	@ 0x24
	int dx_b = (Line1_B_X - Line0_B_X);
 8001bd8:	f8b7 2054 	ldrh.w	r2, [r7, #84]	@ 0x54
 8001bdc:	887b      	ldrh	r3, [r7, #2]
 8001bde:	1ad3      	subs	r3, r2, r3
 8001be0:	623b      	str	r3, [r7, #32]
	int dy_b = (Line1_B_Y - Line0_B_Y);
 8001be2:	f8b7 2058 	ldrh.w	r2, [r7, #88]	@ 0x58
 8001be6:	883b      	ldrh	r3, [r7, #0]
 8001be8:	1ad3      	subs	r3, r2, r3
 8001bea:	61fb      	str	r3, [r7, #28]
	for (uint16_t g = 180; g < 360; g+=10) {
 8001bec:	23b4      	movs	r3, #180	@ 0xb4
 8001bee:	85fb      	strh	r3, [r7, #46]	@ 0x2e
 8001bf0:	e0dc      	b.n	8001dac <LintToLine+0x208>
		LineA_X = Line0_A_X + (COS[g]+1)*0.5 * dx_a;
 8001bf2:	88fb      	ldrh	r3, [r7, #6]
 8001bf4:	4618      	mov	r0, r3
 8001bf6:	f7fe fc05 	bl	8000404 <__aeabi_i2d>
 8001bfa:	4604      	mov	r4, r0
 8001bfc:	460d      	mov	r5, r1
 8001bfe:	8dfb      	ldrh	r3, [r7, #46]	@ 0x2e
 8001c00:	4a70      	ldr	r2, [pc, #448]	@ (8001dc4 <LintToLine+0x220>)
 8001c02:	f852 3023 	ldr.w	r3, [r2, r3, lsl #2]
 8001c06:	f04f 517e 	mov.w	r1, #1065353216	@ 0x3f800000
 8001c0a:	4618      	mov	r0, r3
 8001c0c:	f7fe fea4 	bl	8000958 <__addsf3>
 8001c10:	4603      	mov	r3, r0
 8001c12:	4618      	mov	r0, r3
 8001c14:	f7fe fc08 	bl	8000428 <__aeabi_f2d>
 8001c18:	f04f 0200 	mov.w	r2, #0
 8001c1c:	4b6a      	ldr	r3, [pc, #424]	@ (8001dc8 <LintToLine+0x224>)
 8001c1e:	f7fe fc5b 	bl	80004d8 <__aeabi_dmul>
 8001c22:	4602      	mov	r2, r0
 8001c24:	460b      	mov	r3, r1
 8001c26:	4690      	mov	r8, r2
 8001c28:	4699      	mov	r9, r3
 8001c2a:	6ab8      	ldr	r0, [r7, #40]	@ 0x28
 8001c2c:	f7fe fbea 	bl	8000404 <__aeabi_i2d>
 8001c30:	4602      	mov	r2, r0
 8001c32:	460b      	mov	r3, r1
 8001c34:	4640      	mov	r0, r8
 8001c36:	4649      	mov	r1, r9
 8001c38:	f7fe fc4e 	bl	80004d8 <__aeabi_dmul>
 8001c3c:	4602      	mov	r2, r0
 8001c3e:	460b      	mov	r3, r1
 8001c40:	4620      	mov	r0, r4
 8001c42:	4629      	mov	r1, r5
 8001c44:	f7fe fa92 	bl	800016c <__adddf3>
 8001c48:	4602      	mov	r2, r0
 8001c4a:	460b      	mov	r3, r1
 8001c4c:	4610      	mov	r0, r2
 8001c4e:	4619      	mov	r1, r3
 8001c50:	f7fe fe54 	bl	80008fc <__aeabi_d2iz>
 8001c54:	4603      	mov	r3, r0
 8001c56:	61bb      	str	r3, [r7, #24]
		LineA_Y = Line0_A_Y + (COS[g]+1)*0.5 * dy_a;
 8001c58:	88bb      	ldrh	r3, [r7, #4]
 8001c5a:	4618      	mov	r0, r3
 8001c5c:	f7fe fbd2 	bl	8000404 <__aeabi_i2d>
 8001c60:	4604      	mov	r4, r0
 8001c62:	460d      	mov	r5, r1
 8001c64:	8dfb      	ldrh	r3, [r7, #46]	@ 0x2e
 8001c66:	4a57      	ldr	r2, [pc, #348]	@ (8001dc4 <LintToLine+0x220>)
 8001c68:	f852 3023 	ldr.w	r3, [r2, r3, lsl #2]
 8001c6c:	f04f 517e 	mov.w	r1, #1065353216	@ 0x3f800000
 8001c70:	4618      	mov	r0, r3
 8001c72:	f7fe fe71 	bl	8000958 <__addsf3>
 8001c76:	4603      	mov	r3, r0
 8001c78:	4618      	mov	r0, r3
 8001c7a:	f7fe fbd5 	bl	8000428 <__aeabi_f2d>
 8001c7e:	f04f 0200 	mov.w	r2, #0
 8001c82:	4b51      	ldr	r3, [pc, #324]	@ (8001dc8 <LintToLine+0x224>)
 8001c84:	f7fe fc28 	bl	80004d8 <__aeabi_dmul>
 8001c88:	4602      	mov	r2, r0
 8001c8a:	460b      	mov	r3, r1
 8001c8c:	4690      	mov	r8, r2
 8001c8e:	4699      	mov	r9, r3
 8001c90:	6a78      	ldr	r0, [r7, #36]	@ 0x24
 8001c92:	f7fe fbb7 	bl	8000404 <__aeabi_i2d>
 8001c96:	4602      	mov	r2, r0
 8001c98:	460b      	mov	r3, r1
 8001c9a:	4640      	mov	r0, r8
 8001c9c:	4649      	mov	r1, r9
 8001c9e:	f7fe fc1b 	bl	80004d8 <__aeabi_dmul>
 8001ca2:	4602      	mov	r2, r0
 8001ca4:	460b      	mov	r3, r1
 8001ca6:	4620      	mov	r0, r4
 8001ca8:	4629      	mov	r1, r5
 8001caa:	f7fe fa5f 	bl	800016c <__adddf3>
 8001cae:	4602      	mov	r2, r0
 8001cb0:	460b      	mov	r3, r1
 8001cb2:	4610      	mov	r0, r2
 8001cb4:	4619      	mov	r1, r3
 8001cb6:	f7fe fe21 	bl	80008fc <__aeabi_d2iz>
 8001cba:	4603      	mov	r3, r0
 8001cbc:	617b      	str	r3, [r7, #20]
		LineB_X = Line0_B_X + (COS[g]+1)*0.5 * dx_b;
 8001cbe:	887b      	ldrh	r3, [r7, #2]
 8001cc0:	4618      	mov	r0, r3
 8001cc2:	f7fe fb9f 	bl	8000404 <__aeabi_i2d>
 8001cc6:	4604      	mov	r4, r0
 8001cc8:	460d      	mov	r5, r1
 8001cca:	8dfb      	ldrh	r3, [r7, #46]	@ 0x2e
 8001ccc:	4a3d      	ldr	r2, [pc, #244]	@ (8001dc4 <LintToLine+0x220>)
 8001cce:	f852 3023 	ldr.w	r3, [r2, r3, lsl #2]
 8001cd2:	f04f 517e 	mov.w	r1, #1065353216	@ 0x3f800000
 8001cd6:	4618      	mov	r0, r3
 8001cd8:	f7fe fe3e 	bl	8000958 <__addsf3>
 8001cdc:	4603      	mov	r3, r0
 8001cde:	4618      	mov	r0, r3
 8001ce0:	f7fe fba2 	bl	8000428 <__aeabi_f2d>
 8001ce4:	f04f 0200 	mov.w	r2, #0
 8001ce8:	4b37      	ldr	r3, [pc, #220]	@ (8001dc8 <LintToLine+0x224>)
 8001cea:	f7fe fbf5 	bl	80004d8 <__aeabi_dmul>
 8001cee:	4602      	mov	r2, r0
 8001cf0:	460b      	mov	r3, r1
 8001cf2:	4690      	mov	r8, r2
 8001cf4:	4699      	mov	r9, r3
 8001cf6:	6a38      	ldr	r0, [r7, #32]
 8001cf8:	f7fe fb84 	bl	8000404 <__aeabi_i2d>
 8001cfc:	4602      	mov	r2, r0
 8001cfe:	460b      	mov	r3, r1
 8001d00:	4640      	mov	r0, r8
 8001d02:	4649      	mov	r1, r9
 8001d04:	f7fe fbe8 	bl	80004d8 <__aeabi_dmul>
 8001d08:	4602      	mov	r2, r0
 8001d0a:	460b      	mov	r3, r1
 8001d0c:	4620      	mov	r0, r4
 8001d0e:	4629      	mov	r1, r5
 8001d10:	f7fe fa2c 	bl	800016c <__adddf3>
 8001d14:	4602      	mov	r2, r0
 8001d16:	460b      	mov	r3, r1
 8001d18:	4610      	mov	r0, r2
 8001d1a:	4619      	mov	r1, r3
 8001d1c:	f7fe fdee 	bl	80008fc <__aeabi_d2iz>
 8001d20:	4603      	mov	r3, r0
 8001d22:	613b      	str	r3, [r7, #16]
		LineB_Y = Line0_B_Y + (COS[g]+1)*0.5 * dy_b;
 8001d24:	883b      	ldrh	r3, [r7, #0]
 8001d26:	4618      	mov	r0, r3
 8001d28:	f7fe fb6c 	bl	8000404 <__aeabi_i2d>
 8001d2c:	4604      	mov	r4, r0
 8001d2e:	460d      	mov	r5, r1
 8001d30:	8dfb      	ldrh	r3, [r7, #46]	@ 0x2e
 8001d32:	4a24      	ldr	r2, [pc, #144]	@ (8001dc4 <LintToLine+0x220>)
 8001d34:	f852 3023 	ldr.w	r3, [r2, r3, lsl #2]
 8001d38:	f04f 517e 	mov.w	r1, #1065353216	@ 0x3f800000
 8001d3c:	4618      	mov	r0, r3
 8001d3e:	f7fe fe0b 	bl	8000958 <__addsf3>
 8001d42:	4603      	mov	r3, r0
 8001d44:	4618      	mov	r0, r3
 8001d46:	f7fe fb6f 	bl	8000428 <__aeabi_f2d>
 8001d4a:	f04f 0200 	mov.w	r2, #0
 8001d4e:	4b1e      	ldr	r3, [pc, #120]	@ (8001dc8 <LintToLine+0x224>)
 8001d50:	f7fe fbc2 	bl	80004d8 <__aeabi_dmul>
 8001d54:	4602      	mov	r2, r0
 8001d56:	460b      	mov	r3, r1
 8001d58:	4690      	mov	r8, r2
 8001d5a:	4699      	mov	r9, r3
 8001d5c:	69f8      	ldr	r0, [r7, #28]
 8001d5e:	f7fe fb51 	bl	8000404 <__aeabi_i2d>
 8001d62:	4602      	mov	r2, r0
 8001d64:	460b      	mov	r3, r1
 8001d66:	4640      	mov	r0, r8
 8001d68:	4649      	mov	r1, r9
 8001d6a:	f7fe fbb5 	bl	80004d8 <__aeabi_dmul>
 8001d6e:	4602      	mov	r2, r0
 8001d70:	460b      	mov	r3, r1
 8001d72:	4620      	mov	r0, r4
 8001d74:	4629      	mov	r1, r5
 8001d76:	f7fe f9f9 	bl	800016c <__adddf3>
 8001d7a:	4602      	mov	r2, r0
 8001d7c:	460b      	mov	r3, r1
 8001d7e:	4610      	mov	r0, r2
 8001d80:	4619      	mov	r1, r3
 8001d82:	f7fe fdbb 	bl	80008fc <__aeabi_d2iz>
 8001d86:	4603      	mov	r3, r0
 8001d88:	60fb      	str	r3, [r7, #12]
		ST7789_DrawLine(LineA_X, LineA_Y, LineB_X, LineB_Y, color);
 8001d8a:	69bb      	ldr	r3, [r7, #24]
 8001d8c:	b298      	uxth	r0, r3
 8001d8e:	697b      	ldr	r3, [r7, #20]
 8001d90:	b299      	uxth	r1, r3
 8001d92:	693b      	ldr	r3, [r7, #16]
 8001d94:	b29a      	uxth	r2, r3
 8001d96:	68fb      	ldr	r3, [r7, #12]
 8001d98:	b29c      	uxth	r4, r3
 8001d9a:	f8b7 3048 	ldrh.w	r3, [r7, #72]	@ 0x48
 8001d9e:	9300      	str	r3, [sp, #0]
 8001da0:	4623      	mov	r3, r4
 8001da2:	f000 fb1e 	bl	80023e2 <ST7789_DrawLine>
	for (uint16_t g = 180; g < 360; g+=10) {
 8001da6:	8dfb      	ldrh	r3, [r7, #46]	@ 0x2e
 8001da8:	330a      	adds	r3, #10
 8001daa:	85fb      	strh	r3, [r7, #46]	@ 0x2e
 8001dac:	8dfb      	ldrh	r3, [r7, #46]	@ 0x2e
 8001dae:	f5b3 7fb4 	cmp.w	r3, #360	@ 0x168
 8001db2:	f4ff af1e 	bcc.w	8001bf2 <LintToLine+0x4e>
	}

}
 8001db6:	bf00      	nop
 8001db8:	bf00      	nop
 8001dba:	3730      	adds	r7, #48	@ 0x30
 8001dbc:	46bd      	mov	sp, r7
 8001dbe:	e8bd 83b0 	ldmia.w	sp!, {r4, r5, r7, r8, r9, pc}
 8001dc2:	bf00      	nop
 8001dc4:	20000010 	.word	0x20000010
 8001dc8:	3fe00000 	.word	0x3fe00000

08001dcc <MX_SPI1_Init>:
SPI_HandleTypeDef hspi2;
DMA_HandleTypeDef hdma_spi1_tx;

/* SPI1 init function */
void MX_SPI1_Init(void)
{
 8001dcc:	b580      	push	{r7, lr}
 8001dce:	af00      	add	r7, sp, #0
  /* USER CODE END SPI1_Init 0 */

  /* USER CODE BEGIN SPI1_Init 1 */

  /* USER CODE END SPI1_Init 1 */
  hspi1.Instance = SPI1;
 8001dd0:	4b18      	ldr	r3, [pc, #96]	@ (8001e34 <MX_SPI1_Init+0x68>)
 8001dd2:	4a19      	ldr	r2, [pc, #100]	@ (8001e38 <MX_SPI1_Init+0x6c>)
 8001dd4:	601a      	str	r2, [r3, #0]
  hspi1.Init.Mode = SPI_MODE_MASTER;
 8001dd6:	4b17      	ldr	r3, [pc, #92]	@ (8001e34 <MX_SPI1_Init+0x68>)
 8001dd8:	f44f 7282 	mov.w	r2, #260	@ 0x104
 8001ddc:	605a      	str	r2, [r3, #4]
  hspi1.Init.Direction = SPI_DIRECTION_1LINE;
 8001dde:	4b15      	ldr	r3, [pc, #84]	@ (8001e34 <MX_SPI1_Init+0x68>)
 8001de0:	f44f 4200 	mov.w	r2, #32768	@ 0x8000
 8001de4:	609a      	str	r2, [r3, #8]
  hspi1.Init.DataSize = SPI_DATASIZE_8BIT;
 8001de6:	4b13      	ldr	r3, [pc, #76]	@ (8001e34 <MX_SPI1_Init+0x68>)
 8001de8:	2200      	movs	r2, #0
 8001dea:	60da      	str	r2, [r3, #12]
  hspi1.Init.CLKPolarity = SPI_POLARITY_HIGH;
 8001dec:	4b11      	ldr	r3, [pc, #68]	@ (8001e34 <MX_SPI1_Init+0x68>)
 8001dee:	2202      	movs	r2, #2
 8001df0:	611a      	str	r2, [r3, #16]
  hspi1.Init.CLKPhase = SPI_PHASE_1EDGE;
 8001df2:	4b10      	ldr	r3, [pc, #64]	@ (8001e34 <MX_SPI1_Init+0x68>)
 8001df4:	2200      	movs	r2, #0
 8001df6:	615a      	str	r2, [r3, #20]
  hspi1.Init.NSS = SPI_NSS_SOFT;
 8001df8:	4b0e      	ldr	r3, [pc, #56]	@ (8001e34 <MX_SPI1_Init+0x68>)
 8001dfa:	f44f 7200 	mov.w	r2, #512	@ 0x200
 8001dfe:	619a      	str	r2, [r3, #24]
  hspi1.Init.BaudRatePrescaler = SPI_BAUDRATEPRESCALER_4;
 8001e00:	4b0c      	ldr	r3, [pc, #48]	@ (8001e34 <MX_SPI1_Init+0x68>)
 8001e02:	2208      	movs	r2, #8
 8001e04:	61da      	str	r2, [r3, #28]
  hspi1.Init.FirstBit = SPI_FIRSTBIT_MSB;
 8001e06:	4b0b      	ldr	r3, [pc, #44]	@ (8001e34 <MX_SPI1_Init+0x68>)
 8001e08:	2200      	movs	r2, #0
 8001e0a:	621a      	str	r2, [r3, #32]
  hspi1.Init.TIMode = SPI_TIMODE_DISABLE;
 8001e0c:	4b09      	ldr	r3, [pc, #36]	@ (8001e34 <MX_SPI1_Init+0x68>)
 8001e0e:	2200      	movs	r2, #0
 8001e10:	625a      	str	r2, [r3, #36]	@ 0x24
  hspi1.Init.CRCCalculation = SPI_CRCCALCULATION_DISABLE;
 8001e12:	4b08      	ldr	r3, [pc, #32]	@ (8001e34 <MX_SPI1_Init+0x68>)
 8001e14:	2200      	movs	r2, #0
 8001e16:	629a      	str	r2, [r3, #40]	@ 0x28
  hspi1.Init.CRCPolynomial = 10;
 8001e18:	4b06      	ldr	r3, [pc, #24]	@ (8001e34 <MX_SPI1_Init+0x68>)
 8001e1a:	220a      	movs	r2, #10
 8001e1c:	62da      	str	r2, [r3, #44]	@ 0x2c
  if (HAL_SPI_Init(&hspi1) != HAL_OK)
 8001e1e:	4805      	ldr	r0, [pc, #20]	@ (8001e34 <MX_SPI1_Init+0x68>)
 8001e20:	f004 f8fe 	bl	8006020 <HAL_SPI_Init>
 8001e24:	4603      	mov	r3, r0
 8001e26:	2b00      	cmp	r3, #0
 8001e28:	d001      	beq.n	8001e2e <MX_SPI1_Init+0x62>
  {
    Error_Handler();
 8001e2a:	f7ff feb5 	bl	8001b98 <Error_Handler>
  }
  /* USER CODE BEGIN SPI1_Init 2 */

  /* USER CODE END SPI1_Init 2 */

}
 8001e2e:	bf00      	nop
 8001e30:	bd80      	pop	{r7, pc}
 8001e32:	bf00      	nop
 8001e34:	200008b8 	.word	0x200008b8
 8001e38:	40013000 	.word	0x40013000

08001e3c <MX_SPI2_Init>:
/* SPI2 init function */
void MX_SPI2_Init(void)
{
 8001e3c:	b580      	push	{r7, lr}
 8001e3e:	af00      	add	r7, sp, #0
  /* USER CODE END SPI2_Init 0 */

  /* USER CODE BEGIN SPI2_Init 1 */

  /* USER CODE END SPI2_Init 1 */
  hspi2.Instance = SPI2;
 8001e40:	4b17      	ldr	r3, [pc, #92]	@ (8001ea0 <MX_SPI2_Init+0x64>)
 8001e42:	4a18      	ldr	r2, [pc, #96]	@ (8001ea4 <MX_SPI2_Init+0x68>)
 8001e44:	601a      	str	r2, [r3, #0]
  hspi2.Init.Mode = SPI_MODE_MASTER;
 8001e46:	4b16      	ldr	r3, [pc, #88]	@ (8001ea0 <MX_SPI2_Init+0x64>)
 8001e48:	f44f 7282 	mov.w	r2, #260	@ 0x104
 8001e4c:	605a      	str	r2, [r3, #4]
  hspi2.Init.Direction = SPI_DIRECTION_2LINES;
 8001e4e:	4b14      	ldr	r3, [pc, #80]	@ (8001ea0 <MX_SPI2_Init+0x64>)
 8001e50:	2200      	movs	r2, #0
 8001e52:	609a      	str	r2, [r3, #8]
  hspi2.Init.DataSize = SPI_DATASIZE_8BIT;
 8001e54:	4b12      	ldr	r3, [pc, #72]	@ (8001ea0 <MX_SPI2_Init+0x64>)
 8001e56:	2200      	movs	r2, #0
 8001e58:	60da      	str	r2, [r3, #12]
  hspi2.Init.CLKPolarity = SPI_POLARITY_LOW;
 8001e5a:	4b11      	ldr	r3, [pc, #68]	@ (8001ea0 <MX_SPI2_Init+0x64>)
 8001e5c:	2200      	movs	r2, #0
 8001e5e:	611a      	str	r2, [r3, #16]
  hspi2.Init.CLKPhase = SPI_PHASE_1EDGE;
 8001e60:	4b0f      	ldr	r3, [pc, #60]	@ (8001ea0 <MX_SPI2_Init+0x64>)
 8001e62:	2200      	movs	r2, #0
 8001e64:	615a      	str	r2, [r3, #20]
  hspi2.Init.NSS = SPI_NSS_SOFT;
 8001e66:	4b0e      	ldr	r3, [pc, #56]	@ (8001ea0 <MX_SPI2_Init+0x64>)
 8001e68:	f44f 7200 	mov.w	r2, #512	@ 0x200
 8001e6c:	619a      	str	r2, [r3, #24]
  hspi2.Init.BaudRatePrescaler = SPI_BAUDRATEPRESCALER_8;
 8001e6e:	4b0c      	ldr	r3, [pc, #48]	@ (8001ea0 <MX_SPI2_Init+0x64>)
 8001e70:	2210      	movs	r2, #16
 8001e72:	61da      	str	r2, [r3, #28]
  hspi2.Init.FirstBit = SPI_FIRSTBIT_MSB;
 8001e74:	4b0a      	ldr	r3, [pc, #40]	@ (8001ea0 <MX_SPI2_Init+0x64>)
 8001e76:	2200      	movs	r2, #0
 8001e78:	621a      	str	r2, [r3, #32]
  hspi2.Init.TIMode = SPI_TIMODE_DISABLE;
 8001e7a:	4b09      	ldr	r3, [pc, #36]	@ (8001ea0 <MX_SPI2_Init+0x64>)
 8001e7c:	2200      	movs	r2, #0
 8001e7e:	625a      	str	r2, [r3, #36]	@ 0x24
  hspi2.Init.CRCCalculation = SPI_CRCCALCULATION_DISABLE;
 8001e80:	4b07      	ldr	r3, [pc, #28]	@ (8001ea0 <MX_SPI2_Init+0x64>)
 8001e82:	2200      	movs	r2, #0
 8001e84:	629a      	str	r2, [r3, #40]	@ 0x28
  hspi2.Init.CRCPolynomial = 10;
 8001e86:	4b06      	ldr	r3, [pc, #24]	@ (8001ea0 <MX_SPI2_Init+0x64>)
 8001e88:	220a      	movs	r2, #10
 8001e8a:	62da      	str	r2, [r3, #44]	@ 0x2c
  if (HAL_SPI_Init(&hspi2) != HAL_OK)
 8001e8c:	4804      	ldr	r0, [pc, #16]	@ (8001ea0 <MX_SPI2_Init+0x64>)
 8001e8e:	f004 f8c7 	bl	8006020 <HAL_SPI_Init>
 8001e92:	4603      	mov	r3, r0
 8001e94:	2b00      	cmp	r3, #0
 8001e96:	d001      	beq.n	8001e9c <MX_SPI2_Init+0x60>
  {
    Error_Handler();
 8001e98:	f7ff fe7e 	bl	8001b98 <Error_Handler>
  }
  /* USER CODE BEGIN SPI2_Init 2 */

  /* USER CODE END SPI2_Init 2 */

}
 8001e9c:	bf00      	nop
 8001e9e:	bd80      	pop	{r7, pc}
 8001ea0:	20000910 	.word	0x20000910
 8001ea4:	40003800 	.word	0x40003800

08001ea8 <HAL_SPI_MspInit>:

void HAL_SPI_MspInit(SPI_HandleTypeDef* spiHandle)
{
 8001ea8:	b580      	push	{r7, lr}
 8001eaa:	b08a      	sub	sp, #40	@ 0x28
 8001eac:	af00      	add	r7, sp, #0
 8001eae:	6078      	str	r0, [r7, #4]

  GPIO_InitTypeDef GPIO_InitStruct = {0};
 8001eb0:	f107 0318 	add.w	r3, r7, #24
 8001eb4:	2200      	movs	r2, #0
 8001eb6:	601a      	str	r2, [r3, #0]
 8001eb8:	605a      	str	r2, [r3, #4]
 8001eba:	609a      	str	r2, [r3, #8]
 8001ebc:	60da      	str	r2, [r3, #12]
  if(spiHandle->Instance==SPI1)
 8001ebe:	687b      	ldr	r3, [r7, #4]
 8001ec0:	681b      	ldr	r3, [r3, #0]
 8001ec2:	4a44      	ldr	r2, [pc, #272]	@ (8001fd4 <HAL_SPI_MspInit+0x12c>)
 8001ec4:	4293      	cmp	r3, r2
 8001ec6:	d14a      	bne.n	8001f5e <HAL_SPI_MspInit+0xb6>
  {
  /* USER CODE BEGIN SPI1_MspInit 0 */

  /* USER CODE END SPI1_MspInit 0 */
    /* SPI1 clock enable */
    __HAL_RCC_SPI1_CLK_ENABLE();
 8001ec8:	4b43      	ldr	r3, [pc, #268]	@ (8001fd8 <HAL_SPI_MspInit+0x130>)
 8001eca:	699b      	ldr	r3, [r3, #24]
 8001ecc:	4a42      	ldr	r2, [pc, #264]	@ (8001fd8 <HAL_SPI_MspInit+0x130>)
 8001ece:	f443 5380 	orr.w	r3, r3, #4096	@ 0x1000
 8001ed2:	6193      	str	r3, [r2, #24]
 8001ed4:	4b40      	ldr	r3, [pc, #256]	@ (8001fd8 <HAL_SPI_MspInit+0x130>)
 8001ed6:	699b      	ldr	r3, [r3, #24]
 8001ed8:	f403 5380 	and.w	r3, r3, #4096	@ 0x1000
 8001edc:	617b      	str	r3, [r7, #20]
 8001ede:	697b      	ldr	r3, [r7, #20]

    __HAL_RCC_GPIOA_CLK_ENABLE();
 8001ee0:	4b3d      	ldr	r3, [pc, #244]	@ (8001fd8 <HAL_SPI_MspInit+0x130>)
 8001ee2:	699b      	ldr	r3, [r3, #24]
 8001ee4:	4a3c      	ldr	r2, [pc, #240]	@ (8001fd8 <HAL_SPI_MspInit+0x130>)
 8001ee6:	f043 0304 	orr.w	r3, r3, #4
 8001eea:	6193      	str	r3, [r2, #24]
 8001eec:	4b3a      	ldr	r3, [pc, #232]	@ (8001fd8 <HAL_SPI_MspInit+0x130>)
 8001eee:	699b      	ldr	r3, [r3, #24]
 8001ef0:	f003 0304 	and.w	r3, r3, #4
 8001ef4:	613b      	str	r3, [r7, #16]
 8001ef6:	693b      	ldr	r3, [r7, #16]
    /**SPI1 GPIO Configuration
    PA5     ------> SPI1_SCK
    PA7     ------> SPI1_MOSI
    */
    GPIO_InitStruct.Pin = GPIO_PIN_5|GPIO_PIN_7;
 8001ef8:	23a0      	movs	r3, #160	@ 0xa0
 8001efa:	61bb      	str	r3, [r7, #24]
    GPIO_InitStruct.Mode = GPIO_MODE_AF_PP;
 8001efc:	2302      	movs	r3, #2
 8001efe:	61fb      	str	r3, [r7, #28]
    GPIO_InitStruct.Speed = GPIO_SPEED_FREQ_HIGH;
 8001f00:	2303      	movs	r3, #3
 8001f02:	627b      	str	r3, [r7, #36]	@ 0x24
    HAL_GPIO_Init(GPIOA, &GPIO_InitStruct);
 8001f04:	f107 0318 	add.w	r3, r7, #24
 8001f08:	4619      	mov	r1, r3
 8001f0a:	4834      	ldr	r0, [pc, #208]	@ (8001fdc <HAL_SPI_MspInit+0x134>)
 8001f0c:	f001 ffe6 	bl	8003edc <HAL_GPIO_Init>

    /* SPI1 DMA Init */
    /* SPI1_TX Init */
    hdma_spi1_tx.Instance = DMA1_Channel3;
 8001f10:	4b33      	ldr	r3, [pc, #204]	@ (8001fe0 <HAL_SPI_MspInit+0x138>)
 8001f12:	4a34      	ldr	r2, [pc, #208]	@ (8001fe4 <HAL_SPI_MspInit+0x13c>)
 8001f14:	601a      	str	r2, [r3, #0]
    hdma_spi1_tx.Init.Direction = DMA_MEMORY_TO_PERIPH;
 8001f16:	4b32      	ldr	r3, [pc, #200]	@ (8001fe0 <HAL_SPI_MspInit+0x138>)
 8001f18:	2210      	movs	r2, #16
 8001f1a:	605a      	str	r2, [r3, #4]
    hdma_spi1_tx.Init.PeriphInc = DMA_PINC_DISABLE;
 8001f1c:	4b30      	ldr	r3, [pc, #192]	@ (8001fe0 <HAL_SPI_MspInit+0x138>)
 8001f1e:	2200      	movs	r2, #0
 8001f20:	609a      	str	r2, [r3, #8]
    hdma_spi1_tx.Init.MemInc = DMA_MINC_ENABLE;
 8001f22:	4b2f      	ldr	r3, [pc, #188]	@ (8001fe0 <HAL_SPI_MspInit+0x138>)
 8001f24:	2280      	movs	r2, #128	@ 0x80
 8001f26:	60da      	str	r2, [r3, #12]
    hdma_spi1_tx.Init.PeriphDataAlignment = DMA_PDATAALIGN_BYTE;
 8001f28:	4b2d      	ldr	r3, [pc, #180]	@ (8001fe0 <HAL_SPI_MspInit+0x138>)
 8001f2a:	2200      	movs	r2, #0
 8001f2c:	611a      	str	r2, [r3, #16]
    hdma_spi1_tx.Init.MemDataAlignment = DMA_MDATAALIGN_BYTE;
 8001f2e:	4b2c      	ldr	r3, [pc, #176]	@ (8001fe0 <HAL_SPI_MspInit+0x138>)
 8001f30:	2200      	movs	r2, #0
 8001f32:	615a      	str	r2, [r3, #20]
    hdma_spi1_tx.Init.Mode = DMA_NORMAL;
 8001f34:	4b2a      	ldr	r3, [pc, #168]	@ (8001fe0 <HAL_SPI_MspInit+0x138>)
 8001f36:	2200      	movs	r2, #0
 8001f38:	619a      	str	r2, [r3, #24]
    hdma_spi1_tx.Init.Priority = DMA_PRIORITY_LOW;
 8001f3a:	4b29      	ldr	r3, [pc, #164]	@ (8001fe0 <HAL_SPI_MspInit+0x138>)
 8001f3c:	2200      	movs	r2, #0
 8001f3e:	61da      	str	r2, [r3, #28]
    if (HAL_DMA_Init(&hdma_spi1_tx) != HAL_OK)
 8001f40:	4827      	ldr	r0, [pc, #156]	@ (8001fe0 <HAL_SPI_MspInit+0x138>)
 8001f42:	f001 fddd 	bl	8003b00 <HAL_DMA_Init>
 8001f46:	4603      	mov	r3, r0
 8001f48:	2b00      	cmp	r3, #0
 8001f4a:	d001      	beq.n	8001f50 <HAL_SPI_MspInit+0xa8>
    {
      Error_Handler();
 8001f4c:	f7ff fe24 	bl	8001b98 <Error_Handler>
    }

    __HAL_LINKDMA(spiHandle,hdmatx,hdma_spi1_tx);
 8001f50:	687b      	ldr	r3, [r7, #4]
 8001f52:	4a23      	ldr	r2, [pc, #140]	@ (8001fe0 <HAL_SPI_MspInit+0x138>)
 8001f54:	649a      	str	r2, [r3, #72]	@ 0x48
 8001f56:	4a22      	ldr	r2, [pc, #136]	@ (8001fe0 <HAL_SPI_MspInit+0x138>)
 8001f58:	687b      	ldr	r3, [r7, #4]
 8001f5a:	6253      	str	r3, [r2, #36]	@ 0x24

  /* USER CODE BEGIN SPI2_MspInit 1 */

  /* USER CODE END SPI2_MspInit 1 */
  }
}
 8001f5c:	e036      	b.n	8001fcc <HAL_SPI_MspInit+0x124>
  else if(spiHandle->Instance==SPI2)
 8001f5e:	687b      	ldr	r3, [r7, #4]
 8001f60:	681b      	ldr	r3, [r3, #0]
 8001f62:	4a21      	ldr	r2, [pc, #132]	@ (8001fe8 <HAL_SPI_MspInit+0x140>)
 8001f64:	4293      	cmp	r3, r2
 8001f66:	d131      	bne.n	8001fcc <HAL_SPI_MspInit+0x124>
    __HAL_RCC_SPI2_CLK_ENABLE();
 8001f68:	4b1b      	ldr	r3, [pc, #108]	@ (8001fd8 <HAL_SPI_MspInit+0x130>)
 8001f6a:	69db      	ldr	r3, [r3, #28]
 8001f6c:	4a1a      	ldr	r2, [pc, #104]	@ (8001fd8 <HAL_SPI_MspInit+0x130>)
 8001f6e:	f443 4380 	orr.w	r3, r3, #16384	@ 0x4000
 8001f72:	61d3      	str	r3, [r2, #28]
 8001f74:	4b18      	ldr	r3, [pc, #96]	@ (8001fd8 <HAL_SPI_MspInit+0x130>)
 8001f76:	69db      	ldr	r3, [r3, #28]
 8001f78:	f403 4380 	and.w	r3, r3, #16384	@ 0x4000
 8001f7c:	60fb      	str	r3, [r7, #12]
 8001f7e:	68fb      	ldr	r3, [r7, #12]
    __HAL_RCC_GPIOB_CLK_ENABLE();
 8001f80:	4b15      	ldr	r3, [pc, #84]	@ (8001fd8 <HAL_SPI_MspInit+0x130>)
 8001f82:	699b      	ldr	r3, [r3, #24]
 8001f84:	4a14      	ldr	r2, [pc, #80]	@ (8001fd8 <HAL_SPI_MspInit+0x130>)
 8001f86:	f043 0308 	orr.w	r3, r3, #8
 8001f8a:	6193      	str	r3, [r2, #24]
 8001f8c:	4b12      	ldr	r3, [pc, #72]	@ (8001fd8 <HAL_SPI_MspInit+0x130>)
 8001f8e:	699b      	ldr	r3, [r3, #24]
 8001f90:	f003 0308 	and.w	r3, r3, #8
 8001f94:	60bb      	str	r3, [r7, #8]
 8001f96:	68bb      	ldr	r3, [r7, #8]
    GPIO_InitStruct.Pin = GPIO_PIN_13|GPIO_PIN_15;
 8001f98:	f44f 4320 	mov.w	r3, #40960	@ 0xa000
 8001f9c:	61bb      	str	r3, [r7, #24]
    GPIO_InitStruct.Mode = GPIO_MODE_AF_PP;
 8001f9e:	2302      	movs	r3, #2
 8001fa0:	61fb      	str	r3, [r7, #28]
    GPIO_InitStruct.Speed = GPIO_SPEED_FREQ_HIGH;
 8001fa2:	2303      	movs	r3, #3
 8001fa4:	627b      	str	r3, [r7, #36]	@ 0x24
    HAL_GPIO_Init(GPIOB, &GPIO_InitStruct);
 8001fa6:	f107 0318 	add.w	r3, r7, #24
 8001faa:	4619      	mov	r1, r3
 8001fac:	480f      	ldr	r0, [pc, #60]	@ (8001fec <HAL_SPI_MspInit+0x144>)
 8001fae:	f001 ff95 	bl	8003edc <HAL_GPIO_Init>
    GPIO_InitStruct.Pin = GPIO_PIN_14;
 8001fb2:	f44f 4380 	mov.w	r3, #16384	@ 0x4000
 8001fb6:	61bb      	str	r3, [r7, #24]
    GPIO_InitStruct.Mode = GPIO_MODE_INPUT;
 8001fb8:	2300      	movs	r3, #0
 8001fba:	61fb      	str	r3, [r7, #28]
    GPIO_InitStruct.Pull = GPIO_NOPULL;
 8001fbc:	2300      	movs	r3, #0
 8001fbe:	623b      	str	r3, [r7, #32]
    HAL_GPIO_Init(GPIOB, &GPIO_InitStruct);
 8001fc0:	f107 0318 	add.w	r3, r7, #24
 8001fc4:	4619      	mov	r1, r3
 8001fc6:	4809      	ldr	r0, [pc, #36]	@ (8001fec <HAL_SPI_MspInit+0x144>)
 8001fc8:	f001 ff88 	bl	8003edc <HAL_GPIO_Init>
}
 8001fcc:	bf00      	nop
 8001fce:	3728      	adds	r7, #40	@ 0x28
 8001fd0:	46bd      	mov	sp, r7
 8001fd2:	bd80      	pop	{r7, pc}
 8001fd4:	40013000 	.word	0x40013000
 8001fd8:	40021000 	.word	0x40021000
 8001fdc:	40010800 	.word	0x40010800
 8001fe0:	20000968 	.word	0x20000968
 8001fe4:	40020030 	.word	0x40020030
 8001fe8:	40003800 	.word	0x40003800
 8001fec:	40010c00 	.word	0x40010c00

08001ff0 <ST7789_WriteCommand>:
/**
 * @brief Write command to ST7789 controller
 * @param cmd -> command to write
 * @return none
 */
static void ST7789_WriteCommand(uint8_t cmd) {
 8001ff0:	b580      	push	{r7, lr}
 8001ff2:	b082      	sub	sp, #8
 8001ff4:	af00      	add	r7, sp, #0
 8001ff6:	4603      	mov	r3, r0
 8001ff8:	71fb      	strb	r3, [r7, #7]
    ST7789_Select();
 8001ffa:	bf00      	nop
    ST7789_DC_Clr();
 8001ffc:	2200      	movs	r2, #0
 8001ffe:	2110      	movs	r1, #16
 8002000:	4807      	ldr	r0, [pc, #28]	@ (8002020 <ST7789_WriteCommand+0x30>)
 8002002:	f002 f8ef 	bl	80041e4 <HAL_GPIO_WritePin>
    HAL_SPI_Transmit(&ST7789_SPI_PORT, &cmd, sizeof(cmd), HAL_MAX_DELAY);
 8002006:	1df9      	adds	r1, r7, #7
 8002008:	f04f 33ff 	mov.w	r3, #4294967295
 800200c:	2201      	movs	r2, #1
 800200e:	4805      	ldr	r0, [pc, #20]	@ (8002024 <ST7789_WriteCommand+0x34>)
 8002010:	f004 f88a 	bl	8006128 <HAL_SPI_Transmit>
    ST7789_UnSelect();
 8002014:	bf00      	nop
}
 8002016:	bf00      	nop
 8002018:	3708      	adds	r7, #8
 800201a:	46bd      	mov	sp, r7
 800201c:	bd80      	pop	{r7, pc}
 800201e:	bf00      	nop
 8002020:	40010800 	.word	0x40010800
 8002024:	200008b8 	.word	0x200008b8

08002028 <ST7789_WriteData>:
 * @brief Write data to ST7789 controller
 * @param buff -> pointer of data buffer
 * @param buff_size -> size of the data buffer
 * @return none
 */
static void ST7789_WriteData(uint8_t *buff, size_t buff_size) {
 8002028:	b580      	push	{r7, lr}
 800202a:	b084      	sub	sp, #16
 800202c:	af00      	add	r7, sp, #0
 800202e:	6078      	str	r0, [r7, #4]
 8002030:	6039      	str	r1, [r7, #0]
    ST7789_Select();
 8002032:	bf00      	nop
    ST7789_DC_Set();
 8002034:	2201      	movs	r2, #1
 8002036:	2110      	movs	r1, #16
 8002038:	481b      	ldr	r0, [pc, #108]	@ (80020a8 <ST7789_WriteData+0x80>)
 800203a:	f002 f8d3 	bl	80041e4 <HAL_GPIO_WritePin>

    // split data in small chunks because HAL can't send more than 64K at once

    while (buff_size > 0) {
 800203e:	e02a      	b.n	8002096 <ST7789_WriteData+0x6e>
        uint16_t chunk_size = buff_size > 65535 ? 65535 : buff_size;
 8002040:	683b      	ldr	r3, [r7, #0]
 8002042:	f64f 72ff 	movw	r2, #65535	@ 0xffff
 8002046:	4293      	cmp	r3, r2
 8002048:	bf28      	it	cs
 800204a:	4613      	movcs	r3, r2
 800204c:	81fb      	strh	r3, [r7, #14]
#ifdef USE_DMA
        if (DMA_MIN_SIZE <= buff_size) {
 800204e:	4b17      	ldr	r3, [pc, #92]	@ (80020ac <ST7789_WriteData+0x84>)
 8002050:	881b      	ldrh	r3, [r3, #0]
 8002052:	461a      	mov	r2, r3
 8002054:	683b      	ldr	r3, [r7, #0]
 8002056:	4293      	cmp	r3, r2
 8002058:	d30e      	bcc.n	8002078 <ST7789_WriteData+0x50>
            HAL_SPI_Transmit_DMA(&ST7789_SPI_PORT, buff, chunk_size);
 800205a:	89fb      	ldrh	r3, [r7, #14]
 800205c:	461a      	mov	r2, r3
 800205e:	6879      	ldr	r1, [r7, #4]
 8002060:	4813      	ldr	r0, [pc, #76]	@ (80020b0 <ST7789_WriteData+0x88>)
 8002062:	f004 fb55 	bl	8006710 <HAL_SPI_Transmit_DMA>
            while (ST7789_SPI_PORT.hdmatx->State != HAL_DMA_STATE_READY) {
 8002066:	bf00      	nop
 8002068:	4b11      	ldr	r3, [pc, #68]	@ (80020b0 <ST7789_WriteData+0x88>)
 800206a:	6c9b      	ldr	r3, [r3, #72]	@ 0x48
 800206c:	f893 3021 	ldrb.w	r3, [r3, #33]	@ 0x21
 8002070:	b2db      	uxtb	r3, r3
 8002072:	2b01      	cmp	r3, #1
 8002074:	d1f8      	bne.n	8002068 <ST7789_WriteData+0x40>
 8002076:	e006      	b.n	8002086 <ST7789_WriteData+0x5e>
            }
        } else
            HAL_SPI_Transmit(&ST7789_SPI_PORT, buff, chunk_size, HAL_MAX_DELAY);
 8002078:	89fa      	ldrh	r2, [r7, #14]
 800207a:	f04f 33ff 	mov.w	r3, #4294967295
 800207e:	6879      	ldr	r1, [r7, #4]
 8002080:	480b      	ldr	r0, [pc, #44]	@ (80020b0 <ST7789_WriteData+0x88>)
 8002082:	f004 f851 	bl	8006128 <HAL_SPI_Transmit>
#else
			HAL_SPI_Transmit(&ST7789_SPI_PORT, buff, chunk_size, HAL_MAX_DELAY);
		#endif
        buff += chunk_size;
 8002086:	89fb      	ldrh	r3, [r7, #14]
 8002088:	687a      	ldr	r2, [r7, #4]
 800208a:	4413      	add	r3, r2
 800208c:	607b      	str	r3, [r7, #4]
        buff_size -= chunk_size;
 800208e:	89fb      	ldrh	r3, [r7, #14]
 8002090:	683a      	ldr	r2, [r7, #0]
 8002092:	1ad3      	subs	r3, r2, r3
 8002094:	603b      	str	r3, [r7, #0]
    while (buff_size > 0) {
 8002096:	683b      	ldr	r3, [r7, #0]
 8002098:	2b00      	cmp	r3, #0
 800209a:	d1d1      	bne.n	8002040 <ST7789_WriteData+0x18>
    }

    ST7789_UnSelect();
 800209c:	bf00      	nop
}
 800209e:	bf00      	nop
 80020a0:	3710      	adds	r7, #16
 80020a2:	46bd      	mov	sp, r7
 80020a4:	bd80      	pop	{r7, pc}
 80020a6:	bf00      	nop
 80020a8:	40010800 	.word	0x40010800
 80020ac:	20000610 	.word	0x20000610
 80020b0:	200008b8 	.word	0x200008b8

080020b4 <ST7789_WriteSmallData>:
/**
 * @brief Write data to ST7789 controller, simplify for 8bit data.
 * data -> data to write
 * @return none
 */
static void ST7789_WriteSmallData(uint8_t data) {
 80020b4:	b580      	push	{r7, lr}
 80020b6:	b082      	sub	sp, #8
 80020b8:	af00      	add	r7, sp, #0
 80020ba:	4603      	mov	r3, r0
 80020bc:	71fb      	strb	r3, [r7, #7]
    ST7789_Select();
 80020be:	bf00      	nop
    ST7789_DC_Set();
 80020c0:	2201      	movs	r2, #1
 80020c2:	2110      	movs	r1, #16
 80020c4:	4807      	ldr	r0, [pc, #28]	@ (80020e4 <ST7789_WriteSmallData+0x30>)
 80020c6:	f002 f88d 	bl	80041e4 <HAL_GPIO_WritePin>
    HAL_SPI_Transmit(&ST7789_SPI_PORT, &data, sizeof(data), HAL_MAX_DELAY);
 80020ca:	1df9      	adds	r1, r7, #7
 80020cc:	f04f 33ff 	mov.w	r3, #4294967295
 80020d0:	2201      	movs	r2, #1
 80020d2:	4805      	ldr	r0, [pc, #20]	@ (80020e8 <ST7789_WriteSmallData+0x34>)
 80020d4:	f004 f828 	bl	8006128 <HAL_SPI_Transmit>
    ST7789_UnSelect();
 80020d8:	bf00      	nop
}
 80020da:	bf00      	nop
 80020dc:	3708      	adds	r7, #8
 80020de:	46bd      	mov	sp, r7
 80020e0:	bd80      	pop	{r7, pc}
 80020e2:	bf00      	nop
 80020e4:	40010800 	.word	0x40010800
 80020e8:	200008b8 	.word	0x200008b8

080020ec <ST7789_SetRotation>:
/**
 * @brief Set the rotation direction of the display
 * @param m -> rotation parameter(please refer it in st7789.h)
 * @return none
 */
void ST7789_SetRotation(uint8_t m) {
 80020ec:	b580      	push	{r7, lr}
 80020ee:	b082      	sub	sp, #8
 80020f0:	af00      	add	r7, sp, #0
 80020f2:	4603      	mov	r3, r0
 80020f4:	71fb      	strb	r3, [r7, #7]
    ST7789_WriteCommand(ST7789_MADCTL);	// MADCTL
 80020f6:	2036      	movs	r0, #54	@ 0x36
 80020f8:	f7ff ff7a 	bl	8001ff0 <ST7789_WriteCommand>
    switch (m) {
 80020fc:	79fb      	ldrb	r3, [r7, #7]
 80020fe:	2b03      	cmp	r3, #3
 8002100:	d81a      	bhi.n	8002138 <ST7789_SetRotation+0x4c>
 8002102:	a201      	add	r2, pc, #4	@ (adr r2, 8002108 <ST7789_SetRotation+0x1c>)
 8002104:	f852 f023 	ldr.w	pc, [r2, r3, lsl #2]
 8002108:	08002119 	.word	0x08002119
 800210c:	08002121 	.word	0x08002121
 8002110:	08002129 	.word	0x08002129
 8002114:	08002131 	.word	0x08002131
    case 0:
        ST7789_WriteSmallData(ST7789_MADCTL_MX | ST7789_MADCTL_MY | ST7789_MADCTL_RGB);
 8002118:	20c0      	movs	r0, #192	@ 0xc0
 800211a:	f7ff ffcb 	bl	80020b4 <ST7789_WriteSmallData>
        break;
 800211e:	e00c      	b.n	800213a <ST7789_SetRotation+0x4e>
    case 1:
        ST7789_WriteSmallData(ST7789_MADCTL_MY | ST7789_MADCTL_MV | ST7789_MADCTL_RGB);
 8002120:	20a0      	movs	r0, #160	@ 0xa0
 8002122:	f7ff ffc7 	bl	80020b4 <ST7789_WriteSmallData>
        break;
 8002126:	e008      	b.n	800213a <ST7789_SetRotation+0x4e>
    case 2:
        ST7789_WriteSmallData(ST7789_MADCTL_RGB);
 8002128:	2000      	movs	r0, #0
 800212a:	f7ff ffc3 	bl	80020b4 <ST7789_WriteSmallData>
        break;
 800212e:	e004      	b.n	800213a <ST7789_SetRotation+0x4e>
    case 3:
        ST7789_WriteSmallData(ST7789_MADCTL_MX | ST7789_MADCTL_MV | ST7789_MADCTL_RGB);
 8002130:	2060      	movs	r0, #96	@ 0x60
 8002132:	f7ff ffbf 	bl	80020b4 <ST7789_WriteSmallData>
        break;
 8002136:	e000      	b.n	800213a <ST7789_SetRotation+0x4e>
    default:
        break;
 8002138:	bf00      	nop
    }
}
 800213a:	bf00      	nop
 800213c:	3708      	adds	r7, #8
 800213e:	46bd      	mov	sp, r7
 8002140:	bd80      	pop	{r7, pc}
 8002142:	bf00      	nop

08002144 <ST7789_SetAddressWindow>:
/**
 * @brief Set address of DisplayWindow
 * @param xi&yi -> coordinates of window
 * @return none
 */
static void ST7789_SetAddressWindow(uint16_t x0, uint16_t y0, uint16_t x1, uint16_t y1) {
 8002144:	b590      	push	{r4, r7, lr}
 8002146:	b087      	sub	sp, #28
 8002148:	af00      	add	r7, sp, #0
 800214a:	4604      	mov	r4, r0
 800214c:	4608      	mov	r0, r1
 800214e:	4611      	mov	r1, r2
 8002150:	461a      	mov	r2, r3
 8002152:	4623      	mov	r3, r4
 8002154:	80fb      	strh	r3, [r7, #6]
 8002156:	4603      	mov	r3, r0
 8002158:	80bb      	strh	r3, [r7, #4]
 800215a:	460b      	mov	r3, r1
 800215c:	807b      	strh	r3, [r7, #2]
 800215e:	4613      	mov	r3, r2
 8002160:	803b      	strh	r3, [r7, #0]
    ST7789_Select();
 8002162:	bf00      	nop
    uint16_t x_start = x0 + X_SHIFT, x_end = x1 + X_SHIFT;
 8002164:	88fb      	ldrh	r3, [r7, #6]
 8002166:	82fb      	strh	r3, [r7, #22]
 8002168:	887b      	ldrh	r3, [r7, #2]
 800216a:	82bb      	strh	r3, [r7, #20]
    uint16_t y_start = y0 + Y_SHIFT, y_end = y1 + Y_SHIFT;
 800216c:	88bb      	ldrh	r3, [r7, #4]
 800216e:	827b      	strh	r3, [r7, #18]
 8002170:	883b      	ldrh	r3, [r7, #0]
 8002172:	823b      	strh	r3, [r7, #16]

    /* Column Address set */
    ST7789_WriteCommand(ST7789_CASET);
 8002174:	202a      	movs	r0, #42	@ 0x2a
 8002176:	f7ff ff3b 	bl	8001ff0 <ST7789_WriteCommand>
    {
        uint8_t data[] = { x_start >> 8, x_start & 0xFF, x_end >> 8, x_end & 0xFF };
 800217a:	8afb      	ldrh	r3, [r7, #22]
 800217c:	0a1b      	lsrs	r3, r3, #8
 800217e:	b29b      	uxth	r3, r3
 8002180:	b2db      	uxtb	r3, r3
 8002182:	733b      	strb	r3, [r7, #12]
 8002184:	8afb      	ldrh	r3, [r7, #22]
 8002186:	b2db      	uxtb	r3, r3
 8002188:	737b      	strb	r3, [r7, #13]
 800218a:	8abb      	ldrh	r3, [r7, #20]
 800218c:	0a1b      	lsrs	r3, r3, #8
 800218e:	b29b      	uxth	r3, r3
 8002190:	b2db      	uxtb	r3, r3
 8002192:	73bb      	strb	r3, [r7, #14]
 8002194:	8abb      	ldrh	r3, [r7, #20]
 8002196:	b2db      	uxtb	r3, r3
 8002198:	73fb      	strb	r3, [r7, #15]
        ST7789_WriteData(data, sizeof(data));
 800219a:	f107 030c 	add.w	r3, r7, #12
 800219e:	2104      	movs	r1, #4
 80021a0:	4618      	mov	r0, r3
 80021a2:	f7ff ff41 	bl	8002028 <ST7789_WriteData>
    }

    /* Row Address set */
    ST7789_WriteCommand(ST7789_RASET);
 80021a6:	202b      	movs	r0, #43	@ 0x2b
 80021a8:	f7ff ff22 	bl	8001ff0 <ST7789_WriteCommand>
    {
        uint8_t data[] = { y_start >> 8, y_start & 0xFF, y_end >> 8, y_end & 0xFF };
 80021ac:	8a7b      	ldrh	r3, [r7, #18]
 80021ae:	0a1b      	lsrs	r3, r3, #8
 80021b0:	b29b      	uxth	r3, r3
 80021b2:	b2db      	uxtb	r3, r3
 80021b4:	723b      	strb	r3, [r7, #8]
 80021b6:	8a7b      	ldrh	r3, [r7, #18]
 80021b8:	b2db      	uxtb	r3, r3
 80021ba:	727b      	strb	r3, [r7, #9]
 80021bc:	8a3b      	ldrh	r3, [r7, #16]
 80021be:	0a1b      	lsrs	r3, r3, #8
 80021c0:	b29b      	uxth	r3, r3
 80021c2:	b2db      	uxtb	r3, r3
 80021c4:	72bb      	strb	r3, [r7, #10]
 80021c6:	8a3b      	ldrh	r3, [r7, #16]
 80021c8:	b2db      	uxtb	r3, r3
 80021ca:	72fb      	strb	r3, [r7, #11]
        ST7789_WriteData(data, sizeof(data));
 80021cc:	f107 0308 	add.w	r3, r7, #8
 80021d0:	2104      	movs	r1, #4
 80021d2:	4618      	mov	r0, r3
 80021d4:	f7ff ff28 	bl	8002028 <ST7789_WriteData>
    }
    /* Write to RAM */
    ST7789_WriteCommand(ST7789_RAMWR);
 80021d8:	202c      	movs	r0, #44	@ 0x2c
 80021da:	f7ff ff09 	bl	8001ff0 <ST7789_WriteCommand>
    ST7789_UnSelect();
 80021de:	bf00      	nop
}
 80021e0:	bf00      	nop
 80021e2:	371c      	adds	r7, #28
 80021e4:	46bd      	mov	sp, r7
 80021e6:	bd90      	pop	{r4, r7, pc}

080021e8 <ST7789_Init>:
/**
 * @brief Initialize ST7789 controller
 * @param none
 * @return none
 */
void ST7789_Init(void) {
 80021e8:	b590      	push	{r4, r7, lr}
 80021ea:	b08b      	sub	sp, #44	@ 0x2c
 80021ec:	af00      	add	r7, sp, #0
#ifdef USE_DMA
    memset(disp_buf, 0, sizeof(disp_buf));
 80021ee:	f44f 6216 	mov.w	r2, #2400	@ 0x960
 80021f2:	2100      	movs	r1, #0
 80021f4:	484b      	ldr	r0, [pc, #300]	@ (8002324 <ST7789_Init+0x13c>)
 80021f6:	f009 f8f1 	bl	800b3dc <memset>
#endif
    HAL_Delay(100);
 80021fa:	2064      	movs	r0, #100	@ 0x64
 80021fc:	f000 fe76 	bl	8002eec <HAL_Delay>
    ST7789_RST_Clr();
 8002200:	2200      	movs	r2, #0
 8002202:	f44f 5100 	mov.w	r1, #8192	@ 0x2000
 8002206:	4848      	ldr	r0, [pc, #288]	@ (8002328 <ST7789_Init+0x140>)
 8002208:	f001 ffec 	bl	80041e4 <HAL_GPIO_WritePin>
    HAL_Delay(100);
 800220c:	2064      	movs	r0, #100	@ 0x64
 800220e:	f000 fe6d 	bl	8002eec <HAL_Delay>
    ST7789_RST_Set();
 8002212:	2201      	movs	r2, #1
 8002214:	f44f 5100 	mov.w	r1, #8192	@ 0x2000
 8002218:	4843      	ldr	r0, [pc, #268]	@ (8002328 <ST7789_Init+0x140>)
 800221a:	f001 ffe3 	bl	80041e4 <HAL_GPIO_WritePin>
    HAL_Delay(120);
 800221e:	2078      	movs	r0, #120	@ 0x78
 8002220:	f000 fe64 	bl	8002eec <HAL_Delay>

    ST7789_WriteCommand(ST7789_COLMOD);		//	Set color mode
 8002224:	203a      	movs	r0, #58	@ 0x3a
 8002226:	f7ff fee3 	bl	8001ff0 <ST7789_WriteCommand>
    ST7789_WriteSmallData(ST7789_COLOR_MODE_16bit);
 800222a:	2005      	movs	r0, #5
 800222c:	f7ff ff42 	bl	80020b4 <ST7789_WriteSmallData>
    ST7789_WriteCommand(0xB2);				//	Porch control
 8002230:	20b2      	movs	r0, #178	@ 0xb2
 8002232:	f7ff fedd 	bl	8001ff0 <ST7789_WriteCommand>
    {
        uint8_t data[] = { 0x0C, 0x0C, 0x00, 0x33, 0x33 };
 8002236:	4a3d      	ldr	r2, [pc, #244]	@ (800232c <ST7789_Init+0x144>)
 8002238:	f107 0320 	add.w	r3, r7, #32
 800223c:	e892 0003 	ldmia.w	r2, {r0, r1}
 8002240:	6018      	str	r0, [r3, #0]
 8002242:	3304      	adds	r3, #4
 8002244:	7019      	strb	r1, [r3, #0]
        ST7789_WriteData(data, sizeof(data));
 8002246:	f107 0320 	add.w	r3, r7, #32
 800224a:	2105      	movs	r1, #5
 800224c:	4618      	mov	r0, r3
 800224e:	f7ff feeb 	bl	8002028 <ST7789_WriteData>
    }
    ST7789_SetRotation(ST7789_ROTATION);	//	MADCTL (Display Rotation)
 8002252:	2002      	movs	r0, #2
 8002254:	f7ff ff4a 	bl	80020ec <ST7789_SetRotation>

    /* Internal LCD Voltage generator settings */
    ST7789_WriteCommand(0XB7);				//	Gate Control
 8002258:	20b7      	movs	r0, #183	@ 0xb7
 800225a:	f7ff fec9 	bl	8001ff0 <ST7789_WriteCommand>
    ST7789_WriteSmallData(0x35);			//	Default value
 800225e:	2035      	movs	r0, #53	@ 0x35
 8002260:	f7ff ff28 	bl	80020b4 <ST7789_WriteSmallData>
    ST7789_WriteCommand(0xBB);				//	VCOM setting
 8002264:	20bb      	movs	r0, #187	@ 0xbb
 8002266:	f7ff fec3 	bl	8001ff0 <ST7789_WriteCommand>
    ST7789_WriteSmallData(0x32);			//	1.35V (default 0.75v for 0x20)
 800226a:	2032      	movs	r0, #50	@ 0x32
 800226c:	f7ff ff22 	bl	80020b4 <ST7789_WriteSmallData>
    ST7789_WriteCommand(0xC0);				//	LCMCTRL
 8002270:	20c0      	movs	r0, #192	@ 0xc0
 8002272:	f7ff febd 	bl	8001ff0 <ST7789_WriteCommand>
    ST7789_WriteSmallData(0x2C);			//	Default value
 8002276:	202c      	movs	r0, #44	@ 0x2c
 8002278:	f7ff ff1c 	bl	80020b4 <ST7789_WriteSmallData>
    ST7789_WriteCommand(0xC2);				//	VDV and VRH command Enable
 800227c:	20c2      	movs	r0, #194	@ 0xc2
 800227e:	f7ff feb7 	bl	8001ff0 <ST7789_WriteCommand>
    ST7789_WriteSmallData(0x01);			//	Default value
 8002282:	2001      	movs	r0, #1
 8002284:	f7ff ff16 	bl	80020b4 <ST7789_WriteSmallData>
    ST7789_WriteCommand(0xC3);				//	VRH set
 8002288:	20c3      	movs	r0, #195	@ 0xc3
 800228a:	f7ff feb1 	bl	8001ff0 <ST7789_WriteCommand>
    ST7789_WriteSmallData(0x15);			//	+-4.8v (defalut +-4.1v for 0x0B)
 800228e:	2015      	movs	r0, #21
 8002290:	f7ff ff10 	bl	80020b4 <ST7789_WriteSmallData>
    ST7789_WriteCommand(0xC4);				//	VDV set
 8002294:	20c4      	movs	r0, #196	@ 0xc4
 8002296:	f7ff feab 	bl	8001ff0 <ST7789_WriteCommand>
    ST7789_WriteSmallData(0x20);			//	Default value
 800229a:	2020      	movs	r0, #32
 800229c:	f7ff ff0a 	bl	80020b4 <ST7789_WriteSmallData>
    ST7789_WriteCommand(0xC6);				//	Frame rate control in normal mode
 80022a0:	20c6      	movs	r0, #198	@ 0xc6
 80022a2:	f7ff fea5 	bl	8001ff0 <ST7789_WriteCommand>
    ST7789_WriteSmallData(0x0F);			//	Default value (60HZ)
 80022a6:	200f      	movs	r0, #15
 80022a8:	f7ff ff04 	bl	80020b4 <ST7789_WriteSmallData>
    ST7789_WriteCommand(0xD0);				//	Power control
 80022ac:	20d0      	movs	r0, #208	@ 0xd0
 80022ae:	f7ff fe9f 	bl	8001ff0 <ST7789_WriteCommand>
    ST7789_WriteSmallData(0xA4);			//	Default value
 80022b2:	20a4      	movs	r0, #164	@ 0xa4
 80022b4:	f7ff fefe 	bl	80020b4 <ST7789_WriteSmallData>
    ST7789_WriteSmallData(0xA1);			//	Default value
 80022b8:	20a1      	movs	r0, #161	@ 0xa1
 80022ba:	f7ff fefb 	bl	80020b4 <ST7789_WriteSmallData>
    /**************** Division line ****************/

    ST7789_WriteCommand(0xE0);
 80022be:	20e0      	movs	r0, #224	@ 0xe0
 80022c0:	f7ff fe96 	bl	8001ff0 <ST7789_WriteCommand>
    {
        uint8_t data[] = { 0xD0, 0x08, 0x0E, 0x09, 0x09, 0x05, 0x31, 0x33, 0x48, 0x17, 0x14, 0x15, 0x31, 0x34 };
 80022c4:	4b1a      	ldr	r3, [pc, #104]	@ (8002330 <ST7789_Init+0x148>)
 80022c6:	f107 0410 	add.w	r4, r7, #16
 80022ca:	cb0f      	ldmia	r3, {r0, r1, r2, r3}
 80022cc:	c407      	stmia	r4!, {r0, r1, r2}
 80022ce:	8023      	strh	r3, [r4, #0]
        ST7789_WriteData(data, sizeof(data));
 80022d0:	f107 0310 	add.w	r3, r7, #16
 80022d4:	210e      	movs	r1, #14
 80022d6:	4618      	mov	r0, r3
 80022d8:	f7ff fea6 	bl	8002028 <ST7789_WriteData>
    }

    ST7789_WriteCommand(0xE1);
 80022dc:	20e1      	movs	r0, #225	@ 0xe1
 80022de:	f7ff fe87 	bl	8001ff0 <ST7789_WriteCommand>
    {
        uint8_t data[] = { 0xD0, 0x08, 0x0E, 0x09, 0x09, 0x15, 0x31, 0x33, 0x48, 0x17, 0x14, 0x15, 0x31, 0x34 };
 80022e2:	4b14      	ldr	r3, [pc, #80]	@ (8002334 <ST7789_Init+0x14c>)
 80022e4:	463c      	mov	r4, r7
 80022e6:	cb0f      	ldmia	r3, {r0, r1, r2, r3}
 80022e8:	c407      	stmia	r4!, {r0, r1, r2}
 80022ea:	8023      	strh	r3, [r4, #0]
        ST7789_WriteData(data, sizeof(data));
 80022ec:	463b      	mov	r3, r7
 80022ee:	210e      	movs	r1, #14
 80022f0:	4618      	mov	r0, r3
 80022f2:	f7ff fe99 	bl	8002028 <ST7789_WriteData>
    }
    ST7789_WriteCommand(ST7789_INVON);		//	Inversion ON
 80022f6:	2021      	movs	r0, #33	@ 0x21
 80022f8:	f7ff fe7a 	bl	8001ff0 <ST7789_WriteCommand>
    ST7789_WriteCommand(ST7789_SLPOUT);	//	Out of sleep mode
 80022fc:	2011      	movs	r0, #17
 80022fe:	f7ff fe77 	bl	8001ff0 <ST7789_WriteCommand>
    ST7789_WriteCommand(ST7789_NORON);		//	Normal Display on
 8002302:	2013      	movs	r0, #19
 8002304:	f7ff fe74 	bl	8001ff0 <ST7789_WriteCommand>
    ST7789_WriteCommand(ST7789_DISPON);	//	Main screen turned on
 8002308:	2029      	movs	r0, #41	@ 0x29
 800230a:	f7ff fe71 	bl	8001ff0 <ST7789_WriteCommand>

    HAL_Delay(50);
 800230e:	2032      	movs	r0, #50	@ 0x32
 8002310:	f000 fdec 	bl	8002eec <HAL_Delay>
    ST7789_Fill_Color(BLACK);				//	Fill with Black.
 8002314:	2000      	movs	r0, #0
 8002316:	f000 f80f 	bl	8002338 <ST7789_Fill_Color>
}
 800231a:	bf00      	nop
 800231c:	372c      	adds	r7, #44	@ 0x2c
 800231e:	46bd      	mov	sp, r7
 8002320:	bd90      	pop	{r4, r7, pc}
 8002322:	bf00      	nop
 8002324:	200009ac 	.word	0x200009ac
 8002328:	40011000 	.word	0x40011000
 800232c:	0800bd44 	.word	0x0800bd44
 8002330:	0800bd4c 	.word	0x0800bd4c
 8002334:	0800bd5c 	.word	0x0800bd5c

08002338 <ST7789_Fill_Color>:
/**
 * @brief Fill the DisplayWindow with single color
 * @param color -> color to Fill with
 * @return none
 */
void ST7789_Fill_Color(uint16_t color) {
 8002338:	b580      	push	{r7, lr}
 800233a:	b084      	sub	sp, #16
 800233c:	af00      	add	r7, sp, #0
 800233e:	4603      	mov	r3, r0
 8002340:	80fb      	strh	r3, [r7, #6]
    uint16_t i;
    ST7789_SetAddressWindow(0, 0, ST7789_WIDTH - 1, ST7789_HEIGHT - 1);
 8002342:	f240 133f 	movw	r3, #319	@ 0x13f
 8002346:	22ef      	movs	r2, #239	@ 0xef
 8002348:	2100      	movs	r1, #0
 800234a:	2000      	movs	r0, #0
 800234c:	f7ff fefa 	bl	8002144 <ST7789_SetAddressWindow>
    ST7789_Select();
 8002350:	bf00      	nop

#ifdef USE_DMA
    for (i = 0; i < ST7789_HEIGHT / HOR_LEN; i++) {
 8002352:	2300      	movs	r3, #0
 8002354:	81fb      	strh	r3, [r7, #14]
 8002356:	e00e      	b.n	8002376 <ST7789_Fill_Color+0x3e>
        memset(disp_buf, color, sizeof(disp_buf));
 8002358:	88fb      	ldrh	r3, [r7, #6]
 800235a:	f44f 6216 	mov.w	r2, #2400	@ 0x960
 800235e:	4619      	mov	r1, r3
 8002360:	4809      	ldr	r0, [pc, #36]	@ (8002388 <ST7789_Fill_Color+0x50>)
 8002362:	f009 f83b 	bl	800b3dc <memset>
        ST7789_WriteData(disp_buf, sizeof(disp_buf));
 8002366:	f44f 6116 	mov.w	r1, #2400	@ 0x960
 800236a:	4807      	ldr	r0, [pc, #28]	@ (8002388 <ST7789_Fill_Color+0x50>)
 800236c:	f7ff fe5c 	bl	8002028 <ST7789_WriteData>
    for (i = 0; i < ST7789_HEIGHT / HOR_LEN; i++) {
 8002370:	89fb      	ldrh	r3, [r7, #14]
 8002372:	3301      	adds	r3, #1
 8002374:	81fb      	strh	r3, [r7, #14]
 8002376:	89fb      	ldrh	r3, [r7, #14]
 8002378:	2b3f      	cmp	r3, #63	@ 0x3f
 800237a:	d9ed      	bls.n	8002358 <ST7789_Fill_Color+0x20>
				for (j = 0; j < ST7789_HEIGHT; j++) {
					uint8_t data[] = {color >> 8, color & 0xFF};
					ST7789_WriteData(data, sizeof(data));
				}
	#endif
    ST7789_UnSelect();
 800237c:	bf00      	nop
}
 800237e:	bf00      	nop
 8002380:	3710      	adds	r7, #16
 8002382:	46bd      	mov	sp, r7
 8002384:	bd80      	pop	{r7, pc}
 8002386:	bf00      	nop
 8002388:	200009ac 	.word	0x200009ac

0800238c <ST7789_DrawPixel>:
 * @brief Draw a Pixel
 * @param x&y -> coordinate to Draw
 * @param color -> color of the Pixel
 * @return none
 */
void ST7789_DrawPixel(uint16_t x, uint16_t y, uint16_t color) {
 800238c:	b580      	push	{r7, lr}
 800238e:	b084      	sub	sp, #16
 8002390:	af00      	add	r7, sp, #0
 8002392:	4603      	mov	r3, r0
 8002394:	80fb      	strh	r3, [r7, #6]
 8002396:	460b      	mov	r3, r1
 8002398:	80bb      	strh	r3, [r7, #4]
 800239a:	4613      	mov	r3, r2
 800239c:	807b      	strh	r3, [r7, #2]
    if ((x < 0) || (x >= ST7789_WIDTH) || (y < 0) || (y >= ST7789_HEIGHT))
 800239e:	88fb      	ldrh	r3, [r7, #6]
 80023a0:	2bef      	cmp	r3, #239	@ 0xef
 80023a2:	d81a      	bhi.n	80023da <ST7789_DrawPixel+0x4e>
 80023a4:	88bb      	ldrh	r3, [r7, #4]
 80023a6:	f5b3 7fa0 	cmp.w	r3, #320	@ 0x140
 80023aa:	d216      	bcs.n	80023da <ST7789_DrawPixel+0x4e>
        return;

    ST7789_SetAddressWindow(x, y, x, y);
 80023ac:	88bb      	ldrh	r3, [r7, #4]
 80023ae:	88fa      	ldrh	r2, [r7, #6]
 80023b0:	88b9      	ldrh	r1, [r7, #4]
 80023b2:	88f8      	ldrh	r0, [r7, #6]
 80023b4:	f7ff fec6 	bl	8002144 <ST7789_SetAddressWindow>
    uint8_t data[] = { color >> 8, color & 0xFF };
 80023b8:	887b      	ldrh	r3, [r7, #2]
 80023ba:	0a1b      	lsrs	r3, r3, #8
 80023bc:	b29b      	uxth	r3, r3
 80023be:	b2db      	uxtb	r3, r3
 80023c0:	733b      	strb	r3, [r7, #12]
 80023c2:	887b      	ldrh	r3, [r7, #2]
 80023c4:	b2db      	uxtb	r3, r3
 80023c6:	737b      	strb	r3, [r7, #13]
    ST7789_Select();
 80023c8:	bf00      	nop
    ST7789_WriteData(data, sizeof(data));
 80023ca:	f107 030c 	add.w	r3, r7, #12
 80023ce:	2102      	movs	r1, #2
 80023d0:	4618      	mov	r0, r3
 80023d2:	f7ff fe29 	bl	8002028 <ST7789_WriteData>
    ST7789_UnSelect();
 80023d6:	bf00      	nop
 80023d8:	e000      	b.n	80023dc <ST7789_DrawPixel+0x50>
        return;
 80023da:	bf00      	nop
}
 80023dc:	3710      	adds	r7, #16
 80023de:	46bd      	mov	sp, r7
 80023e0:	bd80      	pop	{r7, pc}

080023e2 <ST7789_DrawLine>:
 * @param x1&y1 -> coordinate of the start point
 * @param x2&y2 -> coordinate of the end point
 * @param color -> color of the line to Draw
 * @return none
 */
void ST7789_DrawLine(uint16_t x0, uint16_t y0, uint16_t x1, uint16_t y1, uint16_t color) {
 80023e2:	b590      	push	{r4, r7, lr}
 80023e4:	b087      	sub	sp, #28
 80023e6:	af00      	add	r7, sp, #0
 80023e8:	4604      	mov	r4, r0
 80023ea:	4608      	mov	r0, r1
 80023ec:	4611      	mov	r1, r2
 80023ee:	461a      	mov	r2, r3
 80023f0:	4623      	mov	r3, r4
 80023f2:	80fb      	strh	r3, [r7, #6]
 80023f4:	4603      	mov	r3, r0
 80023f6:	80bb      	strh	r3, [r7, #4]
 80023f8:	460b      	mov	r3, r1
 80023fa:	807b      	strh	r3, [r7, #2]
 80023fc:	4613      	mov	r3, r2
 80023fe:	803b      	strh	r3, [r7, #0]
    uint16_t swap;
    uint16_t steep = ABS(y1 - y0) > ABS(x1 - x0);
 8002400:	883a      	ldrh	r2, [r7, #0]
 8002402:	88bb      	ldrh	r3, [r7, #4]
 8002404:	1ad3      	subs	r3, r2, r3
 8002406:	ea83 72e3 	eor.w	r2, r3, r3, asr #31
 800240a:	eba2 72e3 	sub.w	r2, r2, r3, asr #31
 800240e:	8879      	ldrh	r1, [r7, #2]
 8002410:	88fb      	ldrh	r3, [r7, #6]
 8002412:	1acb      	subs	r3, r1, r3
 8002414:	2b00      	cmp	r3, #0
 8002416:	bfb8      	it	lt
 8002418:	425b      	neglt	r3, r3
 800241a:	429a      	cmp	r2, r3
 800241c:	bfcc      	ite	gt
 800241e:	2301      	movgt	r3, #1
 8002420:	2300      	movle	r3, #0
 8002422:	b2db      	uxtb	r3, r3
 8002424:	827b      	strh	r3, [r7, #18]
    if (steep) {
 8002426:	8a7b      	ldrh	r3, [r7, #18]
 8002428:	2b00      	cmp	r3, #0
 800242a:	d00b      	beq.n	8002444 <ST7789_DrawLine+0x62>
        swap = x0;
 800242c:	88fb      	ldrh	r3, [r7, #6]
 800242e:	823b      	strh	r3, [r7, #16]
        x0 = y0;
 8002430:	88bb      	ldrh	r3, [r7, #4]
 8002432:	80fb      	strh	r3, [r7, #6]
        y0 = swap;
 8002434:	8a3b      	ldrh	r3, [r7, #16]
 8002436:	80bb      	strh	r3, [r7, #4]

        swap = x1;
 8002438:	887b      	ldrh	r3, [r7, #2]
 800243a:	823b      	strh	r3, [r7, #16]
        x1 = y1;
 800243c:	883b      	ldrh	r3, [r7, #0]
 800243e:	807b      	strh	r3, [r7, #2]
        y1 = swap;
 8002440:	8a3b      	ldrh	r3, [r7, #16]
 8002442:	803b      	strh	r3, [r7, #0]
        //_swap_int16_t(x0, y0);
        //_swap_int16_t(x1, y1);
    }

    if (x0 > x1) {
 8002444:	88fa      	ldrh	r2, [r7, #6]
 8002446:	887b      	ldrh	r3, [r7, #2]
 8002448:	429a      	cmp	r2, r3
 800244a:	d90b      	bls.n	8002464 <ST7789_DrawLine+0x82>
        swap = x0;
 800244c:	88fb      	ldrh	r3, [r7, #6]
 800244e:	823b      	strh	r3, [r7, #16]
        x0 = x1;
 8002450:	887b      	ldrh	r3, [r7, #2]
 8002452:	80fb      	strh	r3, [r7, #6]
        x1 = swap;
 8002454:	8a3b      	ldrh	r3, [r7, #16]
 8002456:	807b      	strh	r3, [r7, #2]

        swap = y0;
 8002458:	88bb      	ldrh	r3, [r7, #4]
 800245a:	823b      	strh	r3, [r7, #16]
        y0 = y1;
 800245c:	883b      	ldrh	r3, [r7, #0]
 800245e:	80bb      	strh	r3, [r7, #4]
        y1 = swap;
 8002460:	8a3b      	ldrh	r3, [r7, #16]
 8002462:	803b      	strh	r3, [r7, #0]
        //_swap_int16_t(x0, x1);
        //_swap_int16_t(y0, y1);
    }

    int16_t dx, dy;
    dx = x1 - x0;
 8002464:	887a      	ldrh	r2, [r7, #2]
 8002466:	88fb      	ldrh	r3, [r7, #6]
 8002468:	1ad3      	subs	r3, r2, r3
 800246a:	b29b      	uxth	r3, r3
 800246c:	81fb      	strh	r3, [r7, #14]
    dy = ABS(y1 - y0);
 800246e:	883a      	ldrh	r2, [r7, #0]
 8002470:	88bb      	ldrh	r3, [r7, #4]
 8002472:	1ad3      	subs	r3, r2, r3
 8002474:	2b00      	cmp	r3, #0
 8002476:	bfb8      	it	lt
 8002478:	425b      	neglt	r3, r3
 800247a:	81bb      	strh	r3, [r7, #12]

    int16_t err = dx / 2;
 800247c:	f9b7 300e 	ldrsh.w	r3, [r7, #14]
 8002480:	0fda      	lsrs	r2, r3, #31
 8002482:	4413      	add	r3, r2
 8002484:	105b      	asrs	r3, r3, #1
 8002486:	82fb      	strh	r3, [r7, #22]
    int16_t ystep;

    if (y0 < y1) {
 8002488:	88ba      	ldrh	r2, [r7, #4]
 800248a:	883b      	ldrh	r3, [r7, #0]
 800248c:	429a      	cmp	r2, r3
 800248e:	d202      	bcs.n	8002496 <ST7789_DrawLine+0xb4>
        ystep = 1;
 8002490:	2301      	movs	r3, #1
 8002492:	82bb      	strh	r3, [r7, #20]
 8002494:	e028      	b.n	80024e8 <ST7789_DrawLine+0x106>
    } else {
        ystep = -1;
 8002496:	f64f 73ff 	movw	r3, #65535	@ 0xffff
 800249a:	82bb      	strh	r3, [r7, #20]
    }

    for (; x0 <= x1; x0++) {
 800249c:	e024      	b.n	80024e8 <ST7789_DrawLine+0x106>
        if (steep) {
 800249e:	8a7b      	ldrh	r3, [r7, #18]
 80024a0:	2b00      	cmp	r3, #0
 80024a2:	d006      	beq.n	80024b2 <ST7789_DrawLine+0xd0>
            ST7789_DrawPixel(y0, x0, color);
 80024a4:	8d3a      	ldrh	r2, [r7, #40]	@ 0x28
 80024a6:	88f9      	ldrh	r1, [r7, #6]
 80024a8:	88bb      	ldrh	r3, [r7, #4]
 80024aa:	4618      	mov	r0, r3
 80024ac:	f7ff ff6e 	bl	800238c <ST7789_DrawPixel>
 80024b0:	e005      	b.n	80024be <ST7789_DrawLine+0xdc>
        } else {
            ST7789_DrawPixel(x0, y0, color);
 80024b2:	8d3a      	ldrh	r2, [r7, #40]	@ 0x28
 80024b4:	88b9      	ldrh	r1, [r7, #4]
 80024b6:	88fb      	ldrh	r3, [r7, #6]
 80024b8:	4618      	mov	r0, r3
 80024ba:	f7ff ff67 	bl	800238c <ST7789_DrawPixel>
        }
        err -= dy;
 80024be:	8afa      	ldrh	r2, [r7, #22]
 80024c0:	89bb      	ldrh	r3, [r7, #12]
 80024c2:	1ad3      	subs	r3, r2, r3
 80024c4:	b29b      	uxth	r3, r3
 80024c6:	82fb      	strh	r3, [r7, #22]
        if (err < 0) {
 80024c8:	f9b7 3016 	ldrsh.w	r3, [r7, #22]
 80024cc:	2b00      	cmp	r3, #0
 80024ce:	da08      	bge.n	80024e2 <ST7789_DrawLine+0x100>
            y0 += ystep;
 80024d0:	8aba      	ldrh	r2, [r7, #20]
 80024d2:	88bb      	ldrh	r3, [r7, #4]
 80024d4:	4413      	add	r3, r2
 80024d6:	80bb      	strh	r3, [r7, #4]
            err += dx;
 80024d8:	8afa      	ldrh	r2, [r7, #22]
 80024da:	89fb      	ldrh	r3, [r7, #14]
 80024dc:	4413      	add	r3, r2
 80024de:	b29b      	uxth	r3, r3
 80024e0:	82fb      	strh	r3, [r7, #22]
    for (; x0 <= x1; x0++) {
 80024e2:	88fb      	ldrh	r3, [r7, #6]
 80024e4:	3301      	adds	r3, #1
 80024e6:	80fb      	strh	r3, [r7, #6]
 80024e8:	88fa      	ldrh	r2, [r7, #6]
 80024ea:	887b      	ldrh	r3, [r7, #2]
 80024ec:	429a      	cmp	r2, r3
 80024ee:	d9d6      	bls.n	800249e <ST7789_DrawLine+0xbc>
        }
    }
}
 80024f0:	bf00      	nop
 80024f2:	bf00      	nop
 80024f4:	371c      	adds	r7, #28
 80024f6:	46bd      	mov	sp, r7
 80024f8:	bd90      	pop	{r4, r7, pc}

080024fa <ST7789_WriteChar>:
 * @param font -> fontstyle of the string
 * @param color -> color of the char
 * @param bgcolor -> background color of the char
 * @return  none
 */
void ST7789_WriteChar(uint16_t x, uint16_t y, char ch, FontDef font, uint16_t color, uint16_t bgcolor) {
 80024fa:	b082      	sub	sp, #8
 80024fc:	b580      	push	{r7, lr}
 80024fe:	b088      	sub	sp, #32
 8002500:	af00      	add	r7, sp, #0
 8002502:	62fb      	str	r3, [r7, #44]	@ 0x2c
 8002504:	4603      	mov	r3, r0
 8002506:	80fb      	strh	r3, [r7, #6]
 8002508:	460b      	mov	r3, r1
 800250a:	80bb      	strh	r3, [r7, #4]
 800250c:	4613      	mov	r3, r2
 800250e:	70fb      	strb	r3, [r7, #3]
    uint32_t i, b, j;
    ST7789_Select();
 8002510:	bf00      	nop
    ST7789_SetAddressWindow(x, y, x + font.width - 1, y + font.height - 1);
 8002512:	f897 302c 	ldrb.w	r3, [r7, #44]	@ 0x2c
 8002516:	461a      	mov	r2, r3
 8002518:	88fb      	ldrh	r3, [r7, #6]
 800251a:	4413      	add	r3, r2
 800251c:	b29b      	uxth	r3, r3
 800251e:	3b01      	subs	r3, #1
 8002520:	b29a      	uxth	r2, r3
 8002522:	f897 302d 	ldrb.w	r3, [r7, #45]	@ 0x2d
 8002526:	4619      	mov	r1, r3
 8002528:	88bb      	ldrh	r3, [r7, #4]
 800252a:	440b      	add	r3, r1
 800252c:	b29b      	uxth	r3, r3
 800252e:	3b01      	subs	r3, #1
 8002530:	b29b      	uxth	r3, r3
 8002532:	88b9      	ldrh	r1, [r7, #4]
 8002534:	88f8      	ldrh	r0, [r7, #6]
 8002536:	f7ff fe05 	bl	8002144 <ST7789_SetAddressWindow>

    for (i = 0; i < font.height; i++) {
 800253a:	2300      	movs	r3, #0
 800253c:	61fb      	str	r3, [r7, #28]
 800253e:	e041      	b.n	80025c4 <ST7789_WriteChar+0xca>
        b = font.data[(ch - 32) * font.height + i];
 8002540:	6b3a      	ldr	r2, [r7, #48]	@ 0x30
 8002542:	78fb      	ldrb	r3, [r7, #3]
 8002544:	3b20      	subs	r3, #32
 8002546:	f897 102d 	ldrb.w	r1, [r7, #45]	@ 0x2d
 800254a:	fb01 f303 	mul.w	r3, r1, r3
 800254e:	4619      	mov	r1, r3
 8002550:	69fb      	ldr	r3, [r7, #28]
 8002552:	440b      	add	r3, r1
 8002554:	005b      	lsls	r3, r3, #1
 8002556:	4413      	add	r3, r2
 8002558:	881b      	ldrh	r3, [r3, #0]
 800255a:	617b      	str	r3, [r7, #20]
        for (j = 0; j < font.width; j++) {
 800255c:	2300      	movs	r3, #0
 800255e:	61bb      	str	r3, [r7, #24]
 8002560:	e027      	b.n	80025b2 <ST7789_WriteChar+0xb8>
            if ((b << j) & 0x8000) {
 8002562:	697a      	ldr	r2, [r7, #20]
 8002564:	69bb      	ldr	r3, [r7, #24]
 8002566:	fa02 f303 	lsl.w	r3, r2, r3
 800256a:	f403 4300 	and.w	r3, r3, #32768	@ 0x8000
 800256e:	2b00      	cmp	r3, #0
 8002570:	d00e      	beq.n	8002590 <ST7789_WriteChar+0x96>
                uint8_t data[] = { color >> 8, color & 0xFF };
 8002572:	8ebb      	ldrh	r3, [r7, #52]	@ 0x34
 8002574:	0a1b      	lsrs	r3, r3, #8
 8002576:	b29b      	uxth	r3, r3
 8002578:	b2db      	uxtb	r3, r3
 800257a:	743b      	strb	r3, [r7, #16]
 800257c:	8ebb      	ldrh	r3, [r7, #52]	@ 0x34
 800257e:	b2db      	uxtb	r3, r3
 8002580:	747b      	strb	r3, [r7, #17]
                ST7789_WriteData(data, sizeof(data));
 8002582:	f107 0310 	add.w	r3, r7, #16
 8002586:	2102      	movs	r1, #2
 8002588:	4618      	mov	r0, r3
 800258a:	f7ff fd4d 	bl	8002028 <ST7789_WriteData>
 800258e:	e00d      	b.n	80025ac <ST7789_WriteChar+0xb2>
            } else {
                uint8_t data[] = { bgcolor >> 8, bgcolor & 0xFF };
 8002590:	8f3b      	ldrh	r3, [r7, #56]	@ 0x38
 8002592:	0a1b      	lsrs	r3, r3, #8
 8002594:	b29b      	uxth	r3, r3
 8002596:	b2db      	uxtb	r3, r3
 8002598:	733b      	strb	r3, [r7, #12]
 800259a:	8f3b      	ldrh	r3, [r7, #56]	@ 0x38
 800259c:	b2db      	uxtb	r3, r3
 800259e:	737b      	strb	r3, [r7, #13]
                ST7789_WriteData(data, sizeof(data));
 80025a0:	f107 030c 	add.w	r3, r7, #12
 80025a4:	2102      	movs	r1, #2
 80025a6:	4618      	mov	r0, r3
 80025a8:	f7ff fd3e 	bl	8002028 <ST7789_WriteData>
        for (j = 0; j < font.width; j++) {
 80025ac:	69bb      	ldr	r3, [r7, #24]
 80025ae:	3301      	adds	r3, #1
 80025b0:	61bb      	str	r3, [r7, #24]
 80025b2:	f897 302c 	ldrb.w	r3, [r7, #44]	@ 0x2c
 80025b6:	461a      	mov	r2, r3
 80025b8:	69bb      	ldr	r3, [r7, #24]
 80025ba:	4293      	cmp	r3, r2
 80025bc:	d3d1      	bcc.n	8002562 <ST7789_WriteChar+0x68>
    for (i = 0; i < font.height; i++) {
 80025be:	69fb      	ldr	r3, [r7, #28]
 80025c0:	3301      	adds	r3, #1
 80025c2:	61fb      	str	r3, [r7, #28]
 80025c4:	f897 302d 	ldrb.w	r3, [r7, #45]	@ 0x2d
 80025c8:	461a      	mov	r2, r3
 80025ca:	69fb      	ldr	r3, [r7, #28]
 80025cc:	4293      	cmp	r3, r2
 80025ce:	d3b7      	bcc.n	8002540 <ST7789_WriteChar+0x46>
            }
        }
    }
    ST7789_UnSelect();
 80025d0:	bf00      	nop
}
 80025d2:	bf00      	nop
 80025d4:	3720      	adds	r7, #32
 80025d6:	46bd      	mov	sp, r7
 80025d8:	e8bd 4080 	ldmia.w	sp!, {r7, lr}
 80025dc:	b002      	add	sp, #8
 80025de:	4770      	bx	lr

080025e0 <ST7789_WriteString>:
 * @param font -> fontstyle of the string
 * @param color -> color of the string
 * @param bgcolor -> background color of the string
 * @return  none
 */
void ST7789_WriteString(uint16_t x, uint16_t y, const char *str, FontDef font, uint16_t color, uint16_t bgcolor) {
 80025e0:	b082      	sub	sp, #8
 80025e2:	b580      	push	{r7, lr}
 80025e4:	b086      	sub	sp, #24
 80025e6:	af04      	add	r7, sp, #16
 80025e8:	603a      	str	r2, [r7, #0]
 80025ea:	617b      	str	r3, [r7, #20]
 80025ec:	4603      	mov	r3, r0
 80025ee:	80fb      	strh	r3, [r7, #6]
 80025f0:	460b      	mov	r3, r1
 80025f2:	80bb      	strh	r3, [r7, #4]
    ST7789_Select();
 80025f4:	bf00      	nop
    while (*str) {
 80025f6:	e02e      	b.n	8002656 <ST7789_WriteString+0x76>
        if (x + font.width >= ST7789_WIDTH) {
 80025f8:	88fb      	ldrh	r3, [r7, #6]
 80025fa:	7d3a      	ldrb	r2, [r7, #20]
 80025fc:	4413      	add	r3, r2
 80025fe:	2bef      	cmp	r3, #239	@ 0xef
 8002600:	dd14      	ble.n	800262c <ST7789_WriteString+0x4c>
            x = 0;
 8002602:	2300      	movs	r3, #0
 8002604:	80fb      	strh	r3, [r7, #6]
            y += font.height;
 8002606:	7d7b      	ldrb	r3, [r7, #21]
 8002608:	461a      	mov	r2, r3
 800260a:	88bb      	ldrh	r3, [r7, #4]
 800260c:	4413      	add	r3, r2
 800260e:	80bb      	strh	r3, [r7, #4]
            if (y + font.height >= ST7789_HEIGHT) {
 8002610:	88bb      	ldrh	r3, [r7, #4]
 8002612:	7d7a      	ldrb	r2, [r7, #21]
 8002614:	4413      	add	r3, r2
 8002616:	f5b3 7fa0 	cmp.w	r3, #320	@ 0x140
 800261a:	da21      	bge.n	8002660 <ST7789_WriteString+0x80>
                break;
            }

            if (*str == ' ') {
 800261c:	683b      	ldr	r3, [r7, #0]
 800261e:	781b      	ldrb	r3, [r3, #0]
 8002620:	2b20      	cmp	r3, #32
 8002622:	d103      	bne.n	800262c <ST7789_WriteString+0x4c>
                // skip spaces in the beginning of the new line
                str++;
 8002624:	683b      	ldr	r3, [r7, #0]
 8002626:	3301      	adds	r3, #1
 8002628:	603b      	str	r3, [r7, #0]
                continue;
 800262a:	e014      	b.n	8002656 <ST7789_WriteString+0x76>
            }
        }
        ST7789_WriteChar(x, y, *str, font, color, bgcolor);
 800262c:	683b      	ldr	r3, [r7, #0]
 800262e:	781a      	ldrb	r2, [r3, #0]
 8002630:	88b9      	ldrh	r1, [r7, #4]
 8002632:	88f8      	ldrh	r0, [r7, #6]
 8002634:	8c3b      	ldrh	r3, [r7, #32]
 8002636:	9302      	str	r3, [sp, #8]
 8002638:	8bbb      	ldrh	r3, [r7, #28]
 800263a:	9301      	str	r3, [sp, #4]
 800263c:	69bb      	ldr	r3, [r7, #24]
 800263e:	9300      	str	r3, [sp, #0]
 8002640:	697b      	ldr	r3, [r7, #20]
 8002642:	f7ff ff5a 	bl	80024fa <ST7789_WriteChar>
        x += font.width;
 8002646:	7d3b      	ldrb	r3, [r7, #20]
 8002648:	461a      	mov	r2, r3
 800264a:	88fb      	ldrh	r3, [r7, #6]
 800264c:	4413      	add	r3, r2
 800264e:	80fb      	strh	r3, [r7, #6]
        str++;
 8002650:	683b      	ldr	r3, [r7, #0]
 8002652:	3301      	adds	r3, #1
 8002654:	603b      	str	r3, [r7, #0]
    while (*str) {
 8002656:	683b      	ldr	r3, [r7, #0]
 8002658:	781b      	ldrb	r3, [r3, #0]
 800265a:	2b00      	cmp	r3, #0
 800265c:	d1cc      	bne.n	80025f8 <ST7789_WriteString+0x18>
 800265e:	e000      	b.n	8002662 <ST7789_WriteString+0x82>
                break;
 8002660:	bf00      	nop
    }
    ST7789_UnSelect();
 8002662:	bf00      	nop
}
 8002664:	bf00      	nop
 8002666:	3708      	adds	r7, #8
 8002668:	46bd      	mov	sp, r7
 800266a:	e8bd 4080 	ldmia.w	sp!, {r7, lr}
 800266e:	b002      	add	sp, #8
 8002670:	4770      	bx	lr
	...

08002674 <ST7789_DisplayNumber>:
 * @param font -> 数字的字体样式。
 * @param color -> 数字的颜色。
 * @param bgcolor -> 数字的背景颜色。
 * @return none
 */
void ST7789_DisplayNumber(uint16_t x, uint16_t y, int number, FontDef font, uint16_t color, uint16_t bgcolor) {
 8002674:	b082      	sub	sp, #8
 8002676:	b580      	push	{r7, lr}
 8002678:	b08e      	sub	sp, #56	@ 0x38
 800267a:	af04      	add	r7, sp, #16
 800267c:	603a      	str	r2, [r7, #0]
 800267e:	637b      	str	r3, [r7, #52]	@ 0x34
 8002680:	4603      	mov	r3, r0
 8002682:	80fb      	strh	r3, [r7, #6]
 8002684:	460b      	mov	r3, r1
 8002686:	80bb      	strh	r3, [r7, #4]
	    char buffer[16];
	    snprintf(buffer, sizeof(buffer), "%d", number);
 8002688:	f107 000c 	add.w	r0, r7, #12
 800268c:	683b      	ldr	r3, [r7, #0]
 800268e:	4a25      	ldr	r2, [pc, #148]	@ (8002724 <ST7789_DisplayNumber+0xb0>)
 8002690:	2110      	movs	r1, #16
 8002692:	f008 fe6f 	bl	800b374 <sniprintf>
	    int len = strlen(buffer);
 8002696:	f107 030c 	add.w	r3, r7, #12
 800269a:	4618      	mov	r0, r3
 800269c:	f7fd fd58 	bl	8000150 <strlen>
 80026a0:	4603      	mov	r3, r0
 80026a2:	61fb      	str	r3, [r7, #28]
	    int xPos = 0;
 80026a4:	2300      	movs	r3, #0
 80026a6:	627b      	str	r3, [r7, #36]	@ 0x24
	    /* 先清除之前可能残留的内容 */
//	    ST7789_DrawFilledRectangle(x + len * font.width, y, x + (len+1) * font.width, font.height, bgcolor);
	    for (int i = 0; i < len; i++) {
 80026a8:	2300      	movs	r3, #0
 80026aa:	623b      	str	r3, [r7, #32]
 80026ac:	e02e      	b.n	800270c <ST7789_DisplayNumber+0x98>
	        ST7789_WriteChar(x + xPos, y, buffer[i], font, color, bgcolor);
 80026ae:	6a7b      	ldr	r3, [r7, #36]	@ 0x24
 80026b0:	b29a      	uxth	r2, r3
 80026b2:	88fb      	ldrh	r3, [r7, #6]
 80026b4:	4413      	add	r3, r2
 80026b6:	b298      	uxth	r0, r3
 80026b8:	f107 020c 	add.w	r2, r7, #12
 80026bc:	6a3b      	ldr	r3, [r7, #32]
 80026be:	4413      	add	r3, r2
 80026c0:	781a      	ldrb	r2, [r3, #0]
 80026c2:	88b9      	ldrh	r1, [r7, #4]
